{
  "_format": "hh-sol-artifact-1",
  "contractName": "TreasuryFacet",
  "sourceName": "contracts/facets/Treasury/TreasuryFacet.sol",
  "abi": [
    {
      "inputs": [
        {
          "internalType": "address",
          "name": "_token",
          "type": "address"
        }
      ],
      "name": "InvalidToken",
      "type": "error"
    },
    {
      "anonymous": false,
      "inputs": [
        {
          "indexed": true,
          "internalType": "enum TreasuryFacet.MANAGING",
          "name": "managing",
          "type": "uint8"
        },
        {
          "indexed": false,
          "internalType": "address",
          "name": "activated",
          "type": "address"
        },
        {
          "indexed": false,
          "internalType": "bool",
          "name": "result",
          "type": "bool"
        }
      ],
      "name": "ChangeActivated",
      "type": "event"
    },
    {
      "anonymous": false,
      "inputs": [
        {
          "indexed": true,
          "internalType": "enum TreasuryFacet.MANAGING",
          "name": "managing",
          "type": "uint8"
        },
        {
          "indexed": false,
          "internalType": "address",
          "name": "queued",
          "type": "address"
        }
      ],
      "name": "ChangeQueued",
      "type": "event"
    },
    {
      "anonymous": false,
      "inputs": [
        {
          "indexed": true,
          "internalType": "address",
          "name": "debtor",
          "type": "address"
        },
        {
          "indexed": true,
          "internalType": "address",
          "name": "token",
          "type": "address"
        },
        {
          "indexed": false,
          "internalType": "uint256",
          "name": "amount",
          "type": "uint256"
        },
        {
          "indexed": false,
          "internalType": "uint256",
          "name": "value",
          "type": "uint256"
        }
      ],
      "name": "CreateDebt",
      "type": "event"
    },
    {
      "anonymous": false,
      "inputs": [
        {
          "indexed": true,
          "internalType": "address",
          "name": "token",
          "type": "address"
        },
        {
          "indexed": false,
          "internalType": "uint256",
          "name": "amount",
          "type": "uint256"
        },
        {
          "indexed": false,
          "internalType": "uint256",
          "name": "value",
          "type": "uint256"
        }
      ],
      "name": "Deposit",
      "type": "event"
    },
    {
      "anonymous": false,
      "inputs": [
        {
          "indexed": true,
          "internalType": "address",
          "name": "debtor",
          "type": "address"
        },
        {
          "indexed": true,
          "internalType": "address",
          "name": "token",
          "type": "address"
        },
        {
          "indexed": false,
          "internalType": "uint256",
          "name": "amount",
          "type": "uint256"
        },
        {
          "indexed": false,
          "internalType": "uint256",
          "name": "value",
          "type": "uint256"
        }
      ],
      "name": "RepayDebt",
      "type": "event"
    },
    {
      "anonymous": false,
      "inputs": [
        {
          "indexed": true,
          "internalType": "uint256",
          "name": "totalReserves",
          "type": "uint256"
        }
      ],
      "name": "ReservesAudited",
      "type": "event"
    },
    {
      "anonymous": false,
      "inputs": [
        {
          "indexed": true,
          "internalType": "address",
          "name": "token",
          "type": "address"
        },
        {
          "indexed": false,
          "internalType": "uint256",
          "name": "amount",
          "type": "uint256"
        }
      ],
      "name": "ReservesManaged",
      "type": "event"
    },
    {
      "anonymous": false,
      "inputs": [
        {
          "indexed": true,
          "internalType": "uint256",
          "name": "totalReserves",
          "type": "uint256"
        }
      ],
      "name": "ReservesUpdated",
      "type": "event"
    },
    {
      "anonymous": false,
      "inputs": [
        {
          "indexed": true,
          "internalType": "address",
          "name": "caller",
          "type": "address"
        },
        {
          "indexed": true,
          "internalType": "address",
          "name": "recipient",
          "type": "address"
        },
        {
          "indexed": false,
          "internalType": "uint256",
          "name": "amount",
          "type": "uint256"
        }
      ],
      "name": "RewardsMinted",
      "type": "event"
    },
    {
      "anonymous": false,
      "inputs": [
        {
          "indexed": true,
          "internalType": "address",
          "name": "token",
          "type": "address"
        },
        {
          "indexed": false,
          "internalType": "uint256",
          "name": "amount",
          "type": "uint256"
        },
        {
          "indexed": false,
          "internalType": "uint256",
          "name": "value",
          "type": "uint256"
        }
      ],
      "name": "Withdrawal",
      "type": "event"
    },
    {
      "inputs": [],
      "name": "auditReserves",
      "outputs": [],
      "stateMutability": "nonpayable",
      "type": "function"
    },
    {
      "inputs": [],
      "name": "baseSupply",
      "outputs": [
        {
          "internalType": "uint256",
          "name": "",
          "type": "uint256"
        }
      ],
      "stateMutability": "view",
      "type": "function"
    },
    {
      "inputs": [
        {
          "internalType": "uint256",
          "name": "_amount",
          "type": "uint256"
        },
        {
          "internalType": "address",
          "name": "_token",
          "type": "address"
        },
        {
          "internalType": "uint256",
          "name": "_profit",
          "type": "uint256"
        }
      ],
      "name": "deposit",
      "outputs": [
        {
          "internalType": "uint256",
          "name": "send_",
          "type": "uint256"
        }
      ],
      "stateMutability": "nonpayable",
      "type": "function"
    },
    {
      "inputs": [],
      "name": "excessReserves",
      "outputs": [
        {
          "internalType": "uint256",
          "name": "",
          "type": "uint256"
        }
      ],
      "stateMutability": "view",
      "type": "function"
    },
    {
      "inputs": [
        {
          "internalType": "uint256",
          "name": "_amount",
          "type": "uint256"
        },
        {
          "internalType": "address",
          "name": "_token",
          "type": "address"
        }
      ],
      "name": "incurDebt",
      "outputs": [],
      "stateMutability": "nonpayable",
      "type": "function"
    },
    {
      "inputs": [
        {
          "internalType": "address",
          "name": "_Necc",
          "type": "address"
        },
        {
          "internalType": "address",
          "name": "_sNecc",
          "type": "address"
        },
        {
          "internalType": "address",
          "name": "_nNecc",
          "type": "address"
        },
        {
          "internalType": "address",
          "name": "_NDOL",
          "type": "address"
        },
        {
          "internalType": "uint256",
          "name": "_blocksNeededForQueue",
          "type": "uint256"
        }
      ],
      "name": "initializeTreasury",
      "outputs": [],
      "stateMutability": "nonpayable",
      "type": "function"
    },
    {
      "inputs": [
        {
          "internalType": "address",
          "name": "_depositor",
          "type": "address"
        }
      ],
      "name": "isReserveDepositor",
      "outputs": [
        {
          "internalType": "bool",
          "name": "",
          "type": "bool"
        }
      ],
      "stateMutability": "view",
      "type": "function"
    },
    {
      "inputs": [
        {
          "internalType": "address",
          "name": "_principle",
          "type": "address"
        }
      ],
      "name": "isReserveToken",
      "outputs": [
        {
          "internalType": "bool",
          "name": "",
          "type": "bool"
        }
      ],
      "stateMutability": "view",
      "type": "function"
    },
    {
      "inputs": [
        {
          "internalType": "address",
          "name": "_token",
          "type": "address"
        },
        {
          "internalType": "uint256",
          "name": "_amount",
          "type": "uint256"
        }
      ],
      "name": "manage",
      "outputs": [],
      "stateMutability": "nonpayable",
      "type": "function"
    },
    {
      "inputs": [
        {
          "internalType": "address",
          "name": "_recipient",
          "type": "address"
        },
        {
          "internalType": "uint256",
          "name": "_amount",
          "type": "uint256"
        }
      ],
      "name": "mintRewards",
      "outputs": [],
      "stateMutability": "nonpayable",
      "type": "function"
    },
    {
      "inputs": [
        {
          "internalType": "enum TreasuryFacet.MANAGING",
          "name": "_managing",
          "type": "uint8"
        },
        {
          "internalType": "address",
          "name": "_address",
          "type": "address"
        }
      ],
      "name": "queue",
      "outputs": [
        {
          "internalType": "bool",
          "name": "",
          "type": "bool"
        }
      ],
      "stateMutability": "nonpayable",
      "type": "function"
    },
    {
      "inputs": [
        {
          "internalType": "uint256",
          "name": "_amount",
          "type": "uint256"
        }
      ],
      "name": "repayDebtWithNecc",
      "outputs": [],
      "stateMutability": "nonpayable",
      "type": "function"
    },
    {
      "inputs": [
        {
          "internalType": "uint256",
          "name": "_amount",
          "type": "uint256"
        },
        {
          "internalType": "address",
          "name": "_token",
          "type": "address"
        }
      ],
      "name": "repayDebtWithReserve",
      "outputs": [],
      "stateMutability": "nonpayable",
      "type": "function"
    },
    {
      "inputs": [
        {
          "internalType": "enum TreasuryFacet.MANAGING",
          "name": "_managing",
          "type": "uint8"
        },
        {
          "internalType": "address",
          "name": "_address",
          "type": "address"
        }
      ],
      "name": "toggle",
      "outputs": [
        {
          "internalType": "bool",
          "name": "",
          "type": "bool"
        }
      ],
      "stateMutability": "nonpayable",
      "type": "function"
    },
    {
      "inputs": [
        {
          "internalType": "address",
          "name": "_token",
          "type": "address"
        },
        {
          "internalType": "uint256",
          "name": "_amount",
          "type": "uint256"
        }
      ],
      "name": "valueOfToken",
      "outputs": [
        {
          "internalType": "uint256",
          "name": "_value",
          "type": "uint256"
        }
      ],
      "stateMutability": "view",
      "type": "function"
    },
    {
      "inputs": [
        {
          "internalType": "uint256",
          "name": "_amount",
          "type": "uint256"
        },
        {
          "internalType": "address",
          "name": "_token",
          "type": "address"
        }
      ],
      "name": "withdraw",
      "outputs": [],
      "stateMutability": "nonpayable",
      "type": "function"
    }
  ],
  "bytecode": "0x608060405234801561001057600080fd5b50612c8c806100206000396000f3fe608060405234801561001057600080fd5b50600436106100ff5760003560e01c8063860f504811610097578063d5e8be0d11610066578063d5e8be0d1461021e578063d796ffb814610231578063e5f12b7614610244578063e83afee31461025757600080fd5b8063860f5048146101dd578063bc157ac1146101e5578063cad9311e146101f8578063d1b317e51461020b57600080fd5b806312422d23116100d357806312422d23146101835780632b7ce5001461019657806368c31dd51461019e5780636a20de92146101ca57600080fd5b8062f714ce146101045780630b0eee30146101195780630c3513a81461012c578063124154ca14610147575b600080fd5b610117610112366004612898565b61026a565b005b6101176101273660046128c4565b61045e565b610134610684565b6040519081526020015b60405180910390f35b6101736101553660046128ee565b6001600160a01b03166000908152600c602052604090205460ff1690565b604051901515815260200161013e565b610117610191366004612898565b61071f565b610117610a5e565b6101736101ac3660046128ee565b6001600160a01b031660009081526009602052604090205460ff1690565b6101176101d83660046128c4565b610c2e565b610134610db4565b6101346101f3366004612909565b610e4c565b61011761020636600461293e565b6110a9565b6101346102193660046128c4565b61125e565b61017361022c366004612957565b611448565b61011761023f366004612898565b611cdd565b610117610252366004612987565b611ec0565b610173610265366004612957565b611f97565b6001600160a01b03811660009081526009602052604090205460ff166102d75760405162461bcd60e51b815260206004820152601660248201527f54726561737572793a204e6f742061636365707465640000000000000000000060448201526064015b60405180910390fd5b336000908152600f602052604090205460ff16151560011461033b5760405162461bcd60e51b815260206004820152601660248201527f54726561737572793a204e6f7420617070726f7665640000000000000000000060448201526064016102ce565b6000610347828461125e565b6000546040517f79cc6790000000000000000000000000000000000000000000000000000000008152336004820152602481018390529192506001600160a01b0316906379cc679090604401600060405180830381600087803b1580156103ad57600080fd5b505af11580156103c1573d6000803e3d6000fd5b50506006546103d392509050826122c8565b60068190556040517f93bb8edd35984706eee1b92541281f7f62d33c01c5b2ec0929a113603bd21d6690600090a26104156001600160a01b03831633856122d4565b60408051848152602081018390526001600160a01b038416917fdf273cb619d95419a9cd0ec88123a0538c85064229baa6363788f743fff90deb910160405180910390a2505050565b6001600160a01b03821660009081526012602052604090205460ff16156104e357336000908152601b602052604090205460ff166104de5760405162461bcd60e51b815260206004820152601660248201527f54726561737572793a204e6f7420617070726f7665640000000000000000000060448201526064016102ce565b610542565b3360009081526018602052604090205460ff166105425760405162461bcd60e51b815260206004820152601660248201527f54726561737572793a204e6f7420617070726f7665640000000000000000000060448201526064016102ce565b6001600160a01b03821660009081526012602052604090205460ff168061058157506001600160a01b03821660009081526009602052604090205460ff165b156105fd576000610592838361125e565b905061059c610684565b8111156105eb5760405162461bcd60e51b815260206004820152601f60248201527f54726561737572793a20496e73756666696369656e742072657365727665730060448201526064016102ce565b6006546105f890826122c8565b600655505b6006546040517f93bb8edd35984706eee1b92541281f7f62d33c01c5b2ec0929a113603bd21d6690600090a261063d6001600160a01b03831633836122d4565b816001600160a01b03167f2bb2640731848fe9820ba48dbc978c1fc9bbd5f11b948bfab05b7dee3378fd808260405161067891815260200190565b60405180910390a25050565b600061071a6107116000600701546000800160009054906101000a90046001600160a01b03166001600160a01b03166318160ddd6040518163ffffffff1660e01b8152600401602060405180830381865afa1580156106e7573d6000803e3d6000fd5b505050506040513d601f19601f8201168201806040525081019061070b91906129e3565b906122c8565b600654906122c8565b905090565b600080546001600160a01b038381169116141561079c57336000908152600c602052604090205460ff166107955760405162461bcd60e51b815260206004820152601d60248201527f54726561737572793a20446562746f72204e6f7420617070726f76656400000060448201526064016102ce565b5081610895565b336000908152600c602052604090205460ff166107fb5760405162461bcd60e51b815260206004820152601d60248201527f54726561737572793a20446562746f72204e6f7420617070726f76656400000060448201526064016102ce565b6001600160a01b03821660009081526009602052604090205460ff166108885760405162461bcd60e51b8152602060048201526024808201527f54726561737572793a205265736572766520546f6b656e204e6f74206170707260448201527f6f7665640000000000000000000000000000000000000000000000000000000060648201526084016102ce565b610892828461125e565b90505b806108e25760405162461bcd60e51b815260206004820152601760248201527f54726561737572793a20496e76616c696420746f6b656e00000000000000000060448201526064016102ce565b6001805460405163ae5c6cd360e01b81526004810184905233602482015260448101929092526001600160a01b03169063ae5c6cd390606401600060405180830381600087803b15801561093557600080fd5b505af1158015610949573d6000803e3d6000fd5b505060075461095b9250905082612382565b6007556000546001600160a01b03838116911614156109ee576000546040516340c10f1960e01b8152336004820152602481018390526001600160a01b03909116906340c10f1990604401600060405180830381600087803b1580156109c057600080fd5b505af11580156109d4573d6000803e3d6000fd5b50506008546109e69250905082612382565b600855610a12565b6006546109fb90826122c8565b600655610a126001600160a01b03831633856122d4565b60408051848152602081018390526001600160a01b0384169133917f7e1a939bed137a819b5d2979822c67f877689f7a863d5e4cb57cdca97b2977d691015b60405180910390a3505050565b610a6661238e565b6000805b600454811015610b6557610b51610b4a60006004018381548110610a9057610a906129fc565b600091825260209091200154600480546001600160a01b039092169185908110610abc57610abc6129fc565b6000918252602090912001546040517f70a082310000000000000000000000000000000000000000000000000000000081523060048201526001600160a01b03909116906370a0823190602401602060405180830381865afa158015610b26573d6000803e3d6000fd5b505050506040513d601f19601f8201168201806040525081019061021991906129e3565b8390612382565b915080610b5d81612a28565b915050610a6a565b5060005b601154811015610bcf57610bbb610b4a60006011018381548110610b8f57610b8f6129fc565b600091825260209091200154601180546001600160a01b039092169185908110610abc57610abc6129fc565b915080610bc781612a28565b915050610b69565b50600681905560405181907f93bb8edd35984706eee1b92541281f7f62d33c01c5b2ec0929a113603bd21d6690600090a260405181907fec691f09f6924b27932253f85caf99bacc30360cc0e50a1cc4d2acc24601446690600090a250565b3360009081526021602052604090205460ff16610cb35760405162461bcd60e51b815260206004820152602560248201527f54726561737572793a20526577617264204d616e61676572204e6f742061707060448201527f726f76656400000000000000000000000000000000000000000000000000000060648201526084016102ce565b610cbb610684565b811115610d0a5760405162461bcd60e51b815260206004820152601f60248201527f54726561737572793a20496e73756666696369656e742072657365727665730060448201526064016102ce565b6000546040516340c10f1960e01b81526001600160a01b03848116600483015260248201849052909116906340c10f1990604401600060405180830381600087803b158015610d5857600080fd5b505af1158015610d6c573d6000803e3d6000fd5b50506040518381526001600160a01b03851692503391507ffa8ccab40e7da8146c2304cd0950334fd30a6ba093abe86261aa13911fed849c9060200160405180910390a35050565b60085460008054604080517f18160ddd00000000000000000000000000000000000000000000000000000000815290519293926001600160a01b03909216916318160ddd916004808201926020929091908290030181865afa158015610e1e573d6000803e3d6000fd5b505050506040513d601f19601f82011682018060405250810190610e4291906129e3565b61071a9190612a43565b6001600160a01b03821660009081526009602052604081205460ff1615610ed157336000908152600c602052604090205460ff16610ecc5760405162461bcd60e51b815260206004820152601660248201527f54726561737572793a204e6f7420617070726f7665640000000000000000000060448201526064016102ce565b610f8e565b6001600160a01b03831660009081526012602052604090205460ff1615610f51573360009081526015602052604090205460ff16610ecc5760405162461bcd60e51b815260206004820152601660248201527f54726561737572793a204e6f7420617070726f7665640000000000000000000060448201526064016102ce565b6040517f961c9a4f0000000000000000000000000000000000000000000000000000000081526001600160a01b03841660048201526024016102ce565b610fa36001600160a01b038416333087612398565b6000610faf848661125e565b9050610fbb81846122c8565b6000546040516340c10f1960e01b8152336004820152602481018390529193506001600160a01b0316906340c10f1990604401600060405180830381600087803b15801561100857600080fd5b505af115801561101c573d6000803e3d6000fd5b505060065461102e9250905082612382565b60068190556040517f93bb8edd35984706eee1b92541281f7f62d33c01c5b2ec0929a113603bd21d6690600090a260408051868152602081018390526001600160a01b038616917f90890809c654f11d6e72a28fa60149770a0d11ec6c92319d6ceb2bb0a4ea1a15910160405180910390a2505b9392505050565b336000908152601e602052604090205460ff166111085760405162461bcd60e51b815260206004820152601660248201527f54726561737572793a204e6f7420617070726f7665640000000000000000000060448201526064016102ce565b6000546040517f79cc6790000000000000000000000000000000000000000000000000000000008152336004820152602481018390526001600160a01b03909116906379cc679090604401600060405180830381600087803b15801561116d57600080fd5b505af1158015611181573d6000803e3d6000fd5b505060015460405163ae5c6cd360e01b815260048101859052336024820152600060448201526001600160a01b03909116925063ae5c6cd39150606401600060405180830381600087803b1580156111d857600080fd5b505af11580156111ec573d6000803e3d6000fd5b50506007546111fe92509050826122c8565b60075560085461120e90826122c8565b60085560005460408051838152602081018490526001600160a01b039092169133917fc6d98eecfc9c78ab62c89a82950079b54874749f1f6f24090f7acc758bc2f309910160405180910390a350565b6001600160a01b03821660009081526009602052604081205460ff16156113965761138f836001600160a01b031663313ce5676040518163ffffffff1660e01b8152600401602060405180830381865afa1580156112c0573d6000803e3d6000fd5b505050506040513d601f19601f820116820180604052508101906112e491906129e3565b6112ef90600a612b3e565b600054604080517f313ce5670000000000000000000000000000000000000000000000000000000081529051611389926001600160a01b03169163313ce5679160048083019260209291908290030181865afa158015611353573d6000803e3d6000fd5b505050506040513d601f19601f8201168201806040525081019061137791906129e3565b61138290600a612b3e565b85906123ef565b906123fb565b9050611442565b6001600160a01b03831660009081526012602052604090205460ff1615611442576040517f4249719f0000000000000000000000000000000000000000000000000000000081526001600160a01b0384166004820152602481018390523090634249719f90604401602060405180830381865afa15801561141b573d6000803e3d6000fd5b505050506040513d601f19601f8201168201806040525081019061143f91906129e3565b90505b92915050565b600061145261238e565b6001600160a01b03821661146557600080fd5b60008084600981111561147a5761147a612b4a565b14156115365761148d600d600c85612407565b15611506576001600160a01b0383166000908152600d60205260408120556114b6600b84612506565b61150657600b80546001810182556000919091527f0175b7a638427703f0dbe7bb9bbf987a2551717b34e79f33b5b1008d1fa01db90180546001600160a01b0319166001600160a01b0385161790555b506001600160a01b0382166000908152600c60205260409020805460ff81161560ff199091168117909155611c7e565b600184600981111561154a5761154a612b4a565b14156116065761155d6010600f85612407565b156115d6576001600160a01b038316600090815260106020526040812055611586600e84612506565b6115d657600e80546001810182556000919091527fbb7b4a454dc3493923482f07822329ed19e8244eff582cc204f8554c3620c3fd0180546001600160a01b0319166001600160a01b0385161790555b506001600160a01b0382166000908152600f60205260409020805460ff81161560ff199091168117909155611c7e565b600284600981111561161a5761161a612b4a565b14156116d65761162d600a600985612407565b156116a6576001600160a01b0383166000908152600a6020526040812055611656600484612506565b6116a657600480546001810182556000919091527f8a35acfbc15ff81a39ae7d344fd709f28e8600b4aa8c65c6b64bfe7fe36bd19b0180546001600160a01b0319166001600160a01b0385161790555b506001600160a01b0382166000908152600960205260409020805460ff81161560ff199091168117909155611c7e565b60038460098111156116ea576116ea612b4a565b14156117e3576116fd6019601885612407565b156117b357601780546001810182557fc624b66cc0138b8fabc209247f72d758e1cf3343756d543badbf24212bed8c150180546001600160a01b0319166001600160a01b0386169081179091556000908152601960205260408120556117639084612506565b6117b357601780546001810182556000919091527fc624b66cc0138b8fabc209247f72d758e1cf3343756d543badbf24212bed8c150180546001600160a01b0319166001600160a01b0385161790555b506001600160a01b0382166000908152601860205260409020805460ff81161560ff199091168117909155611c7e565b60048460098111156117f7576117f7612b4a565b14156118f05761180a6016601585612407565b156118c057601480546001810182557fce6d7b5282bd9a3661ae061feed1dbda4e52ab073b1f9285be6e155d9c38d4ec0180546001600160a01b0319166001600160a01b0386169081179091556000908152601660205260408120556118709084612506565b6118c057601480546001810182556000919091527fce6d7b5282bd9a3661ae061feed1dbda4e52ab073b1f9285be6e155d9c38d4ec0180546001600160a01b0319166001600160a01b0385161790555b506001600160a01b0382166000908152601560205260409020805460ff81161560ff199091168117909155611c7e565b600584600981111561190457611904612b4a565b14156119c0576119176013601285612407565b15611990576001600160a01b038316600090815260136020526040812055611940601184612506565b61199057601180546001810182556000919091527f31ecc21a745e3968a04e9570e4425bc18fa8019c68028196b546d1669c200c680180546001600160a01b0319166001600160a01b0385161790555b506001600160a01b0382166000908152601260205260409020805460ff81161560ff199091168117909155611c7e565b60068460098111156119d4576119d4612b4a565b1415611a90576119e7601c601b85612407565b15611a60576001600160a01b0383166000908152601c6020526040812055611a10601a84612506565b611a6057601a80546001810182556000919091527f057c384a7d1c54f3a1b2e5e67b2617b8224fdfd1ea7234eea573a6ff665ff63e0180546001600160a01b0319166001600160a01b0385161790555b506001600160a01b0382166000908152601b60205260409020805460ff81161560ff199091168117909155611c7e565b6007846009811115611aa457611aa4612b4a565b1415611b6057611ab7601f601e85612407565b15611b30576001600160a01b0383166000908152601f6020526040812055611ae0601d84612506565b611b3057601d80546001810182556000919091527f6d4407e7be21f808e6509aa9fa9143369579dd7d760fe20a2c09680fc146134f0180546001600160a01b0319166001600160a01b0385161790555b506001600160a01b0382166000908152601e60205260409020805460ff81161560ff199091168117909155611c7e565b6008846009811115611b7457611b74612b4a565b1415611c3457611b876022602185612407565b15611c04576001600160a01b0383166000908152602260209081526040822091909155611bb49084612506565b611c0457602080546001810182556000919091527fc97bfaf2f8ee708c303a06d134f5ecd8389ae0432af62dc132a24118292866bb0180546001600160a01b0319166001600160a01b0385161790555b506001600160a01b0382166000908152602160205260409020805460ff81161560ff199091168117909155611c7e565b6009846009811115611c4857611c48612b4a565b1415611c7457506000600555600180546001600160a01b0319166001600160a01b038416178155611c7e565b6000915050611442565b836009811115611c9057611c90612b4a565b604080516001600160a01b038616815283151560208201527f0dcacb7e392f3d6a216ed2660e3dcfd40b7793d33591db2ba185a6b8e44fc477910160405180910390a25060019392505050565b336000908152601e602052604090205460ff16611d3c5760405162461bcd60e51b815260206004820152601660248201527f54726561737572793a204e6f7420617070726f7665640000000000000000000060448201526064016102ce565b6001600160a01b03811660009081526009602052604090205460ff16611da45760405162461bcd60e51b815260206004820152601660248201527f54726561737572793a204e6f742061636365707465640000000000000000000060448201526064016102ce565b611db96001600160a01b038216333085612398565b6000611dc5828461125e565b60015460405163ae5c6cd360e01b815260048101839052336024820152600060448201529192506001600160a01b03169063ae5c6cd390606401600060405180830381600087803b158015611e1957600080fd5b505af1158015611e2d573d6000803e3d6000fd5b5050600754611e3f92509050826122c8565b600755600654611e4f9082612382565b60068190556040517f93bb8edd35984706eee1b92541281f7f62d33c01c5b2ec0929a113603bd21d6690600090a260408051848152602081018390526001600160a01b0384169133917fc6d98eecfc9c78ab62c89a82950079b54874749f1f6f24090f7acc758bc2f3099101610a51565b611ec861238e565b6001600160a01b038516611edb57600080fd5b6001600160a01b038416611eee57600080fd5b6001600160a01b038316611f0157600080fd5b600080546001600160a01b03199081166001600160a01b039788161782556001805482169688169690961786556002805482169588169590951790945591909416808252600960205260408220805460ff1916851790556004805494850181559091527f8a35acfbc15ff81a39ae7d344fd709f28e8600b4aa8c65c6b64bfe7fe36bd19b90920180549091169091179055600355565b6000611fa161238e565b6001600160a01b038216611fb457600080fd5b6000836009811115611fc857611fc8612b4a565b1415611ffa57600354611fdc904390612382565b6001600160a01b0383166000908152600d6020526040902055612271565b600183600981111561200e5761200e612b4a565b141561204057600354612022904390612382565b6001600160a01b038316600090815260106020526040902055612271565b600283600981111561205457612054612b4a565b141561208657600354612068904390612382565b6001600160a01b0383166000908152600a6020526040902055612271565b600383600981111561209a5761209a612b4a565b14156120d7576003546120b9906120b29060026123ef565b4390612382565b6001600160a01b038316600090815260196020526040902055612271565b60048360098111156120eb576120eb612b4a565b141561211d576003546120ff904390612382565b6001600160a01b038316600090815260166020526040902055612271565b600583600981111561213157612131612b4a565b141561216357600354612145904390612382565b6001600160a01b038316600090815260136020526040902055612271565b600683600981111561217757612177612b4a565b14156121ad5760035461218f906120b29060026123ef565b6001600160a01b0383166000908152601c6020526040902055612271565b60078360098111156121c1576121c1612b4a565b14156121f3576003546121d5904390612382565b6001600160a01b0383166000908152601f6020526040902055612271565b600883600981111561220757612207612b4a565b14156122395760035461221b904390612382565b6001600160a01b038316600090815260226020526040902055612271565b600983600981111561224d5761224d612b4a565b141561226957600354612261904390612382565b600555612271565b506000611442565b82600981111561228357612283612b4a565b6040516001600160a01b03841681527f0e4f2c4b5bc209d509bc3d49348c787fefadc66a79351b470599ac0f5be52eaf9060200160405180910390a250600192915050565b600061143f8284612a43565b6040516001600160a01b03831660248201526044810182905261237d9084907fa9059cbb00000000000000000000000000000000000000000000000000000000906064015b60408051601f198184030181529190526020810180517bffffffffffffffffffffffffffffffffffffffffffffffffffffffff167fffffffff0000000000000000000000000000000000000000000000000000000090931692909217909152612566565b505050565b600061143f8284612b60565b61239661264b565b565b6040516001600160a01b03808516602483015283166044820152606481018290526123e99085907f23b872dd0000000000000000000000000000000000000000000000000000000090608401612319565b50505050565b600061143f8284612b78565b600061143f8284612b97565b6001600160a01b03811660009081526020839052604081205460ff166124fc576001600160a01b03821660009081526020859052604090205461248c5760405162461bcd60e51b815260206004820152600a60248201527f4d7573742071756575650000000000000000000000000000000000000000000060448201526064016102ce565b6001600160a01b0382166000908152602085905260409020544310156124f45760405162461bcd60e51b815260206004820152601160248201527f5175657565206e6f74206578706972656400000000000000000000000000000060448201526064016102ce565b5060016110a2565b5060009392505050565b6000805b83548110156124fc57826001600160a01b031684828154811061252f5761252f6129fc565b6000918252602090912001546001600160a01b03161415612554576001915050611442565b8061255e81612a28565b91505061250a565b60006125bb826040518060400160405280602081526020017f5361666545524332303a206c6f772d6c6576656c2063616c6c206661696c6564815250856001600160a01b03166126ed9092919063ffffffff16565b80519091501561237d57808060200190518101906125d99190612bb9565b61237d5760405162461bcd60e51b815260206004820152602a60248201527f5361666545524332303a204552433230206f7065726174696f6e20646964206e60448201527f6f7420737563636565640000000000000000000000000000000000000000000060648201526084016102ce565b7fc8fcad8db84d3cc18b4c41d551ea0ee66dd599cde068d998e57d5e09332c131c600401546001600160a01b031633146123965760405162461bcd60e51b815260206004820152602260248201527f4c69624469616d6f6e643a20696e76616c696420636f6e7472616374206f776e60448201527f657200000000000000000000000000000000000000000000000000000000000060648201526084016102ce565b60606126fc8484600085612704565b949350505050565b60608247101561277c5760405162461bcd60e51b815260206004820152602660248201527f416464726573733a20696e73756666696369656e742062616c616e636520666f60448201527f722063616c6c000000000000000000000000000000000000000000000000000060648201526084016102ce565b843b6127ca5760405162461bcd60e51b815260206004820152601d60248201527f416464726573733a2063616c6c20746f206e6f6e2d636f6e747261637400000060448201526064016102ce565b600080866001600160a01b031685876040516127e69190612c07565b60006040518083038185875af1925050503d8060008114612823576040519150601f19603f3d011682016040523d82523d6000602084013e612828565b606091505b5091509150612838828286612843565b979650505050505050565b606083156128525750816110a2565b8251156128625782518084602001fd5b8160405162461bcd60e51b81526004016102ce9190612c23565b80356001600160a01b038116811461289357600080fd5b919050565b600080604083850312156128ab57600080fd5b823591506128bb6020840161287c565b90509250929050565b600080604083850312156128d757600080fd5b6128e08361287c565b946020939093013593505050565b60006020828403121561290057600080fd5b61143f8261287c565b60008060006060848603121561291e57600080fd5b8335925061292e6020850161287c565b9150604084013590509250925092565b60006020828403121561295057600080fd5b5035919050565b6000806040838503121561296a57600080fd5b8235600a811061297957600080fd5b91506128bb6020840161287c565b600080600080600060a0868803121561299f57600080fd5b6129a88661287c565b94506129b66020870161287c565b93506129c46040870161287c565b92506129d26060870161287c565b949793965091946080013592915050565b6000602082840312156129f557600080fd5b5051919050565b634e487b7160e01b600052603260045260246000fd5b634e487b7160e01b600052601160045260246000fd5b6000600019821415612a3c57612a3c612a12565b5060010190565b600082821015612a5557612a55612a12565b500390565b600181815b80851115612a95578160001904821115612a7b57612a7b612a12565b80851615612a8857918102915b93841c9390800290612a5f565b509250929050565b600082612aac57506001611442565b81612ab957506000611442565b8160018114612acf5760028114612ad957612af5565b6001915050611442565b60ff841115612aea57612aea612a12565b50506001821b611442565b5060208310610133831016604e8410600b8410161715612b18575081810a611442565b612b228383612a5a565b8060001904821115612b3657612b36612a12565b029392505050565b600061143f8383612a9d565b634e487b7160e01b600052602160045260246000fd5b60008219821115612b7357612b73612a12565b500190565b6000816000190483118215151615612b9257612b92612a12565b500290565b600082612bb457634e487b7160e01b600052601260045260246000fd5b500490565b600060208284031215612bcb57600080fd5b815180151581146110a257600080fd5b60005b83811015612bf6578181015183820152602001612bde565b838111156123e95750506000910152565b60008251612c19818460208701612bdb565b9190910192915050565b6020815260008251806020840152612c42816040850160208701612bdb565b601f01601f1916919091016040019291505056fea26469706673582212202b3bb4417fd42e4f7642e311b1d0d88214d36251e4bf03d2060aa404cb2dd49264736f6c634300080a0033",
  "linkReferences": {},
  "deployedLinkReferences": {}
}