{
  "_format": "hh-sol-artifact-1",
  "contractName": "TreasuryFacet",
  "sourceName": "contracts/facets/Treasury/TreasuryFacet.sol",
  "abi": [
    {
      "inputs": [
        {
          "internalType": "address",
          "name": "_token",
          "type": "address"
        }
      ],
      "name": "InvalidToken",
      "type": "error"
    },
    {
      "anonymous": false,
      "inputs": [
        {
          "indexed": true,
          "internalType": "enum TreasuryFacet.MANAGING",
          "name": "managing",
          "type": "uint8"
        },
        {
          "indexed": false,
          "internalType": "address",
          "name": "activated",
          "type": "address"
        },
        {
          "indexed": false,
          "internalType": "bool",
          "name": "result",
          "type": "bool"
        }
      ],
      "name": "ChangeActivated",
      "type": "event"
    },
    {
      "anonymous": false,
      "inputs": [
        {
          "indexed": true,
          "internalType": "enum TreasuryFacet.MANAGING",
          "name": "managing",
          "type": "uint8"
        },
        {
          "indexed": false,
          "internalType": "address",
          "name": "queued",
          "type": "address"
        }
      ],
      "name": "ChangeQueued",
      "type": "event"
    },
    {
      "anonymous": false,
      "inputs": [
        {
          "indexed": true,
          "internalType": "address",
          "name": "debtor",
          "type": "address"
        },
        {
          "indexed": true,
          "internalType": "address",
          "name": "token",
          "type": "address"
        },
        {
          "indexed": false,
          "internalType": "uint256",
          "name": "amount",
          "type": "uint256"
        },
        {
          "indexed": false,
          "internalType": "uint256",
          "name": "value",
          "type": "uint256"
        }
      ],
      "name": "CreateDebt",
      "type": "event"
    },
    {
      "anonymous": false,
      "inputs": [
        {
          "indexed": true,
          "internalType": "address",
          "name": "token",
          "type": "address"
        },
        {
          "indexed": false,
          "internalType": "uint256",
          "name": "amount",
          "type": "uint256"
        },
        {
          "indexed": false,
          "internalType": "uint256",
          "name": "value",
          "type": "uint256"
        }
      ],
      "name": "Deposit",
      "type": "event"
    },
    {
      "anonymous": false,
      "inputs": [
        {
          "indexed": true,
          "internalType": "address",
          "name": "debtor",
          "type": "address"
        },
        {
          "indexed": true,
          "internalType": "address",
          "name": "token",
          "type": "address"
        },
        {
          "indexed": false,
          "internalType": "uint256",
          "name": "amount",
          "type": "uint256"
        },
        {
          "indexed": false,
          "internalType": "uint256",
          "name": "value",
          "type": "uint256"
        }
      ],
      "name": "RepayDebt",
      "type": "event"
    },
    {
      "anonymous": false,
      "inputs": [
        {
          "indexed": true,
          "internalType": "uint256",
          "name": "totalReserves",
          "type": "uint256"
        }
      ],
      "name": "ReservesAudited",
      "type": "event"
    },
    {
      "anonymous": false,
      "inputs": [
        {
          "indexed": true,
          "internalType": "address",
          "name": "token",
          "type": "address"
        },
        {
          "indexed": false,
          "internalType": "uint256",
          "name": "amount",
          "type": "uint256"
        }
      ],
      "name": "ReservesManaged",
      "type": "event"
    },
    {
      "anonymous": false,
      "inputs": [
        {
          "indexed": true,
          "internalType": "uint256",
          "name": "totalReserves",
          "type": "uint256"
        }
      ],
      "name": "ReservesUpdated",
      "type": "event"
    },
    {
      "anonymous": false,
      "inputs": [
        {
          "indexed": true,
          "internalType": "address",
          "name": "caller",
          "type": "address"
        },
        {
          "indexed": true,
          "internalType": "address",
          "name": "recipient",
          "type": "address"
        },
        {
          "indexed": false,
          "internalType": "uint256",
          "name": "amount",
          "type": "uint256"
        }
      ],
      "name": "RewardsMinted",
      "type": "event"
    },
    {
      "anonymous": false,
      "inputs": [
        {
          "indexed": true,
          "internalType": "address",
          "name": "token",
          "type": "address"
        },
        {
          "indexed": false,
          "internalType": "uint256",
          "name": "amount",
          "type": "uint256"
        },
        {
          "indexed": false,
          "internalType": "uint256",
          "name": "value",
          "type": "uint256"
        }
      ],
      "name": "Withdrawal",
      "type": "event"
    },
    {
      "inputs": [],
      "name": "auditReserves",
      "outputs": [],
      "stateMutability": "nonpayable",
      "type": "function"
    },
    {
      "inputs": [],
      "name": "baseSupply",
      "outputs": [
        {
          "internalType": "uint256",
          "name": "",
          "type": "uint256"
        }
      ],
      "stateMutability": "view",
      "type": "function"
    },
    {
      "inputs": [
        {
          "internalType": "uint256",
          "name": "_amount",
          "type": "uint256"
        },
        {
          "internalType": "address",
          "name": "_token",
          "type": "address"
        },
        {
          "internalType": "uint256",
          "name": "_profit",
          "type": "uint256"
        }
      ],
      "name": "deposit",
      "outputs": [
        {
          "internalType": "uint256",
          "name": "send_",
          "type": "uint256"
        }
      ],
      "stateMutability": "nonpayable",
      "type": "function"
    },
    {
      "inputs": [],
      "name": "excessReserves",
      "outputs": [
        {
          "internalType": "uint256",
          "name": "",
          "type": "uint256"
        }
      ],
      "stateMutability": "view",
      "type": "function"
    },
    {
      "inputs": [
        {
          "internalType": "uint256",
          "name": "_amount",
          "type": "uint256"
        },
        {
          "internalType": "address",
          "name": "_token",
          "type": "address"
        }
      ],
      "name": "incurDebt",
      "outputs": [],
      "stateMutability": "nonpayable",
      "type": "function"
    },
    {
      "inputs": [
        {
          "internalType": "address",
          "name": "_Necc",
          "type": "address"
        },
        {
          "internalType": "address",
          "name": "_sNecc",
          "type": "address"
        },
        {
          "internalType": "address",
          "name": "_nNecc",
          "type": "address"
        },
        {
          "internalType": "address",
          "name": "_NDOL",
          "type": "address"
        },
        {
          "internalType": "uint256",
          "name": "_blocksNeededForQueue",
          "type": "uint256"
        }
      ],
      "name": "initializeTreasury",
      "outputs": [],
      "stateMutability": "nonpayable",
      "type": "function"
    },
    {
      "inputs": [
        {
          "internalType": "address",
          "name": "_depositor",
          "type": "address"
        }
      ],
      "name": "isReserveDepositor",
      "outputs": [
        {
          "internalType": "bool",
          "name": "",
          "type": "bool"
        }
      ],
      "stateMutability": "view",
      "type": "function"
    },
    {
      "inputs": [
        {
          "internalType": "address",
          "name": "_principle",
          "type": "address"
        }
      ],
      "name": "isReserveToken",
      "outputs": [
        {
          "internalType": "bool",
          "name": "",
          "type": "bool"
        }
      ],
      "stateMutability": "view",
      "type": "function"
    },
    {
      "inputs": [
        {
          "internalType": "address",
          "name": "_token",
          "type": "address"
        },
        {
          "internalType": "uint256",
          "name": "_amount",
          "type": "uint256"
        }
      ],
      "name": "manage",
      "outputs": [],
      "stateMutability": "nonpayable",
      "type": "function"
    },
    {
      "inputs": [
        {
          "internalType": "address",
          "name": "_recipient",
          "type": "address"
        },
        {
          "internalType": "uint256",
          "name": "_amount",
          "type": "uint256"
        }
      ],
      "name": "mintRewards",
      "outputs": [],
      "stateMutability": "nonpayable",
      "type": "function"
    },
    {
      "inputs": [
        {
          "internalType": "enum TreasuryFacet.MANAGING",
          "name": "_managing",
          "type": "uint8"
        },
        {
          "internalType": "address",
          "name": "_address",
          "type": "address"
        }
      ],
      "name": "queue",
      "outputs": [
        {
          "internalType": "bool",
          "name": "",
          "type": "bool"
        }
      ],
      "stateMutability": "nonpayable",
      "type": "function"
    },
    {
      "inputs": [
        {
          "internalType": "uint256",
          "name": "_amount",
          "type": "uint256"
        }
      ],
      "name": "repayDebtWithNecc",
      "outputs": [],
      "stateMutability": "nonpayable",
      "type": "function"
    },
    {
      "inputs": [
        {
          "internalType": "uint256",
          "name": "_amount",
          "type": "uint256"
        },
        {
          "internalType": "address",
          "name": "_token",
          "type": "address"
        }
      ],
      "name": "repayDebtWithReserve",
      "outputs": [],
      "stateMutability": "nonpayable",
      "type": "function"
    },
    {
      "inputs": [
        {
          "internalType": "enum TreasuryFacet.MANAGING",
          "name": "_managing",
          "type": "uint8"
        },
        {
          "internalType": "address",
          "name": "_address",
          "type": "address"
        }
      ],
      "name": "toggle",
      "outputs": [
        {
          "internalType": "bool",
          "name": "",
          "type": "bool"
        }
      ],
      "stateMutability": "nonpayable",
      "type": "function"
    },
    {
      "inputs": [
        {
          "internalType": "address",
          "name": "_token",
          "type": "address"
        },
        {
          "internalType": "uint256",
          "name": "_amount",
          "type": "uint256"
        }
      ],
      "name": "valueOfToken",
      "outputs": [
        {
          "internalType": "uint256",
          "name": "_value",
          "type": "uint256"
        }
      ],
      "stateMutability": "view",
      "type": "function"
    },
    {
      "inputs": [
        {
          "internalType": "uint256",
          "name": "_amount",
          "type": "uint256"
        },
        {
          "internalType": "address",
          "name": "_token",
          "type": "address"
        }
      ],
      "name": "withdraw",
      "outputs": [],
      "stateMutability": "nonpayable",
      "type": "function"
    }
  ],
  "bytecode": "0x608060405234801561001057600080fd5b506150cf806100206000396000f3fe608060405234801561001057600080fd5b50600436106100ff5760003560e01c8063860f504811610097578063d5e8be0d11610066578063d5e8be0d14610296578063d796ffb8146102c6578063e5f12b76146102e2578063e83afee3146102fe576100ff565b8063860f5048146101fc578063bc157ac11461021a578063cad9311e1461024a578063d1b317e514610266576100ff565b806312422d23116100d357806312422d231461018a5780632b7ce500146101a657806368c31dd5146101b05780636a20de92146101e0576100ff565b8062f714ce146101045780630b0eee30146101205780630c3513a81461013c578063124154ca1461015a575b600080fd5b61011e60048036038101906101199190614193565b61032e565b005b61013a600480360381019061013591906141d3565b6105c5565b005b610144610914565b6040516101519190614222565b60405180910390f35b610174600480360381019061016f919061423d565b6109dc565b6040516101819190614285565b60405180910390f35b6101a4600480360381019061019f9190614193565b610a34565b005b6101ae610f12565b005b6101ca60048036038101906101c5919061423d565b611206565b6040516101d79190614285565b60405180910390f35b6101fa60048036038101906101f591906141d3565b61125e565b005b610204611431565b6040516102119190614222565b60405180910390f35b610234600480360381019061022f91906142a0565b6114da565b6040516102419190614222565b60405180910390f35b610264600480360381019061025f91906142f3565b611877565b005b610280600480360381019061027b91906141d3565b611afc565b60405161028d9190614222565b60405180910390f35b6102b060048036038101906102ab9190614345565b611d71565b6040516102bd9190614285565b60405180910390f35b6102e060048036038101906102db9190614193565b612ee8565b005b6102fc60048036038101906102f79190614385565b6131b6565b005b61031860048036038101906103139190614345565b613409565b6040516103259190614285565b60405180910390f35b600060090160008273ffffffffffffffffffffffffffffffffffffffff1673ffffffffffffffffffffffffffffffffffffffff16815260200190815260200160002060009054906101000a900460ff166103bd576040517f08c379a00000000000000000000000000000000000000000000000000000000081526004016103b49061445d565b60405180910390fd5b600115156000600f0160003373ffffffffffffffffffffffffffffffffffffffff1673ffffffffffffffffffffffffffffffffffffffff16815260200190815260200160002060009054906101000a900460ff16151514610453576040517f08c379a000000000000000000000000000000000000000000000000000000000815260040161044a906144c9565b60405180910390fd5b600061045f8284611afc565b90506000800160009054906101000a900473ffffffffffffffffffffffffffffffffffffffff1673ffffffffffffffffffffffffffffffffffffffff166379cc679033836040518363ffffffff1660e01b81526004016104c09291906144f8565b600060405180830381600087803b1580156104da57600080fd5b505af11580156104ee573d6000803e3d6000fd5b5050505061050a81600060060154613a3c90919063ffffffff16565b6000600601819055506000600601547f93bb8edd35984706eee1b92541281f7f62d33c01c5b2ec0929a113603bd21d6660405160405180910390a261057033848473ffffffffffffffffffffffffffffffffffffffff16613a529092919063ffffffff16565b8173ffffffffffffffffffffffffffffffffffffffff167fdf273cb619d95419a9cd0ec88123a0538c85064229baa6363788f743fff90deb84836040516105b8929190614521565b60405180910390a2505050565b600060120160008373ffffffffffffffffffffffffffffffffffffffff1673ffffffffffffffffffffffffffffffffffffffff16815260200190815260200160002060009054906101000a900460ff16156106ae576000601b0160003373ffffffffffffffffffffffffffffffffffffffff1673ffffffffffffffffffffffffffffffffffffffff16815260200190815260200160002060009054906101000a900460ff166106a9576040517f08c379a00000000000000000000000000000000000000000000000000000000081526004016106a0906144c9565b60405180910390fd5b61073e565b600060180160003373ffffffffffffffffffffffffffffffffffffffff1673ffffffffffffffffffffffffffffffffffffffff16815260200190815260200160002060009054906101000a900460ff1661073d576040517f08c379a0000000000000000000000000000000000000000000000000000000008152600401610734906144c9565b60405180910390fd5b5b600060120160008373ffffffffffffffffffffffffffffffffffffffff1673ffffffffffffffffffffffffffffffffffffffff16815260200190815260200160002060009054906101000a900460ff16806107e55750600060090160008373ffffffffffffffffffffffffffffffffffffffff1673ffffffffffffffffffffffffffffffffffffffff16815260200190815260200160002060009054906101000a900460ff165b156108655760006107f68383611afc565b9050610800610914565b811115610842576040517f08c379a000000000000000000000000000000000000000000000000000000000815260040161083990614596565b60405180910390fd5b61085a81600060060154613a3c90919063ffffffff16565b600060060181905550505b6000600601547f93bb8edd35984706eee1b92541281f7f62d33c01c5b2ec0929a113603bd21d6660405160405180910390a26108c233828473ffffffffffffffffffffffffffffffffffffffff16613a529092919063ffffffff16565b8173ffffffffffffffffffffffffffffffffffffffff167f2bb2640731848fe9820ba48dbc978c1fc9bbd5f11b948bfab05b7dee3378fd80826040516109089190614222565b60405180910390a25050565b60006109d76109c36000600701546000800160009054906101000a900473ffffffffffffffffffffffffffffffffffffffff1673ffffffffffffffffffffffffffffffffffffffff166318160ddd6040518163ffffffff1660e01b8152600401602060405180830381865afa158015610991573d6000803e3d6000fd5b505050506040513d601f19601f820116820180604052508101906109b591906145cb565b613a3c90919063ffffffff16565b600060060154613a3c90919063ffffffff16565b905090565b600080600c0160008373ffffffffffffffffffffffffffffffffffffffff1673ffffffffffffffffffffffffffffffffffffffff16815260200190815260200160002060009054906101000a900460ff169050919050565b60008060000160009054906101000a900473ffffffffffffffffffffffffffffffffffffffff1673ffffffffffffffffffffffffffffffffffffffff168273ffffffffffffffffffffffffffffffffffffffff161415610b25576000600c0160003373ffffffffffffffffffffffffffffffffffffffff1673ffffffffffffffffffffffffffffffffffffffff16815260200190815260200160002060009054906101000a900460ff16610b1d576040517f08c379a0000000000000000000000000000000000000000000000000000000008152600401610b1490614644565b60405180910390fd5b829050610c50565b6000600c0160003373ffffffffffffffffffffffffffffffffffffffff1673ffffffffffffffffffffffffffffffffffffffff16815260200190815260200160002060009054906101000a900460ff16610bb4576040517f08c379a0000000000000000000000000000000000000000000000000000000008152600401610bab90614644565b60405180910390fd5b600060090160008373ffffffffffffffffffffffffffffffffffffffff1673ffffffffffffffffffffffffffffffffffffffff16815260200190815260200160002060009054906101000a900460ff16610c43576040517f08c379a0000000000000000000000000000000000000000000000000000000008152600401610c3a906146d6565b60405180910390fd5b610c4d8284611afc565b90505b6000811415610c94576040517f08c379a0000000000000000000000000000000000000000000000000000000008152600401610c8b90614742565b60405180910390fd5b600060010160009054906101000a900473ffffffffffffffffffffffffffffffffffffffff1673ffffffffffffffffffffffffffffffffffffffff1663ae5c6cd3823360016040518463ffffffff1660e01b8152600401610cf793929190614762565b600060405180830381600087803b158015610d1157600080fd5b505af1158015610d25573d6000803e3d6000fd5b50505050610d4181600060070154613ad890919063ffffffff16565b6000600701819055506000800160009054906101000a900473ffffffffffffffffffffffffffffffffffffffff1673ffffffffffffffffffffffffffffffffffffffff168273ffffffffffffffffffffffffffffffffffffffff161415610e59576000800160009054906101000a900473ffffffffffffffffffffffffffffffffffffffff1673ffffffffffffffffffffffffffffffffffffffff166340c10f1933836040518363ffffffff1660e01b8152600401610e019291906144f8565b600060405180830381600087803b158015610e1b57600080fd5b505af1158015610e2f573d6000803e3d6000fd5b50505050610e4b81600060080154613ad890919063ffffffff16565b600060080181905550610ea6565b610e7181600060060154613a3c90919063ffffffff16565b600060060181905550610ea533848473ffffffffffffffffffffffffffffffffffffffff16613a529092919063ffffffff16565b5b8173ffffffffffffffffffffffffffffffffffffffff163373ffffffffffffffffffffffffffffffffffffffff167f7e1a939bed137a819b5d2979822c67f877689f7a863d5e4cb57cdca97b2977d68584604051610f05929190614521565b60405180910390a3505050565b610f1a613aee565b600080600090505b60006004018054905081101561105e5761104961103a60006004018381548110610f4f57610f4e614799565b5b9060005260206000200160009054906101000a900473ffffffffffffffffffffffffffffffffffffffff1660006004018481548110610f9157610f90614799565b5b9060005260206000200160009054906101000a900473ffffffffffffffffffffffffffffffffffffffff1673ffffffffffffffffffffffffffffffffffffffff166370a08231306040518263ffffffff1660e01b8152600401610ff491906147c8565b602060405180830381865afa158015611011573d6000803e3d6000fd5b505050506040513d601f19601f8201168201806040525081019061103591906145cb565b611afc565b83613ad890919063ffffffff16565b9150808061105690614812565b915050610f22565b5060005b60006011018054905081101561119e5761118961117a6000601101838154811061108f5761108e614799565b5b9060005260206000200160009054906101000a900473ffffffffffffffffffffffffffffffffffffffff16600060110184815481106110d1576110d0614799565b5b9060005260206000200160009054906101000a900473ffffffffffffffffffffffffffffffffffffffff1673ffffffffffffffffffffffffffffffffffffffff166370a08231306040518263ffffffff1660e01b815260040161113491906147c8565b602060405180830381865afa158015611151573d6000803e3d6000fd5b505050506040513d601f19601f8201168201806040525081019061117591906145cb565b611afc565b83613ad890919063ffffffff16565b9150808061119690614812565b915050611062565b5080600060060181905550807f93bb8edd35984706eee1b92541281f7f62d33c01c5b2ec0929a113603bd21d6660405160405180910390a2807fec691f09f6924b27932253f85caf99bacc30360cc0e50a1cc4d2acc24601446660405160405180910390a250565b60008060090160008373ffffffffffffffffffffffffffffffffffffffff1673ffffffffffffffffffffffffffffffffffffffff16815260200190815260200160002060009054906101000a900460ff169050919050565b600060210160003373ffffffffffffffffffffffffffffffffffffffff1673ffffffffffffffffffffffffffffffffffffffff16815260200190815260200160002060009054906101000a900460ff166112ed576040517f08c379a00000000000000000000000000000000000000000000000000000000081526004016112e4906148cd565b60405180910390fd5b6112f5610914565b811115611337576040517f08c379a000000000000000000000000000000000000000000000000000000000815260040161132e90614596565b60405180910390fd5b6000800160009054906101000a900473ffffffffffffffffffffffffffffffffffffffff1673ffffffffffffffffffffffffffffffffffffffff166340c10f1983836040518363ffffffff1660e01b81526004016113969291906144f8565b600060405180830381600087803b1580156113b057600080fd5b505af11580156113c4573d6000803e3d6000fd5b505050508173ffffffffffffffffffffffffffffffffffffffff163373ffffffffffffffffffffffffffffffffffffffff167ffa8ccab40e7da8146c2304cd0950334fd30a6ba093abe86261aa13911fed849c836040516114259190614222565b60405180910390a35050565b600080600801546000800160009054906101000a900473ffffffffffffffffffffffffffffffffffffffff1673ffffffffffffffffffffffffffffffffffffffff166318160ddd6040518163ffffffff1660e01b8152600401602060405180830381865afa1580156114a7573d6000803e3d6000fd5b505050506040513d601f19601f820116820180604052508101906114cb91906145cb565b6114d591906148ed565b905090565b60008060090160008473ffffffffffffffffffffffffffffffffffffffff1673ffffffffffffffffffffffffffffffffffffffff16815260200190815260200160002060009054906101000a900460ff16156115c4576000600c0160003373ffffffffffffffffffffffffffffffffffffffff1673ffffffffffffffffffffffffffffffffffffffff16815260200190815260200160002060009054906101000a900460ff166115bf576040517f08c379a00000000000000000000000000000000000000000000000000000000081526004016115b6906144c9565b60405180910390fd5b6116eb565b600060120160008473ffffffffffffffffffffffffffffffffffffffff1673ffffffffffffffffffffffffffffffffffffffff16815260200190815260200160002060009054906101000a900460ff16156116ad57600060150160003373ffffffffffffffffffffffffffffffffffffffff1673ffffffffffffffffffffffffffffffffffffffff16815260200190815260200160002060009054906101000a900460ff166116a8576040517f08c379a000000000000000000000000000000000000000000000000000000000815260040161169f906144c9565b60405180910390fd5b6116ea565b826040517f961c9a4f0000000000000000000000000000000000000000000000000000000081526004016116e191906147c8565b60405180910390fd5b5b6117183330868673ffffffffffffffffffffffffffffffffffffffff16613af8909392919063ffffffff16565b60006117248486611afc565b90506117398382613a3c90919063ffffffff16565b91506000800160009054906101000a900473ffffffffffffffffffffffffffffffffffffffff1673ffffffffffffffffffffffffffffffffffffffff166340c10f1933846040518363ffffffff1660e01b815260040161179a9291906144f8565b600060405180830381600087803b1580156117b457600080fd5b505af11580156117c8573d6000803e3d6000fd5b505050506117e481600060060154613ad890919063ffffffff16565b6000600601819055506000600601547f93bb8edd35984706eee1b92541281f7f62d33c01c5b2ec0929a113603bd21d6660405160405180910390a28373ffffffffffffffffffffffffffffffffffffffff167f90890809c654f11d6e72a28fa60149770a0d11ec6c92319d6ceb2bb0a4ea1a158683604051611867929190614521565b60405180910390a2509392505050565b6000601e0160003373ffffffffffffffffffffffffffffffffffffffff1673ffffffffffffffffffffffffffffffffffffffff16815260200190815260200160002060009054906101000a900460ff16611906576040517f08c379a00000000000000000000000000000000000000000000000000000000081526004016118fd906144c9565b60405180910390fd5b6000800160009054906101000a900473ffffffffffffffffffffffffffffffffffffffff1673ffffffffffffffffffffffffffffffffffffffff166379cc679033836040518363ffffffff1660e01b81526004016119659291906144f8565b600060405180830381600087803b15801561197f57600080fd5b505af1158015611993573d6000803e3d6000fd5b50505050600060010160009054906101000a900473ffffffffffffffffffffffffffffffffffffffff1673ffffffffffffffffffffffffffffffffffffffff1663ae5c6cd3823360006040518463ffffffff1660e01b81526004016119fa93929190614762565b600060405180830381600087803b158015611a1457600080fd5b505af1158015611a28573d6000803e3d6000fd5b50505050611a4481600060070154613a3c90919063ffffffff16565b600060070181905550611a6581600060080154613a3c90919063ffffffff16565b6000600801819055506000800160009054906101000a900473ffffffffffffffffffffffffffffffffffffffff1673ffffffffffffffffffffffffffffffffffffffff163373ffffffffffffffffffffffffffffffffffffffff167fc6d98eecfc9c78ab62c89a82950079b54874749f1f6f24090f7acc758bc2f3098384604051611af1929190614521565b60405180910390a350565b60008060090160008473ffffffffffffffffffffffffffffffffffffffff1673ffffffffffffffffffffffffffffffffffffffff16815260200190815260200160002060009054906101000a900460ff1615611c9657611c8f8373ffffffffffffffffffffffffffffffffffffffff1663313ce5676040518163ffffffff1660e01b8152600401602060405180830381865afa158015611ba0573d6000803e3d6000fd5b505050506040513d601f19601f82011682018060405250810190611bc491906145cb565b600a611bd09190614a54565b611c816000800160009054906101000a900473ffffffffffffffffffffffffffffffffffffffff1673ffffffffffffffffffffffffffffffffffffffff1663313ce5676040518163ffffffff1660e01b8152600401602060405180830381865afa158015611c42573d6000803e3d6000fd5b505050506040513d601f19601f82011682018060405250810190611c6691906145cb565b600a611c729190614a54565b85613b8190919063ffffffff16565b613b9790919063ffffffff16565b9050611d6b565b600060120160008473ffffffffffffffffffffffffffffffffffffffff1673ffffffffffffffffffffffffffffffffffffffff16815260200190815260200160002060009054906101000a900460ff1615611d6a573073ffffffffffffffffffffffffffffffffffffffff16634249719f84846040518363ffffffff1660e01b8152600401611d269291906144f8565b602060405180830381865afa158015611d43573d6000803e3d6000fd5b505050506040513d601f19601f82011682018060405250810190611d6791906145cb565b90505b5b92915050565b6000611d7b613aee565b600073ffffffffffffffffffffffffffffffffffffffff168273ffffffffffffffffffffffffffffffffffffffff161415611db557600080fd5b6000806009811115611dca57611dc9614a9f565b5b846009811115611ddd57611ddc614a9f565b5b1415611f6e57611df66000600d016000600c0185613bad565b15611ebc57600080600d0160008573ffffffffffffffffffffffffffffffffffffffff1673ffffffffffffffffffffffffffffffffffffffff16815260200190815260200160002081905550611e506000600b0184613d17565b611ebb576000600b01839080600181540180825580915050600190039060005260206000200160009091909190916101000a81548173ffffffffffffffffffffffffffffffffffffffff021916908373ffffffffffffffffffffffffffffffffffffffff1602179055505b5b6000600c0160008473ffffffffffffffffffffffffffffffffffffffff1673ffffffffffffffffffffffffffffffffffffffff16815260200190815260200160002060009054906101000a900460ff16159050806000600c0160008573ffffffffffffffffffffffffffffffffffffffff1673ffffffffffffffffffffffffffffffffffffffff16815260200190815260200160002060006101000a81548160ff021916908315150217905550612e90565b60016009811115611f8257611f81614a9f565b5b846009811115611f9557611f94614a9f565b5b141561212657611fae60006010016000600f0185613bad565b156120745760008060100160008573ffffffffffffffffffffffffffffffffffffffff1673ffffffffffffffffffffffffffffffffffffffff168152602001908152602001600020819055506120086000600e0184613d17565b612073576000600e01839080600181540180825580915050600190039060005260206000200160009091909190916101000a81548173ffffffffffffffffffffffffffffffffffffffff021916908373ffffffffffffffffffffffffffffffffffffffff1602179055505b5b6000600f0160008473ffffffffffffffffffffffffffffffffffffffff1673ffffffffffffffffffffffffffffffffffffffff16815260200190815260200160002060009054906101000a900460ff16159050806000600f0160008573ffffffffffffffffffffffffffffffffffffffff1673ffffffffffffffffffffffffffffffffffffffff16815260200190815260200160002060006101000a81548160ff021916908315150217905550612e8f565b6002600981111561213a57612139614a9f565b5b84600981111561214d5761214c614a9f565b5b14156122de576121666000600a01600060090185613bad565b1561222c57600080600a0160008573ffffffffffffffffffffffffffffffffffffffff1673ffffffffffffffffffffffffffffffffffffffff168152602001908152602001600020819055506121c0600060040184613d17565b61222b576000600401839080600181540180825580915050600190039060005260206000200160009091909190916101000a81548173ffffffffffffffffffffffffffffffffffffffff021916908373ffffffffffffffffffffffffffffffffffffffff1602179055505b5b600060090160008473ffffffffffffffffffffffffffffffffffffffff1673ffffffffffffffffffffffffffffffffffffffff16815260200190815260200160002060009054906101000a900460ff1615905080600060090160008573ffffffffffffffffffffffffffffffffffffffff1673ffffffffffffffffffffffffffffffffffffffff16815260200190815260200160002060006101000a81548160ff021916908315150217905550612e8e565b600360098111156122f2576122f1614a9f565b5b84600981111561230557612304614a9f565b5b14156124fc5761231e6000601901600060180185613bad565b1561244a576000601701839080600181540180825580915050600190039060005260206000200160009091909190916101000a81548173ffffffffffffffffffffffffffffffffffffffff021916908373ffffffffffffffffffffffffffffffffffffffff16021790555060008060190160008573ffffffffffffffffffffffffffffffffffffffff1673ffffffffffffffffffffffffffffffffffffffff168152602001908152602001600020819055506123de600060170184613d17565b612449576000601701839080600181540180825580915050600190039060005260206000200160009091909190916101000a81548173ffffffffffffffffffffffffffffffffffffffff021916908373ffffffffffffffffffffffffffffffffffffffff1602179055505b5b600060180160008473ffffffffffffffffffffffffffffffffffffffff1673ffffffffffffffffffffffffffffffffffffffff16815260200190815260200160002060009054906101000a900460ff1615905080600060180160008573ffffffffffffffffffffffffffffffffffffffff1673ffffffffffffffffffffffffffffffffffffffff16815260200190815260200160002060006101000a81548160ff021916908315150217905550612e8d565b600460098111156125105761250f614a9f565b5b84600981111561252357612522614a9f565b5b141561271a5761253c6000601601600060150185613bad565b15612668576000601401839080600181540180825580915050600190039060005260206000200160009091909190916101000a81548173ffffffffffffffffffffffffffffffffffffffff021916908373ffffffffffffffffffffffffffffffffffffffff16021790555060008060160160008573ffffffffffffffffffffffffffffffffffffffff1673ffffffffffffffffffffffffffffffffffffffff168152602001908152602001600020819055506125fc600060140184613d17565b612667576000601401839080600181540180825580915050600190039060005260206000200160009091909190916101000a81548173ffffffffffffffffffffffffffffffffffffffff021916908373ffffffffffffffffffffffffffffffffffffffff1602179055505b5b600060150160008473ffffffffffffffffffffffffffffffffffffffff1673ffffffffffffffffffffffffffffffffffffffff16815260200190815260200160002060009054906101000a900460ff1615905080600060150160008573ffffffffffffffffffffffffffffffffffffffff1673ffffffffffffffffffffffffffffffffffffffff16815260200190815260200160002060006101000a81548160ff021916908315150217905550612e8c565b6005600981111561272e5761272d614a9f565b5b84600981111561274157612740614a9f565b5b14156128d25761275a6000601301600060120185613bad565b156128205760008060130160008573ffffffffffffffffffffffffffffffffffffffff1673ffffffffffffffffffffffffffffffffffffffff168152602001908152602001600020819055506127b4600060110184613d17565b61281f576000601101839080600181540180825580915050600190039060005260206000200160009091909190916101000a81548173ffffffffffffffffffffffffffffffffffffffff021916908373ffffffffffffffffffffffffffffffffffffffff1602179055505b5b600060120160008473ffffffffffffffffffffffffffffffffffffffff1673ffffffffffffffffffffffffffffffffffffffff16815260200190815260200160002060009054906101000a900460ff1615905080600060120160008573ffffffffffffffffffffffffffffffffffffffff1673ffffffffffffffffffffffffffffffffffffffff16815260200190815260200160002060006101000a81548160ff021916908315150217905550612e8b565b600660098111156128e6576128e5614a9f565b5b8460098111156128f9576128f8614a9f565b5b1415612a8a576129126000601c016000601b0185613bad565b156129d857600080601c0160008573ffffffffffffffffffffffffffffffffffffffff1673ffffffffffffffffffffffffffffffffffffffff1681526020019081526020016000208190555061296c6000601a0184613d17565b6129d7576000601a01839080600181540180825580915050600190039060005260206000200160009091909190916101000a81548173ffffffffffffffffffffffffffffffffffffffff021916908373ffffffffffffffffffffffffffffffffffffffff1602179055505b5b6000601b0160008473ffffffffffffffffffffffffffffffffffffffff1673ffffffffffffffffffffffffffffffffffffffff16815260200190815260200160002060009054906101000a900460ff16159050806000601b0160008573ffffffffffffffffffffffffffffffffffffffff1673ffffffffffffffffffffffffffffffffffffffff16815260200190815260200160002060006101000a81548160ff021916908315150217905550612e8a565b60076009811115612a9e57612a9d614a9f565b5b846009811115612ab157612ab0614a9f565b5b1415612c4257612aca6000601f016000601e0185613bad565b15612b9057600080601f0160008573ffffffffffffffffffffffffffffffffffffffff1673ffffffffffffffffffffffffffffffffffffffff16815260200190815260200160002081905550612b246000601d0184613d17565b612b8f576000601d01839080600181540180825580915050600190039060005260206000200160009091909190916101000a81548173ffffffffffffffffffffffffffffffffffffffff021916908373ffffffffffffffffffffffffffffffffffffffff1602179055505b5b6000601e0160008473ffffffffffffffffffffffffffffffffffffffff1673ffffffffffffffffffffffffffffffffffffffff16815260200190815260200160002060009054906101000a900460ff16159050806000601e0160008573ffffffffffffffffffffffffffffffffffffffff1673ffffffffffffffffffffffffffffffffffffffff16815260200190815260200160002060006101000a81548160ff021916908315150217905550612e89565b60086009811115612c5657612c55614a9f565b5b846009811115612c6957612c68614a9f565b5b1415612dfa57612c826000602201600060210185613bad565b15612d485760008060220160008573ffffffffffffffffffffffffffffffffffffffff1673ffffffffffffffffffffffffffffffffffffffff16815260200190815260200160002081905550612cdc600060200184613d17565b612d47576000602001839080600181540180825580915050600190039060005260206000200160009091909190916101000a81548173ffffffffffffffffffffffffffffffffffffffff021916908373ffffffffffffffffffffffffffffffffffffffff1602179055505b5b600060210160008473ffffffffffffffffffffffffffffffffffffffff1673ffffffffffffffffffffffffffffffffffffffff16815260200190815260200160002060009054906101000a900460ff1615905080600060210160008573ffffffffffffffffffffffffffffffffffffffff1673ffffffffffffffffffffffffffffffffffffffff16815260200190815260200160002060006101000a81548160ff021916908315150217905550612e88565b600980811115612e0d57612e0c614a9f565b5b846009811115612e2057612e1f614a9f565b5b1415612e7d576000806005018190555082600060010160006101000a81548173ffffffffffffffffffffffffffffffffffffffff021916908373ffffffffffffffffffffffffffffffffffffffff16021790555060019050612e87565b6000915050612ee2565b5b5b5b5b5b5b5b5b5b836009811115612ea357612ea2614a9f565b5b7f0dcacb7e392f3d6a216ed2660e3dcfd40b7793d33591db2ba185a6b8e44fc4778483604051612ed4929190614ace565b60405180910390a260019150505b92915050565b6000601e0160003373ffffffffffffffffffffffffffffffffffffffff1673ffffffffffffffffffffffffffffffffffffffff16815260200190815260200160002060009054906101000a900460ff16612f77576040517f08c379a0000000000000000000000000000000000000000000000000000000008152600401612f6e906144c9565b60405180910390fd5b600060090160008273ffffffffffffffffffffffffffffffffffffffff1673ffffffffffffffffffffffffffffffffffffffff16815260200190815260200160002060009054906101000a900460ff16613006576040517f08c379a0000000000000000000000000000000000000000000000000000000008152600401612ffd9061445d565b60405180910390fd5b6130333330848473ffffffffffffffffffffffffffffffffffffffff16613af8909392919063ffffffff16565b600061303f8284611afc565b9050600060010160009054906101000a900473ffffffffffffffffffffffffffffffffffffffff1673ffffffffffffffffffffffffffffffffffffffff1663ae5c6cd3823360006040518463ffffffff1660e01b81526004016130a493929190614762565b600060405180830381600087803b1580156130be57600080fd5b505af11580156130d2573d6000803e3d6000fd5b505050506130ee81600060070154613a3c90919063ffffffff16565b60006007018190555061310f81600060060154613ad890919063ffffffff16565b6000600601819055506000600601547f93bb8edd35984706eee1b92541281f7f62d33c01c5b2ec0929a113603bd21d6660405160405180910390a28173ffffffffffffffffffffffffffffffffffffffff163373ffffffffffffffffffffffffffffffffffffffff167fc6d98eecfc9c78ab62c89a82950079b54874749f1f6f24090f7acc758bc2f30985846040516131a9929190614521565b60405180910390a3505050565b6131be613aee565b600073ffffffffffffffffffffffffffffffffffffffff168573ffffffffffffffffffffffffffffffffffffffff1614156131f857600080fd5b600073ffffffffffffffffffffffffffffffffffffffff168473ffffffffffffffffffffffffffffffffffffffff16141561323257600080fd5b600073ffffffffffffffffffffffffffffffffffffffff168373ffffffffffffffffffffffffffffffffffffffff16141561326c57600080fd5b846000800160006101000a81548173ffffffffffffffffffffffffffffffffffffffff021916908373ffffffffffffffffffffffffffffffffffffffff16021790555083600060010160006101000a81548173ffffffffffffffffffffffffffffffffffffffff021916908373ffffffffffffffffffffffffffffffffffffffff16021790555082600060020160006101000a81548173ffffffffffffffffffffffffffffffffffffffff021916908373ffffffffffffffffffffffffffffffffffffffff1602179055506001600060090160008473ffffffffffffffffffffffffffffffffffffffff1673ffffffffffffffffffffffffffffffffffffffff16815260200190815260200160002060006101000a81548160ff0219169083151502179055506000600401829080600181540180825580915050600190039060005260206000200160009091909190916101000a81548173ffffffffffffffffffffffffffffffffffffffff021916908373ffffffffffffffffffffffffffffffffffffffff160217905550806000600301819055505050505050565b6000613413613aee565b600073ffffffffffffffffffffffffffffffffffffffff168273ffffffffffffffffffffffffffffffffffffffff16141561344d57600080fd5b6000600981111561346157613460614a9f565b5b83600981111561347457613473614a9f565b5b14156134dd5761349260006003015443613ad890919063ffffffff16565b6000600d0160008473ffffffffffffffffffffffffffffffffffffffff1673ffffffffffffffffffffffffffffffffffffffff168152602001908152602001600020819055506139e7565b600160098111156134f1576134f0614a9f565b5b83600981111561350457613503614a9f565b5b141561356d5761352260006003015443613ad890919063ffffffff16565b600060100160008473ffffffffffffffffffffffffffffffffffffffff1673ffffffffffffffffffffffffffffffffffffffff168152602001908152602001600020819055506139e6565b6002600981111561358157613580614a9f565b5b83600981111561359457613593614a9f565b5b14156135fd576135b260006003015443613ad890919063ffffffff16565b6000600a0160008473ffffffffffffffffffffffffffffffffffffffff1673ffffffffffffffffffffffffffffffffffffffff168152602001908152602001600020819055506139e5565b6003600981111561361157613610614a9f565b5b83600981111561362457613623614a9f565b5b14156136a0576136556136466002600060030154613b8190919063ffffffff16565b43613ad890919063ffffffff16565b600060190160008473ffffffffffffffffffffffffffffffffffffffff1673ffffffffffffffffffffffffffffffffffffffff168152602001908152602001600020819055506139e4565b600460098111156136b4576136b3614a9f565b5b8360098111156136c7576136c6614a9f565b5b1415613730576136e560006003015443613ad890919063ffffffff16565b600060160160008473ffffffffffffffffffffffffffffffffffffffff1673ffffffffffffffffffffffffffffffffffffffff168152602001908152602001600020819055506139e3565b6005600981111561374457613743614a9f565b5b83600981111561375757613756614a9f565b5b14156137c05761377560006003015443613ad890919063ffffffff16565b600060130160008473ffffffffffffffffffffffffffffffffffffffff1673ffffffffffffffffffffffffffffffffffffffff168152602001908152602001600020819055506139e2565b600660098111156137d4576137d3614a9f565b5b8360098111156137e7576137e6614a9f565b5b1415613863576138186138096002600060030154613b8190919063ffffffff16565b43613ad890919063ffffffff16565b6000601c0160008473ffffffffffffffffffffffffffffffffffffffff1673ffffffffffffffffffffffffffffffffffffffff168152602001908152602001600020819055506139e1565b6007600981111561387757613876614a9f565b5b83600981111561388a57613889614a9f565b5b14156138f3576138a860006003015443613ad890919063ffffffff16565b6000601f0160008473ffffffffffffffffffffffffffffffffffffffff1673ffffffffffffffffffffffffffffffffffffffff168152602001908152602001600020819055506139e0565b6008600981111561390757613906614a9f565b5b83600981111561391a57613919614a9f565b5b14156139835761393860006003015443613ad890919063ffffffff16565b600060220160008473ffffffffffffffffffffffffffffffffffffffff1673ffffffffffffffffffffffffffffffffffffffff168152602001908152602001600020819055506139df565b60098081111561399657613995614a9f565b5b8360098111156139a9576139a8614a9f565b5b14156139d5576139c760006003015443613ad890919063ffffffff16565b6000600501819055506139de565b60009050613a36565b5b5b5b5b5b5b5b5b5b8260098111156139fa576139f9614a9f565b5b7f0e4f2c4b5bc209d509bc3d49348c787fefadc66a79351b470599ac0f5be52eaf83604051613a2991906147c8565b60405180910390a2600190505b92915050565b60008183613a4a91906148ed565b905092915050565b613ad38363a9059cbb60e01b8484604051602401613a719291906144f8565b604051602081830303815290604052907bffffffffffffffffffffffffffffffffffffffffffffffffffffffff19166020820180517bffffffffffffffffffffffffffffffffffffffffffffffffffffffff8381831617835250505050613dc5565b505050565b60008183613ae69190614af7565b905092915050565b613af6613e8c565b565b613b7b846323b872dd60e01b858585604051602401613b1993929190614b4d565b604051602081830303815290604052907bffffffffffffffffffffffffffffffffffffffffffffffffffffffff19166020820180517bffffffffffffffffffffffffffffffffffffffffffffffffffffffff8381831617835250505050613dc5565b50505050565b60008183613b8f9190614b84565b905092915050565b60008183613ba59190614c0d565b905092915050565b60008260008373ffffffffffffffffffffffffffffffffffffffff1673ffffffffffffffffffffffffffffffffffffffff16815260200190815260200160002060009054906101000a900460ff16613d0b5760008460008473ffffffffffffffffffffffffffffffffffffffff1673ffffffffffffffffffffffffffffffffffffffff168152602001908152602001600020541415613c81576040517f08c379a0000000000000000000000000000000000000000000000000000000008152600401613c7890614c8a565b60405180910390fd5b438460008473ffffffffffffffffffffffffffffffffffffffff1673ffffffffffffffffffffffffffffffffffffffff168152602001908152602001600020541115613d02576040517f08c379a0000000000000000000000000000000000000000000000000000000008152600401613cf990614cf6565b60405180910390fd5b60019050613d10565b600090505b9392505050565b600080600090505b8380549050811015613db9578273ffffffffffffffffffffffffffffffffffffffff16848281548110613d5557613d54614799565b5b9060005260206000200160009054906101000a900473ffffffffffffffffffffffffffffffffffffffff1673ffffffffffffffffffffffffffffffffffffffff161415613da6576001915050613dbf565b8080613db190614812565b915050613d1f565b50600090505b92915050565b6000613e27826040518060400160405280602081526020017f5361666545524332303a206c6f772d6c6576656c2063616c6c206661696c65648152508573ffffffffffffffffffffffffffffffffffffffff16613f279092919063ffffffff16565b9050600081511115613e875780806020019051810190613e479190614d42565b613e86576040517f08c379a0000000000000000000000000000000000000000000000000000000008152600401613e7d90614de1565b60405180910390fd5b5b505050565b613e94613f3f565b60040160009054906101000a900473ffffffffffffffffffffffffffffffffffffffff1673ffffffffffffffffffffffffffffffffffffffff163373ffffffffffffffffffffffffffffffffffffffff1614613f25576040517f08c379a0000000000000000000000000000000000000000000000000000000008152600401613f1c90614e73565b60405180910390fd5b565b6060613f368484600085613f6c565b90509392505050565b6000807fc8fcad8db84d3cc18b4c41d551ea0ee66dd599cde068d998e57d5e09332c131c90508091505090565b606082471015613fb1576040517f08c379a0000000000000000000000000000000000000000000000000000000008152600401613fa890614f05565b60405180910390fd5b613fba85614080565b613ff9576040517f08c379a0000000000000000000000000000000000000000000000000000000008152600401613ff090614f71565b60405180910390fd5b6000808673ffffffffffffffffffffffffffffffffffffffff168587604051614022919061500b565b60006040518083038185875af1925050503d806000811461405f576040519150601f19603f3d011682016040523d82523d6000602084013e614064565b606091505b5091509150614074828286614093565b92505050949350505050565b600080823b905060008111915050919050565b606083156140a3578290506140f3565b6000835111156140b65782518084602001fd5b816040517f08c379a00000000000000000000000000000000000000000000000000000000081526004016140ea9190615077565b60405180910390fd5b9392505050565b600080fd5b6000819050919050565b614112816140ff565b811461411d57600080fd5b50565b60008135905061412f81614109565b92915050565b600073ffffffffffffffffffffffffffffffffffffffff82169050919050565b600061416082614135565b9050919050565b61417081614155565b811461417b57600080fd5b50565b60008135905061418d81614167565b92915050565b600080604083850312156141aa576141a96140fa565b5b60006141b885828601614120565b92505060206141c98582860161417e565b9150509250929050565b600080604083850312156141ea576141e96140fa565b5b60006141f88582860161417e565b925050602061420985828601614120565b9150509250929050565b61421c816140ff565b82525050565b60006020820190506142376000830184614213565b92915050565b600060208284031215614253576142526140fa565b5b60006142618482850161417e565b91505092915050565b60008115159050919050565b61427f8161426a565b82525050565b600060208201905061429a6000830184614276565b92915050565b6000806000606084860312156142b9576142b86140fa565b5b60006142c786828701614120565b93505060206142d88682870161417e565b92505060406142e986828701614120565b9150509250925092565b600060208284031215614309576143086140fa565b5b600061431784828501614120565b91505092915050565b600a811061432d57600080fd5b50565b60008135905061433f81614320565b92915050565b6000806040838503121561435c5761435b6140fa565b5b600061436a85828601614330565b925050602061437b8582860161417e565b9150509250929050565b600080600080600060a086880312156143a1576143a06140fa565b5b60006143af8882890161417e565b95505060206143c08882890161417e565b94505060406143d18882890161417e565b93505060606143e28882890161417e565b92505060806143f388828901614120565b9150509295509295909350565b600082825260208201905092915050565b7f54726561737572793a204e6f7420616363657074656400000000000000000000600082015250565b6000614447601683614400565b915061445282614411565b602082019050919050565b600060208201905081810360008301526144768161443a565b9050919050565b7f54726561737572793a204e6f7420617070726f76656400000000000000000000600082015250565b60006144b3601683614400565b91506144be8261447d565b602082019050919050565b600060208201905081810360008301526144e2816144a6565b9050919050565b6144f281614155565b82525050565b600060408201905061450d60008301856144e9565b61451a6020830184614213565b9392505050565b60006040820190506145366000830185614213565b6145436020830184614213565b9392505050565b7f54726561737572793a20496e73756666696369656e7420726573657276657300600082015250565b6000614580601f83614400565b915061458b8261454a565b602082019050919050565b600060208201905081810360008301526145af81614573565b9050919050565b6000815190506145c581614109565b92915050565b6000602082840312156145e1576145e06140fa565b5b60006145ef848285016145b6565b91505092915050565b7f54726561737572793a20446562746f72204e6f7420617070726f766564000000600082015250565b600061462e601d83614400565b9150614639826145f8565b602082019050919050565b6000602082019050818103600083015261465d81614621565b9050919050565b7f54726561737572793a205265736572766520546f6b656e204e6f74206170707260008201527f6f76656400000000000000000000000000000000000000000000000000000000602082015250565b60006146c0602483614400565b91506146cb82614664565b604082019050919050565b600060208201905081810360008301526146ef816146b3565b9050919050565b7f54726561737572793a20496e76616c696420746f6b656e000000000000000000600082015250565b600061472c601783614400565b9150614737826146f6565b602082019050919050565b6000602082019050818103600083015261475b8161471f565b9050919050565b60006060820190506147776000830186614213565b61478460208301856144e9565b6147916040830184614276565b949350505050565b7f4e487b7100000000000000000000000000000000000000000000000000000000600052603260045260246000fd5b60006020820190506147dd60008301846144e9565b92915050565b7f4e487b7100000000000000000000000000000000000000000000000000000000600052601160045260246000fd5b600061481d826140ff565b91507fffffffffffffffffffffffffffffffffffffffffffffffffffffffffffffffff8214156148505761484f6147e3565b5b600182019050919050565b7f54726561737572793a20526577617264204d616e61676572204e6f742061707060008201527f726f766564000000000000000000000000000000000000000000000000000000602082015250565b60006148b7602583614400565b91506148c28261485b565b604082019050919050565b600060208201905081810360008301526148e6816148aa565b9050919050565b60006148f8826140ff565b9150614903836140ff565b925082821015614916576149156147e3565b5b828203905092915050565b60008160011c9050919050565b6000808291508390505b600185111561497857808604811115614954576149536147e3565b5b60018516156149635780820291505b808102905061497185614921565b9450614938565b94509492505050565b6000826149915760019050614a4d565b8161499f5760009050614a4d565b81600181146149b557600281146149bf576149ee565b6001915050614a4d565b60ff8411156149d1576149d06147e3565b5b8360020a9150848211156149e8576149e76147e3565b5b50614a4d565b5060208310610133831016604e8410600b8410161715614a235782820a905083811115614a1e57614a1d6147e3565b5b614a4d565b614a30848484600161492e565b92509050818404811115614a4757614a466147e3565b5b81810290505b9392505050565b6000614a5f826140ff565b9150614a6a836140ff565b9250614a977fffffffffffffffffffffffffffffffffffffffffffffffffffffffffffffffff8484614981565b905092915050565b7f4e487b7100000000000000000000000000000000000000000000000000000000600052602160045260246000fd5b6000604082019050614ae360008301856144e9565b614af06020830184614276565b9392505050565b6000614b02826140ff565b9150614b0d836140ff565b9250827fffffffffffffffffffffffffffffffffffffffffffffffffffffffffffffffff03821115614b4257614b416147e3565b5b828201905092915050565b6000606082019050614b6260008301866144e9565b614b6f60208301856144e9565b614b7c6040830184614213565b949350505050565b6000614b8f826140ff565b9150614b9a836140ff565b9250817fffffffffffffffffffffffffffffffffffffffffffffffffffffffffffffffff0483118215151615614bd357614bd26147e3565b5b828202905092915050565b7f4e487b7100000000000000000000000000000000000000000000000000000000600052601260045260246000fd5b6000614c18826140ff565b9150614c23836140ff565b925082614c3357614c32614bde565b5b828204905092915050565b7f4d75737420717565756500000000000000000000000000000000000000000000600082015250565b6000614c74600a83614400565b9150614c7f82614c3e565b602082019050919050565b60006020820190508181036000830152614ca381614c67565b9050919050565b7f5175657565206e6f742065787069726564000000000000000000000000000000600082015250565b6000614ce0601183614400565b9150614ceb82614caa565b602082019050919050565b60006020820190508181036000830152614d0f81614cd3565b9050919050565b614d1f8161426a565b8114614d2a57600080fd5b50565b600081519050614d3c81614d16565b92915050565b600060208284031215614d5857614d576140fa565b5b6000614d6684828501614d2d565b91505092915050565b7f5361666545524332303a204552433230206f7065726174696f6e20646964206e60008201527f6f74207375636365656400000000000000000000000000000000000000000000602082015250565b6000614dcb602a83614400565b9150614dd682614d6f565b604082019050919050565b60006020820190508181036000830152614dfa81614dbe565b9050919050565b7f4c69624469616d6f6e643a20696e76616c696420636f6e7472616374206f776e60008201527f6572000000000000000000000000000000000000000000000000000000000000602082015250565b6000614e5d602283614400565b9150614e6882614e01565b604082019050919050565b60006020820190508181036000830152614e8c81614e50565b9050919050565b7f416464726573733a20696e73756666696369656e742062616c616e636520666f60008201527f722063616c6c0000000000000000000000000000000000000000000000000000602082015250565b6000614eef602683614400565b9150614efa82614e93565b604082019050919050565b60006020820190508181036000830152614f1e81614ee2565b9050919050565b7f416464726573733a2063616c6c20746f206e6f6e2d636f6e7472616374000000600082015250565b6000614f5b601d83614400565b9150614f6682614f25565b602082019050919050565b60006020820190508181036000830152614f8a81614f4e565b9050919050565b600081519050919050565b600081905092915050565b60005b83811015614fc5578082015181840152602081019050614faa565b83811115614fd4576000848401525b50505050565b6000614fe582614f91565b614fef8185614f9c565b9350614fff818560208601614fa7565b80840191505092915050565b60006150178284614fda565b915081905092915050565b600081519050919050565b6000601f19601f8301169050919050565b600061504982615022565b6150538185614400565b9350615063818560208601614fa7565b61506c8161502d565b840191505092915050565b60006020820190508181036000830152615091818461503e565b90509291505056fea2646970667358221220bdbdc3a00bc6bba1986b0593e9a3d0379c08d8d188b7c63d882fbc7ecbc5c98c64736f6c634300080a0033",
  "linkReferences": {},
  "deployedLinkReferences": {}
}