{
  "_format": "hh-sol-artifact-1",
  "contractName": "TestableVM",
  "sourceName": "contracts/weiroll/TestableVM.sol",
  "abi": [
    {
      "inputs": [
        {
          "internalType": "contract VM",
          "name": "_vm",
          "type": "address"
        }
      ],
      "stateMutability": "nonpayable",
      "type": "constructor"
    },
    {
      "inputs": [
        {
          "internalType": "bytes32[]",
          "name": "commands",
          "type": "bytes32[]"
        },
        {
          "internalType": "bytes[]",
          "name": "state",
          "type": "bytes[]"
        }
      ],
      "name": "execute",
      "outputs": [
        {
          "internalType": "bytes[]",
          "name": "",
          "type": "bytes[]"
        }
      ],
      "stateMutability": "nonpayable",
      "type": "function"
    },
    {
      "inputs": [],
      "name": "vm",
      "outputs": [
        {
          "internalType": "contract VM",
          "name": "",
          "type": "address"
        }
      ],
      "stateMutability": "view",
      "type": "function"
    }
  ],
  "bytecode": "0x608060405234801561001057600080fd5b5060405161072e38038061072e83398101604081905261002f91610054565b600080546001600160a01b0319166001600160a01b0392909216919091179055610084565b60006020828403121561006657600080fd5b81516001600160a01b038116811461007d57600080fd5b9392505050565b61069b806100936000396000f3fe608060405234801561001057600080fd5b50600436106100365760003560e01c80633a7684631461003b578063de792d5f14610085575b600080fd5b60005461005b9073ffffffffffffffffffffffffffffffffffffffff1681565b60405173ffffffffffffffffffffffffffffffffffffffff90911681526020015b60405180910390f35b6100986100933660046102e4565b6100a5565b60405161007c91906104d1565b6000805460405160609291829173ffffffffffffffffffffffffffffffffffffffff909116907fde792d5f00000000000000000000000000000000000000000000000000000000906100ff908990899089906024016104eb565b60408051601f198184030181529181526020820180517bffffffffffffffffffffffffffffffffffffffffffffffffffffffff167fffffffff0000000000000000000000000000000000000000000000000000000090941693909317909252905161016a919061055c565b600060405180830381855af49150503d80600081146101a5576040519150601f19603f3d011682016040523d82523d6000602084013e6101aa565b606091505b50915091508161021a576040517f08c379a000000000000000000000000000000000000000000000000000000000815260206004820152601c60248201527f5465737461626c65564d3a20657865637574696f6e206661696c656400000000604482015260640160405180910390fd5b8080602001905181019061022e9190610578565b9695505050505050565b7f4e487b7100000000000000000000000000000000000000000000000000000000600052604160045260246000fd5b604051601f8201601f1916810167ffffffffffffffff8111828210171561029057610290610238565b604052919050565b600067ffffffffffffffff8211156102b2576102b2610238565b5060051b60200190565b600067ffffffffffffffff8211156102d6576102d6610238565b50601f01601f191660200190565b600080600060408085870312156102fa57600080fd5b843567ffffffffffffffff8082111561031257600080fd5b818701915087601f83011261032657600080fd5b81358181111561033557600080fd5b602089818360051b860101111561034b57600080fd5b80840197508196508089013593508284111561036657600080fd5b838901935089601f85011261037a57600080fd5b8335915061038f61038a83610298565b610267565b82815260059290921b8401810191818101908b8411156103ae57600080fd5b8286015b84811015610422578035868111156103ca5760008081fd5b8701603f81018e136103dc5760008081fd5b848101356103ec61038a826102bc565b8181528f8b8385010111156104015760008081fd5b818b84018883013760009181018701919091528452509183019183016103b2565b50809750505050505050509250925092565b60005b8381101561044f578181015183820152602001610437565b8381111561045e576000848401525b50505050565b600081518084526020808501808196508360051b8101915082860160005b858110156104c4578284038952815180518086526104a581888801898501610434565b99860199601f01601f1916949094018501935090840190600101610482565b5091979650505050505050565b6020815260006104e46020830184610464565b9392505050565b6040815282604082015260007f07ffffffffffffffffffffffffffffffffffffffffffffffffffffffffffffff84111561052457600080fd5b8360051b808660608501378083019050606081016000815260608483030160208501526105518186610464565b979650505050505050565b6000825161056e818460208701610434565b9190910192915050565b6000602080838503121561058b57600080fd5b825167ffffffffffffffff808211156105a357600080fd5b818501915085601f8301126105b757600080fd5b81516105c561038a82610298565b81815260059190911b830184019084810190888311156105e457600080fd5b8585015b83811015610658578051858111156106005760008081fd5b8601603f81018b136106125760008081fd5b87810151604061062461038a836102bc565b8281528d828486010111156106395760008081fd5b610648838c8301848701610434565b86525050509186019186016105e8565b509897505050505050505056fea2646970667358221220b9e13bd449041068af472dd1fe02ca387ef8faf29f297c31932e5a7119c3356964736f6c634300080a0033",
  "linkReferences": {},
  "deployedLinkReferences": {}
}