{
  "_format": "hh-sol-artifact-1",
  "contractName": "nNeccFacet",
  "sourceName": "contracts/facets/nNecc/nNeccFacet.sol",
  "abi": [
    {
      "anonymous": false,
      "inputs": [
        {
          "indexed": true,
          "internalType": "address",
          "name": "owner",
          "type": "address"
        },
        {
          "indexed": true,
          "internalType": "address",
          "name": "spender",
          "type": "address"
        },
        {
          "indexed": false,
          "internalType": "uint256",
          "name": "value",
          "type": "uint256"
        }
      ],
      "name": "Approval",
      "type": "event"
    },
    {
      "anonymous": false,
      "inputs": [
        {
          "indexed": true,
          "internalType": "address",
          "name": "from",
          "type": "address"
        },
        {
          "indexed": true,
          "internalType": "address",
          "name": "to",
          "type": "address"
        },
        {
          "indexed": false,
          "internalType": "uint256",
          "name": "value",
          "type": "uint256"
        }
      ],
      "name": "Transfer",
      "type": "event"
    },
    {
      "inputs": [
        {
          "internalType": "address",
          "name": "holder",
          "type": "address"
        },
        {
          "internalType": "address",
          "name": "spender",
          "type": "address"
        }
      ],
      "name": "allowance",
      "outputs": [
        {
          "internalType": "uint256",
          "name": "",
          "type": "uint256"
        }
      ],
      "stateMutability": "view",
      "type": "function"
    },
    {
      "inputs": [
        {
          "internalType": "address",
          "name": "spender",
          "type": "address"
        },
        {
          "internalType": "uint256",
          "name": "amount",
          "type": "uint256"
        }
      ],
      "name": "approve",
      "outputs": [
        {
          "internalType": "bool",
          "name": "",
          "type": "bool"
        }
      ],
      "stateMutability": "nonpayable",
      "type": "function"
    },
    {
      "inputs": [
        {
          "internalType": "uint256",
          "name": "_amount",
          "type": "uint256"
        }
      ],
      "name": "balanceFrom",
      "outputs": [
        {
          "internalType": "uint256",
          "name": "",
          "type": "uint256"
        }
      ],
      "stateMutability": "view",
      "type": "function"
    },
    {
      "inputs": [
        {
          "internalType": "address",
          "name": "account",
          "type": "address"
        }
      ],
      "name": "balanceOf",
      "outputs": [
        {
          "internalType": "uint256",
          "name": "",
          "type": "uint256"
        }
      ],
      "stateMutability": "view",
      "type": "function"
    },
    {
      "inputs": [
        {
          "internalType": "uint256",
          "name": "_amount",
          "type": "uint256"
        }
      ],
      "name": "balanceTo",
      "outputs": [
        {
          "internalType": "uint256",
          "name": "",
          "type": "uint256"
        }
      ],
      "stateMutability": "view",
      "type": "function"
    },
    {
      "inputs": [
        {
          "internalType": "address",
          "name": "_from",
          "type": "address"
        },
        {
          "internalType": "uint256",
          "name": "_amount",
          "type": "uint256"
        }
      ],
      "name": "burn",
      "outputs": [],
      "stateMutability": "nonpayable",
      "type": "function"
    },
    {
      "inputs": [],
      "name": "decimals",
      "outputs": [
        {
          "internalType": "uint8",
          "name": "",
          "type": "uint8"
        }
      ],
      "stateMutability": "view",
      "type": "function"
    },
    {
      "inputs": [
        {
          "internalType": "address",
          "name": "spender",
          "type": "address"
        },
        {
          "internalType": "uint256",
          "name": "amount",
          "type": "uint256"
        }
      ],
      "name": "decreaseAllowance",
      "outputs": [
        {
          "internalType": "bool",
          "name": "",
          "type": "bool"
        }
      ],
      "stateMutability": "nonpayable",
      "type": "function"
    },
    {
      "inputs": [],
      "name": "gov",
      "outputs": [
        {
          "internalType": "address",
          "name": "",
          "type": "address"
        }
      ],
      "stateMutability": "view",
      "type": "function"
    },
    {
      "inputs": [
        {
          "internalType": "address",
          "name": "spender",
          "type": "address"
        },
        {
          "internalType": "uint256",
          "name": "amount",
          "type": "uint256"
        }
      ],
      "name": "increaseAllowance",
      "outputs": [
        {
          "internalType": "bool",
          "name": "",
          "type": "bool"
        }
      ],
      "stateMutability": "nonpayable",
      "type": "function"
    },
    {
      "inputs": [],
      "name": "index",
      "outputs": [
        {
          "internalType": "uint256",
          "name": "",
          "type": "uint256"
        }
      ],
      "stateMutability": "view",
      "type": "function"
    },
    {
      "inputs": [
        {
          "internalType": "address",
          "name": "_stakingContract",
          "type": "address"
        },
        {
          "internalType": "address",
          "name": "_sNecc",
          "type": "address"
        }
      ],
      "name": "initialize",
      "outputs": [],
      "stateMutability": "nonpayable",
      "type": "function"
    },
    {
      "inputs": [
        {
          "internalType": "address",
          "name": "_to",
          "type": "address"
        },
        {
          "internalType": "uint256",
          "name": "_amount",
          "type": "uint256"
        }
      ],
      "name": "mint",
      "outputs": [],
      "stateMutability": "nonpayable",
      "type": "function"
    },
    {
      "inputs": [],
      "name": "name",
      "outputs": [
        {
          "internalType": "string",
          "name": "",
          "type": "string"
        }
      ],
      "stateMutability": "view",
      "type": "function"
    },
    {
      "inputs": [
        {
          "internalType": "address",
          "name": "owner",
          "type": "address"
        }
      ],
      "name": "nonces",
      "outputs": [
        {
          "internalType": "uint256",
          "name": "",
          "type": "uint256"
        }
      ],
      "stateMutability": "view",
      "type": "function"
    },
    {
      "inputs": [
        {
          "internalType": "address",
          "name": "owner",
          "type": "address"
        },
        {
          "internalType": "address",
          "name": "spender",
          "type": "address"
        },
        {
          "internalType": "uint256",
          "name": "amount",
          "type": "uint256"
        },
        {
          "internalType": "uint256",
          "name": "deadline",
          "type": "uint256"
        },
        {
          "internalType": "uint8",
          "name": "v",
          "type": "uint8"
        },
        {
          "internalType": "bytes32",
          "name": "r",
          "type": "bytes32"
        },
        {
          "internalType": "bytes32",
          "name": "s",
          "type": "bytes32"
        }
      ],
      "name": "permit",
      "outputs": [],
      "stateMutability": "nonpayable",
      "type": "function"
    },
    {
      "inputs": [
        {
          "internalType": "address",
          "name": "_newOwner",
          "type": "address"
        }
      ],
      "name": "setGov",
      "outputs": [],
      "stateMutability": "nonpayable",
      "type": "function"
    },
    {
      "inputs": [],
      "name": "stakingContract",
      "outputs": [
        {
          "internalType": "address",
          "name": "",
          "type": "address"
        }
      ],
      "stateMutability": "view",
      "type": "function"
    },
    {
      "inputs": [],
      "name": "symbol",
      "outputs": [
        {
          "internalType": "string",
          "name": "",
          "type": "string"
        }
      ],
      "stateMutability": "view",
      "type": "function"
    },
    {
      "inputs": [],
      "name": "totalSupply",
      "outputs": [
        {
          "internalType": "uint256",
          "name": "",
          "type": "uint256"
        }
      ],
      "stateMutability": "view",
      "type": "function"
    },
    {
      "inputs": [
        {
          "internalType": "address",
          "name": "recipient",
          "type": "address"
        },
        {
          "internalType": "uint256",
          "name": "amount",
          "type": "uint256"
        }
      ],
      "name": "transfer",
      "outputs": [
        {
          "internalType": "bool",
          "name": "",
          "type": "bool"
        }
      ],
      "stateMutability": "nonpayable",
      "type": "function"
    },
    {
      "inputs": [
        {
          "internalType": "address",
          "name": "holder",
          "type": "address"
        },
        {
          "internalType": "address",
          "name": "recipient",
          "type": "address"
        },
        {
          "internalType": "uint256",
          "name": "amount",
          "type": "uint256"
        }
      ],
      "name": "transferFrom",
      "outputs": [
        {
          "internalType": "bool",
          "name": "",
          "type": "bool"
        }
      ],
      "stateMutability": "nonpayable",
      "type": "function"
    }
  ],
  "bytecode": "0x608060405234801561001057600080fd5b50611d03806100206000396000f3fe608060405234801561001057600080fd5b50600436106101825760003560e01c806370a08231116100d8578063a82487681161008c578063d505accf11610066578063d505accf14610328578063dd62ed3e1461033b578063ee99205c1461039357600080fd5b8063a8248768146102ef578063a9059cbb14610302578063cfad57a21461031557600080fd5b806395d89b41116100bd57806395d89b41146102c15780639dc29fac146102c9578063a457c2d7146102dc57600080fd5b806370a082311461029b5780637ecebe00146102ae57600080fd5b80632986c0e51161013a57806340c10f191161011457806340c10f1914610260578063485cc9551461027557806366a5236c1461028857600080fd5b80632986c0e514610211578063313ce56714610219578063395093511461024d57600080fd5b806312d43a511161016b57806312d43a51146101c857806318160ddd146101e857806323b872dd146101fe57600080fd5b806306fdde0314610187578063095ea7b3146101a5575b600080fd5b61018f6103c3565b60405161019c9190611934565b60405180910390f35b6101b86101b33660046119a5565b610474565b604051901515815260200161019c565b6101d061048b565b6040516001600160a01b03909116815260200161019c565b6101f06104c3565b60405190815260200161019c565b6101b861020c3660046119cf565b6104ed565b6101f06105ce565b7f2967a798b92539a1b9eefe4d8eb931f96b68d27665e276f1bee2d5db7f7430495460405160ff909116815260200161019c565b6101b861025b3660046119a5565b61067c565b61027361026e3660046119a5565b61076c565b005b610273610283366004611a0b565b6107a5565b6101f0610296366004611a3e565b6108e6565b6101f06102a9366004611a57565b610939565b6101f06102bc366004611a57565b610944565b61018f610987565b6102736102d73660046119a5565b6109b8565b6101b86102ea3660046119a5565b6109ec565b6101f06102fd366004611a3e565b610ada565b6101b86103103660046119a5565b610b20565b610273610323366004611a57565b610b2d565b610273610336366004611a72565b610b39565b6101f0610349366004611a0b565b6001600160a01b0391821660009081527fc991b2e918acaba8e5721668ed0b1982684e5a8692a621bcd2d7ef326bb015b56020908152604080832093909416825291909152205490565b7f9b74ae25205838e56af3abf8dcce2b2c3e3ec439255f742da05cd78893f55be1546001600160a01b03166101d0565b60607f2967a798b92539a1b9eefe4d8eb931f96b68d27665e276f1bee2d5db7f74304780546103f190611ae5565b80601f016020809104026020016040519081016040528092919081815260200182805461041d90611ae5565b801561046a5780601f1061043f5761010080835404028352916020019161046a565b820191906000526020600020905b81548152906001019060200180831161044d57829003601f168201915b5050505050905090565b6000610481338484610d25565b5060015b92915050565b60006104be7fc8fcad8db84d3cc18b4c41d551ea0ee66dd599cde068d998e57d5e09332c1320546001600160a01b031690565b905090565b60006104be7fc991b2e918acaba8e5721668ed0b1982684e5a8692a621bcd2d7ef326bb015b65490565b6001600160a01b03831660009081527fc991b2e918acaba8e5721668ed0b1982684e5a8692a621bcd2d7ef326bb015b560209081526040808320338452909152812054828110156105ab5760405162461bcd60e51b815260206004820152602860248201527f45524332303a207472616e7366657220616d6f756e742065786365656473206160448201527f6c6c6f77616e636500000000000000000000000000000000000000000000000060648201526084015b60405180910390fd5b6105b88533858403610d25565b6105c3858585610e9d565b506001949350505050565b7f9b74ae25205838e56af3abf8dcce2b2c3e3ec439255f742da05cd78893f55be08054604080517f2986c0e50000000000000000000000000000000000000000000000000000000081529051600093926001600160a01b031691632986c0e59160048083019260209291908290030181865afa158015610652573d6000803e3d6000fd5b505050506040513d601f19601f820116820180604052508101906106769190611b20565b91505090565b3360009081527fc991b2e918acaba8e5721668ed0b1982684e5a8692a621bcd2d7ef326bb015b5602090815260408083206001600160a01b0386168452918290528220548381018111156107385760405162461bcd60e51b815260206004820152602260248201527f4552433230457874656e6465643a2065786365737369766520616c6c6f77616e60448201527f636500000000000000000000000000000000000000000000000000000000000060648201526084016105a2565b6105c333868684018560008a6001600160a01b03166001600160a01b03168152602001908152602001600020819055610d25565b7f9b74ae25205838e56af3abf8dcce2b2c3e3ec439255f742da05cd78893f55be0610796816110d8565b6107a08383611134565b505050565b6107ad61124f565b60408051808201909152601381527f57726170706564205374616b6564204e6563630000000000000000000000000060208201527f2967a798b92539a1b9eefe4d8eb931f96b68d27665e276f1bee2d5db7f743047907f9b74ae25205838e56af3abf8dcce2b2c3e3ec439255f742da05cd78893f55be090610830908390611259565b60408051808201909152600581527f6e4e454343000000000000000000000000000000000000000000000000000000602082015261086f90839061126b565b6002820180547fffffffffffffffffffffffffffffffffffffffffffffffffffffffffffffff001660121790556001810180547fffffffffffffffffffffffff00000000000000000000000000000000000000009081166001600160a01b0396871617909155815416929093169190911790915550565b60006104856108f36105ce565b6109336109217f2967a798b92539a1b9eefe4d8eb931f96b68d27665e276f1bee2d5db7f7430495460ff1690565b61092c90600a611c33565b8590611280565b90611293565b60006104858261129f565b60007fbb9c3660b51e1fafa886fcf600a68efa81371bd50359eccba98f0c4fff2cfeb95b6001600160a01b03909216600090815260209290925250604090205490565b60607f2967a798b92539a1b9eefe4d8eb931f96b68d27665e276f1bee2d5db7f74304760010180546103f190611ae5565b7f9b74ae25205838e56af3abf8dcce2b2c3e3ec439255f742da05cd78893f55be06109e2816110d8565b6107a083836112c7565b3360009081527fc991b2e918acaba8e5721668ed0b1982684e5a8692a621bcd2d7ef326bb015b5602090815260408083206001600160a01b03861684529182905282205480841115610aa65760405162461bcd60e51b815260206004820152602560248201527f4552433230457874656e6465643a20696e73756666696369656e7420616c6c6f60448201527f77616e636500000000000000000000000000000000000000000000000000000060648201526084016105a2565b6105c333868684038560008a6001600160a01b03166001600160a01b03168152602001908152602001600020819055610d25565b6000610485610b0a7f2967a798b92539a1b9eefe4d8eb931f96b68d27665e276f1bee2d5db7f7430495460ff1690565b610b1590600a611c33565b61093361092c6105ce565b6000610481338484610e9d565b610b3681611471565b50565b83421115610b895760405162461bcd60e51b815260206004820152601d60248201527f45524332305065726d69743a206578706972656420646561646c696e6500000060448201526064016105a2565b6001600160a01b03871660009081527fbb9c3660b51e1fafa886fcf600a68efa81371bd50359eccba98f0c4fff2cfeb9602090815260408083205481517f6e71edae12b1b97f4d1f60370fef10105fa2faae0126114a169c64845d6126c981529283018b9052908201899052606082018890526080820181905260a0820187905260c090912091610c186114d2565b6040517f190100000000000000000000000000000000000000000000000000000000000081526002810182905260228101859052604290209091506000610c6182898989611514565b90508b6001600160a01b0316816001600160a01b031614610cc45760405162461bcd60e51b815260206004820152601e60248201527f45524332305065726d69743a20696e76616c6964207369676e6174757265000060448201526064016105a2565b6001600160a01b038c1660009081527fbb9c3660b51e1fafa886fcf600a68efa81371bd50359eccba98f0c4fff2cfeb960205260408120805491610d0783611c42565b9190505550610d178c8c8c610d25565b505050505050505050505050565b6001600160a01b038316610da05760405162461bcd60e51b8152602060048201526024808201527f45524332303a20617070726f76652066726f6d20746865207a65726f2061646460448201527f726573730000000000000000000000000000000000000000000000000000000060648201526084016105a2565b6001600160a01b038216610e1c5760405162461bcd60e51b815260206004820152602260248201527f45524332303a20617070726f766520746f20746865207a65726f20616464726560448201527f737300000000000000000000000000000000000000000000000000000000000060648201526084016105a2565b6001600160a01b0383811660008181527fc991b2e918acaba8e5721668ed0b1982684e5a8692a621bcd2d7ef326bb015b5602090815260408083209487168084529482529182902085905590518481527f8c5be1e5ebec7d5bd14f71427d1e84f3dd0314c0f7b2291e5b200ac8c7c3b92591015b60405180910390a3505050565b6001600160a01b038316610f195760405162461bcd60e51b815260206004820152602560248201527f45524332303a207472616e736665722066726f6d20746865207a65726f20616460448201527f647265737300000000000000000000000000000000000000000000000000000060648201526084016105a2565b6001600160a01b038216610f955760405162461bcd60e51b815260206004820152602360248201527f45524332303a207472616e7366657220746f20746865207a65726f206164647260448201527f657373000000000000000000000000000000000000000000000000000000000060648201526084016105a2565b6001600160a01b03831660009081527fc991b2e918acaba8e5721668ed0b1982684e5a8692a621bcd2d7ef326bb015b46020819052604090912054828110156110465760405162461bcd60e51b815260206004820152602660248201527f45524332303a207472616e7366657220616d6f756e742065786365656473206260448201527f616c616e6365000000000000000000000000000000000000000000000000000060648201526084016105a2565b6001600160a01b0380861660009081526020849052604080822086850390559186168152908120805485929061107d908490611c5d565b92505081905550836001600160a01b0316856001600160a01b03167fddf252ad1be2c89b69c2b068fc378daa952ba7f163c4a11628f55a4df523b3ef856040516110c991815260200190565b60405180910390a35050505050565b60018101546001600160a01b03163314610b365760405162461bcd60e51b815260206004820152601a60248201527f4e444f4c3a206f6e6c79207374616b696e67436f6e747261637400000000000060448201526064016105a2565b6001600160a01b03821661118a5760405162461bcd60e51b815260206004820152601f60248201527f45524332303a206d696e7420746f20746865207a65726f20616464726573730060448201526064016105a2565b7fc991b2e918acaba8e5721668ed0b1982684e5a8692a621bcd2d7ef326bb015b680547fc991b2e918acaba8e5721668ed0b1982684e5a8692a621bcd2d7ef326bb015b49183916000906111df908490611c5d565b90915550506001600160a01b0383166000908152602082905260408120805484929061120c908490611c5d565b90915550506040518281526001600160a01b038416906000907fddf252ad1be2c89b69c2b068fc378daa952ba7f163c4a11628f55a4df523b3ef90602001610e90565b6112576116f3565b565b80516107a0908390602084019061189b565b80516107a0906001840190602084019061189b565b600061128c8284611c75565b9392505050565b600061128c8284611c94565b60007fc991b2e918acaba8e5721668ed0b1982684e5a8692a621bcd2d7ef326bb015b4610968565b6001600160a01b0382166113435760405162461bcd60e51b815260206004820152602160248201527f45524332303a206275726e2066726f6d20746865207a65726f2061646472657360448201527f730000000000000000000000000000000000000000000000000000000000000060648201526084016105a2565b6001600160a01b03821660009081527fc991b2e918acaba8e5721668ed0b1982684e5a8692a621bcd2d7ef326bb015b46020819052604090912054828110156113f45760405162461bcd60e51b815260206004820152602260248201527f45524332303a206275726e20616d6f756e7420657863656564732062616c616e60448201527f636500000000000000000000000000000000000000000000000000000000000060648201526084016105a2565b6001600160a01b03841660009081526020839052604081208483039055600283018054859290611425908490611cb6565b90915550506040518381526000906001600160a01b038616907fddf252ad1be2c89b69c2b068fc378daa952ba7f163c4a11628f55a4df523b3ef9060200160405180910390a350505050565b6114796116f3565b7fc8fcad8db84d3cc18b4c41d551ea0ee66dd599cde068d998e57d5e09332c132080547fffffffffffffffffffffffff0000000000000000000000000000000000000000166001600160a01b0392909216919091179055565b4660009081527fbb9c3660b51e1fafa886fcf600a68efa81371bd50359eccba98f0c4fff2cfeba6020526040812054801561150c57919050565b610676611795565b60007f7fffffffffffffffffffffffffffffff5d576e7357a4501ddfe92f46681b20a08211156115ac5760405162461bcd60e51b815260206004820152602260248201527f45434453413a20696e76616c6964207369676e6174757265202773272076616c60448201527f756500000000000000000000000000000000000000000000000000000000000060648201526084016105a2565b8360ff16601b14806115c157508360ff16601c145b6116335760405162461bcd60e51b815260206004820152602260248201527f45434453413a20696e76616c6964207369676e6174757265202776272076616c60448201527f756500000000000000000000000000000000000000000000000000000000000060648201526084016105a2565b6040805160008082526020820180845288905260ff871692820192909252606081018590526080810184905260019060a0016020604051602081039080840390855afa158015611687573d6000803e3d6000fd5b5050604051601f1901519150506001600160a01b0381166116ea5760405162461bcd60e51b815260206004820152601860248201527f45434453413a20696e76616c6964207369676e6174757265000000000000000060448201526064016105a2565b95945050505050565b7fc8fcad8db84d3cc18b4c41d551ea0ee66dd599cde068d998e57d5e09332c131c600401546001600160a01b031633146112575760405162461bcd60e51b815260206004820152602260248201527f4c69624469616d6f6e643a20696e76616c696420636f6e7472616374206f776e60448201527f657200000000000000000000000000000000000000000000000000000000000060648201526084016105a2565b600046817f8b73c3c69bb8fe3d512ecc4cf759cc79239f7b179b0ffacaa9a75d522b39400f6117c26103c3565b8051602091820120604080518082018252600181527f310000000000000000000000000000000000000000000000000000000000000090840152805192830193909352918101919091527fc89efdaa54c0f20c7adf612882df0950f5a951637e0307cdcb4c672f298b8bc66060820152608081018390523060a082015260c001604051602081830303815290604052805190602001209050806118827fbb9c3660b51e1fafa886fcf600a68efa81371bd50359eccba98f0c4fff2cfeb990565b6000938452600101602052604090922091909155919050565b8280546118a790611ae5565b90600052602060002090601f0160209004810192826118c9576000855561190f565b82601f106118e257805160ff191683800117855561190f565b8280016001018555821561190f579182015b8281111561190f5782518255916020019190600101906118f4565b5061191b92915061191f565b5090565b5b8082111561191b5760008155600101611920565b600060208083528351808285015260005b8181101561196157858101830151858201604001528201611945565b81811115611973576000604083870101525b50601f01601f1916929092016040019392505050565b80356001600160a01b03811681146119a057600080fd5b919050565b600080604083850312156119b857600080fd5b6119c183611989565b946020939093013593505050565b6000806000606084860312156119e457600080fd5b6119ed84611989565b92506119fb60208501611989565b9150604084013590509250925092565b60008060408385031215611a1e57600080fd5b611a2783611989565b9150611a3560208401611989565b90509250929050565b600060208284031215611a5057600080fd5b5035919050565b600060208284031215611a6957600080fd5b61128c82611989565b600080600080600080600060e0888a031215611a8d57600080fd5b611a9688611989565b9650611aa460208901611989565b95506040880135945060608801359350608088013560ff81168114611ac857600080fd5b9699959850939692959460a0840135945060c09093013592915050565b600181811c90821680611af957607f821691505b60208210811415611b1a57634e487b7160e01b600052602260045260246000fd5b50919050565b600060208284031215611b3257600080fd5b5051919050565b634e487b7160e01b600052601160045260246000fd5b600181815b80851115611b8a578160001904821115611b7057611b70611b39565b80851615611b7d57918102915b93841c9390800290611b54565b509250929050565b600082611ba157506001610485565b81611bae57506000610485565b8160018114611bc45760028114611bce57611bea565b6001915050610485565b60ff841115611bdf57611bdf611b39565b50506001821b610485565b5060208310610133831016604e8410600b8410161715611c0d575081810a610485565b611c178383611b4f565b8060001904821115611c2b57611c2b611b39565b029392505050565b600061128c60ff841683611b92565b6000600019821415611c5657611c56611b39565b5060010190565b60008219821115611c7057611c70611b39565b500190565b6000816000190483118215151615611c8f57611c8f611b39565b500290565b600082611cb157634e487b7160e01b600052601260045260246000fd5b500490565b600082821015611cc857611cc8611b39565b50039056fea26469706673582212207ae0d894b300dde40c1328f96c326b77e234e08ca097a88ccf43e6c8ae9767c464736f6c634300080a0033",
  "linkReferences": {},
  "deployedLinkReferences": {}
}