{
  "_format": "hh-sol-artifact-1",
  "contractName": "sNeccFacet",
  "sourceName": "contracts/facets/sNecc/sNeccFacet.sol",
  "abi": [
    {
      "anonymous": false,
      "inputs": [
        {
          "indexed": true,
          "internalType": "address",
          "name": "owner",
          "type": "address"
        },
        {
          "indexed": true,
          "internalType": "address",
          "name": "spender",
          "type": "address"
        },
        {
          "indexed": false,
          "internalType": "uint256",
          "name": "value",
          "type": "uint256"
        }
      ],
      "name": "Approval",
      "type": "event"
    },
    {
      "anonymous": false,
      "inputs": [
        {
          "indexed": true,
          "internalType": "uint256",
          "name": "epoch",
          "type": "uint256"
        },
        {
          "indexed": false,
          "internalType": "uint256",
          "name": "rebase",
          "type": "uint256"
        },
        {
          "indexed": false,
          "internalType": "uint256",
          "name": "index",
          "type": "uint256"
        }
      ],
      "name": "LogRebase",
      "type": "event"
    },
    {
      "anonymous": false,
      "inputs": [
        {
          "indexed": false,
          "internalType": "address",
          "name": "stakingContract",
          "type": "address"
        }
      ],
      "name": "LogStakingContractUpdated",
      "type": "event"
    },
    {
      "anonymous": false,
      "inputs": [
        {
          "indexed": true,
          "internalType": "uint256",
          "name": "epoch",
          "type": "uint256"
        },
        {
          "indexed": false,
          "internalType": "uint256",
          "name": "timestamp",
          "type": "uint256"
        },
        {
          "indexed": false,
          "internalType": "uint256",
          "name": "totalSupply",
          "type": "uint256"
        }
      ],
      "name": "LogSupply",
      "type": "event"
    },
    {
      "anonymous": false,
      "inputs": [
        {
          "indexed": true,
          "internalType": "address",
          "name": "from",
          "type": "address"
        },
        {
          "indexed": true,
          "internalType": "address",
          "name": "to",
          "type": "address"
        },
        {
          "indexed": false,
          "internalType": "uint256",
          "name": "value",
          "type": "uint256"
        }
      ],
      "name": "Transfer",
      "type": "event"
    },
    {
      "inputs": [
        {
          "internalType": "address",
          "name": "holder",
          "type": "address"
        },
        {
          "internalType": "address",
          "name": "spender",
          "type": "address"
        }
      ],
      "name": "allowance",
      "outputs": [
        {
          "internalType": "uint256",
          "name": "",
          "type": "uint256"
        }
      ],
      "stateMutability": "view",
      "type": "function"
    },
    {
      "inputs": [
        {
          "internalType": "address",
          "name": "spender",
          "type": "address"
        },
        {
          "internalType": "uint256",
          "name": "amount",
          "type": "uint256"
        }
      ],
      "name": "approve",
      "outputs": [
        {
          "internalType": "bool",
          "name": "",
          "type": "bool"
        }
      ],
      "stateMutability": "nonpayable",
      "type": "function"
    },
    {
      "inputs": [
        {
          "internalType": "uint256",
          "name": "gons",
          "type": "uint256"
        }
      ],
      "name": "balanceForGons",
      "outputs": [
        {
          "internalType": "uint256",
          "name": "",
          "type": "uint256"
        }
      ],
      "stateMutability": "view",
      "type": "function"
    },
    {
      "inputs": [
        {
          "internalType": "address",
          "name": "who",
          "type": "address"
        }
      ],
      "name": "balanceOf",
      "outputs": [
        {
          "internalType": "uint256",
          "name": "",
          "type": "uint256"
        }
      ],
      "stateMutability": "view",
      "type": "function"
    },
    {
      "inputs": [
        {
          "internalType": "uint256",
          "name": "_amount",
          "type": "uint256"
        },
        {
          "internalType": "address",
          "name": "_debtor",
          "type": "address"
        },
        {
          "internalType": "bool",
          "name": "_add",
          "type": "bool"
        }
      ],
      "name": "changeDebt",
      "outputs": [],
      "stateMutability": "nonpayable",
      "type": "function"
    },
    {
      "inputs": [],
      "name": "circulatingSupply",
      "outputs": [
        {
          "internalType": "uint256",
          "name": "",
          "type": "uint256"
        }
      ],
      "stateMutability": "view",
      "type": "function"
    },
    {
      "inputs": [
        {
          "internalType": "address",
          "name": "_debtor",
          "type": "address"
        }
      ],
      "name": "debtBalances",
      "outputs": [
        {
          "internalType": "uint256",
          "name": "",
          "type": "uint256"
        }
      ],
      "stateMutability": "view",
      "type": "function"
    },
    {
      "inputs": [],
      "name": "decimals",
      "outputs": [
        {
          "internalType": "uint8",
          "name": "",
          "type": "uint8"
        }
      ],
      "stateMutability": "view",
      "type": "function"
    },
    {
      "inputs": [
        {
          "internalType": "address",
          "name": "spender",
          "type": "address"
        },
        {
          "internalType": "uint256",
          "name": "subtractedValue",
          "type": "uint256"
        }
      ],
      "name": "decreaseAllowance",
      "outputs": [
        {
          "internalType": "bool",
          "name": "",
          "type": "bool"
        }
      ],
      "stateMutability": "nonpayable",
      "type": "function"
    },
    {
      "inputs": [
        {
          "internalType": "uint256",
          "name": "amount",
          "type": "uint256"
        }
      ],
      "name": "fromN",
      "outputs": [
        {
          "internalType": "uint256",
          "name": "",
          "type": "uint256"
        }
      ],
      "stateMutability": "view",
      "type": "function"
    },
    {
      "inputs": [
        {
          "internalType": "uint256",
          "name": "amount",
          "type": "uint256"
        }
      ],
      "name": "gonsForBalance",
      "outputs": [
        {
          "internalType": "uint256",
          "name": "",
          "type": "uint256"
        }
      ],
      "stateMutability": "view",
      "type": "function"
    },
    {
      "inputs": [],
      "name": "gov",
      "outputs": [
        {
          "internalType": "address",
          "name": "",
          "type": "address"
        }
      ],
      "stateMutability": "view",
      "type": "function"
    },
    {
      "inputs": [
        {
          "internalType": "address",
          "name": "spender",
          "type": "address"
        },
        {
          "internalType": "uint256",
          "name": "addedValue",
          "type": "uint256"
        }
      ],
      "name": "increaseAllowance",
      "outputs": [
        {
          "internalType": "bool",
          "name": "",
          "type": "bool"
        }
      ],
      "stateMutability": "nonpayable",
      "type": "function"
    },
    {
      "inputs": [],
      "name": "index",
      "outputs": [
        {
          "internalType": "uint256",
          "name": "",
          "type": "uint256"
        }
      ],
      "stateMutability": "view",
      "type": "function"
    },
    {
      "inputs": [
        {
          "internalType": "address",
          "name": "_stakingContract",
          "type": "address"
        },
        {
          "internalType": "address",
          "name": "_nNecc",
          "type": "address"
        },
        {
          "internalType": "address",
          "name": "_treasury",
          "type": "address"
        }
      ],
      "name": "initialize",
      "outputs": [],
      "stateMutability": "nonpayable",
      "type": "function"
    },
    {
      "inputs": [],
      "name": "name",
      "outputs": [
        {
          "internalType": "string",
          "name": "",
          "type": "string"
        }
      ],
      "stateMutability": "view",
      "type": "function"
    },
    {
      "inputs": [
        {
          "internalType": "address",
          "name": "owner",
          "type": "address"
        }
      ],
      "name": "nonces",
      "outputs": [
        {
          "internalType": "uint256",
          "name": "",
          "type": "uint256"
        }
      ],
      "stateMutability": "view",
      "type": "function"
    },
    {
      "inputs": [
        {
          "internalType": "address",
          "name": "owner",
          "type": "address"
        },
        {
          "internalType": "address",
          "name": "spender",
          "type": "address"
        },
        {
          "internalType": "uint256",
          "name": "amount",
          "type": "uint256"
        },
        {
          "internalType": "uint256",
          "name": "deadline",
          "type": "uint256"
        },
        {
          "internalType": "uint8",
          "name": "v",
          "type": "uint8"
        },
        {
          "internalType": "bytes32",
          "name": "r",
          "type": "bytes32"
        },
        {
          "internalType": "bytes32",
          "name": "s",
          "type": "bytes32"
        }
      ],
      "name": "permit",
      "outputs": [],
      "stateMutability": "nonpayable",
      "type": "function"
    },
    {
      "inputs": [
        {
          "internalType": "uint256",
          "name": "profit_",
          "type": "uint256"
        },
        {
          "internalType": "uint256",
          "name": "epoch_",
          "type": "uint256"
        }
      ],
      "name": "rebase",
      "outputs": [
        {
          "internalType": "uint256",
          "name": "",
          "type": "uint256"
        }
      ],
      "stateMutability": "nonpayable",
      "type": "function"
    },
    {
      "inputs": [
        {
          "internalType": "address",
          "name": "_newOwner",
          "type": "address"
        }
      ],
      "name": "setGov",
      "outputs": [],
      "stateMutability": "nonpayable",
      "type": "function"
    },
    {
      "inputs": [
        {
          "internalType": "uint256",
          "name": "_INDEX",
          "type": "uint256"
        }
      ],
      "name": "setIndex",
      "outputs": [
        {
          "internalType": "bool",
          "name": "",
          "type": "bool"
        }
      ],
      "stateMutability": "nonpayable",
      "type": "function"
    },
    {
      "inputs": [],
      "name": "stakingContract",
      "outputs": [
        {
          "internalType": "address",
          "name": "",
          "type": "address"
        }
      ],
      "stateMutability": "view",
      "type": "function"
    },
    {
      "inputs": [],
      "name": "symbol",
      "outputs": [
        {
          "internalType": "string",
          "name": "",
          "type": "string"
        }
      ],
      "stateMutability": "view",
      "type": "function"
    },
    {
      "inputs": [
        {
          "internalType": "uint256",
          "name": "amount",
          "type": "uint256"
        }
      ],
      "name": "toN",
      "outputs": [
        {
          "internalType": "uint256",
          "name": "",
          "type": "uint256"
        }
      ],
      "stateMutability": "view",
      "type": "function"
    },
    {
      "inputs": [],
      "name": "totalSupply",
      "outputs": [
        {
          "internalType": "uint256",
          "name": "",
          "type": "uint256"
        }
      ],
      "stateMutability": "view",
      "type": "function"
    },
    {
      "inputs": [
        {
          "internalType": "address",
          "name": "to",
          "type": "address"
        },
        {
          "internalType": "uint256",
          "name": "value",
          "type": "uint256"
        }
      ],
      "name": "transfer",
      "outputs": [
        {
          "internalType": "bool",
          "name": "",
          "type": "bool"
        }
      ],
      "stateMutability": "nonpayable",
      "type": "function"
    },
    {
      "inputs": [
        {
          "internalType": "address",
          "name": "from",
          "type": "address"
        },
        {
          "internalType": "address",
          "name": "to",
          "type": "address"
        },
        {
          "internalType": "uint256",
          "name": "value",
          "type": "uint256"
        }
      ],
      "name": "transferFrom",
      "outputs": [
        {
          "internalType": "bool",
          "name": "",
          "type": "bool"
        }
      ],
      "stateMutability": "nonpayable",
      "type": "function"
    }
  ],
  "bytecode": "0x608060405234801561001057600080fd5b506122e8806100206000396000f3fe608060405234801561001057600080fd5b50600436106101b95760003560e01c806370a08231116100f9578063ae5c6cd311610097578063cfad57a211610071578063cfad57a214610406578063d505accf14610419578063dd62ed3e1461042c578063ee99205c1461048457600080fd5b8063ae5c6cd314610396578063c0c53b8b146103ab578063c4ef1c4c146103be57600080fd5b80639358928b116100d35780639358928b1461036057806395d89b4114610368578063a457c2d714610370578063a9059cbb1461038357600080fd5b806370a08231146102f25780637965d56d146103055780637ecebe001461031857600080fd5b806323b872dd11610166578063395093511161014057806339509351146102a657806340a5737f146102b95780634a6b9245146102cc5780636525d065146102df57600080fd5b806323b872dd146102575780632986c0e51461026a578063313ce5671461027257600080fd5b806312d43a511161019757806312d43a511461021c57806318160ddd1461023c5780631bd396741461024457600080fd5b8063058ecdb4146101be57806306fdde03146101e4578063095ea7b3146101f9575b600080fd5b6101d16101cc366004611f46565b6104b4565b6040519081526020015b60405180910390f35b6101ec61066c565b6040516101db9190611f68565b61020c610207366004611fd9565b61071d565b60405190151581526020016101db565b610224610733565b6040516001600160a01b0390911681526020016101db565b6101d161076b565b6101d1610252366004612003565b610795565b61020c61026536600461201c565b6107ee565b6101d16109e0565b7f2967a798b92539a1b9eefe4d8eb931f96b68d27665e276f1bee2d5db7f7430495460405160ff90911681526020016101db565b61020c6102b4366004611fd9565b610a16565b61020c6102c7366004612003565b610a73565b6101d16102da366004612003565b610afa565b6101d16102ed366004612003565b610bc5565b6101d1610300366004612058565b610c53565b6101d1610313366004612003565b610cda565b6101d1610326366004612058565b6001600160a01b031660009081527fbb9c3660b51e1fafa886fcf600a68efa81371bd50359eccba98f0c4fff2cfeb9602052604090205490565b6101d1610d2c565b6101ec610eae565b61020c61037e366004611fd9565b610edf565b61020c610391366004611fd9565b610f53565b6103a96103a4366004612073565b6110c7565b005b6103a96103b93660046120b8565b611266565b6101d16103cc366004612058565b6001600160a01b031660009081527f85cc79b6be0f7f23d750ce271d29ecc56c7c1a80fc209736f2b226ac13ce4e63602052604090205490565b6103a9610414366004612058565b6114cc565b6103a96104273660046120fb565b6114d8565b6101d161043a36600461216e565b6001600160a01b0391821660009081527fc991b2e918acaba8e5721668ed0b1982684e5a8692a621bcd2d7ef326bb015b56020908152604080832093909416825291909152205490565b7f85cc79b6be0f7f23d750ce271d29ecc56c7c1a80fc209736f2b226ac13ce4e5b546001600160a01b0316610224565b60007f85cc79b6be0f7f23d750ce271d29ecc56c7c1a80fc209736f2b226ac13ce4e5a7fc991b2e918acaba8e5721668ed0b1982684e5a8692a621bcd2d7ef326bb015b4610501826116c4565b60008061050c610d2c565b9050866105ad57857f917acfbe39be6509ccf7fecb66a7e42ce2be1083c2d7dd3b9b7491dabddb8da4428560020154604051610552929190918252602082015260400190565b60405180910390a2857f6012dbce857565c4a40974aa5de8373a761fc429077ef0c8c8611d1e20d63fb260006105866109e0565b6040805192835260208301919091520160405180910390a250506002015491506106669050565b80156105db576105d4816105ce85600201548a61172090919063ffffffff16565b9061172c565b91506105df565b8691505b60028301546105ee9083611738565b600284018190556fffffffffffffffffffffffffffffffff1015610623576fffffffffffffffffffffffffffffffff60028401555b600283015461064b9061063f6611c37937e080006000196121b7565b6105ce906000196121e1565b600785015561065b818888611744565b505050600201549150505b92915050565b60607f2967a798b92539a1b9eefe4d8eb931f96b68d27665e276f1bee2d5db7f743047805461069a906121f8565b80601f01602080910402602001604051908101604052809291908181526020018280546106c6906121f8565b80156107135780601f106106e857610100808354040283529160200191610713565b820191906000526020600020905b8154815290600101906020018083116106f657829003601f168201915b5050505050905090565b600061072a3384846118d4565b50600192915050565b60006107667fc8fcad8db84d3cc18b4c41d551ea0ee66dd599cde068d998e57d5e09332c1320546001600160a01b031690565b905090565b60006107667fc991b2e918acaba8e5721668ed0b1982684e5a8692a621bcd2d7ef326bb015b65490565b7f85cc79b6be0f7f23d750ce271d29ecc56c7c1a80fc209736f2b226ac13ce4e61546000907f85cc79b6be0f7f23d750ce271d29ecc56c7c1a80fc209736f2b226ac13ce4e5a906107e7908490611720565b9392505050565b60007f85cc79b6be0f7f23d750ce271d29ecc56c7c1a80fc209736f2b226ac13ce4e5a61081b8484610edf565b503360008181527fc991b2e918acaba8e5721668ed0b1982684e5a8692a621bcd2d7ef326bb015b5602090815260408083206001600160a01b038981168552925290912054908716907f8c5be1e5ebec7d5bd14f71427d1e84f3dd0314c0f7b2291e5b200ac8c7c3b9259060405190815260200160405180910390a360006108a284610795565b6001600160a01b03871660009081526008840160205260409020549091506108ca9082611a4c565b6001600160a01b03808816600090815260088501602052604080822093909355908716815220546108fb9082611738565b6001600160a01b038087166000908152600885016020908152604080832094909455918916815260098501909152205461093487610c53565b10156109875760405162461bcd60e51b815260206004820152601c60248201527f446562743a2063616e6e6f74207472616e7366657220616d6f756e740000000060448201526064015b60405180910390fd5b846001600160a01b0316866001600160a01b03167fddf252ad1be2c89b69c2b068fc378daa952ba7f163c4a11628f55a4df523b3ef866040516109cc91815260200190565b60405180910390a350600195945050505050565b7f85cc79b6be0f7f23d750ce271d29ecc56c7c1a80fc209736f2b226ac13ce4e5a805460009190610a1090610cda565b91505090565b3360008181527fc991b2e918acaba8e5721668ed0b1982684e5a8692a621bcd2d7ef326bb015b5602090815260408083206001600160a01b0387168452909152812054909161072a918590610a6e9086905b90611738565b6118d4565b7f85cc79b6be0f7f23d750ce271d29ecc56c7c1a80fc209736f2b226ac13ce4e5a80546000919015610ae75760405162461bcd60e51b815260206004820152601160248201527f496e64657820616c726561647920736574000000000000000000000000000000604482015260640161097e565b610af083610795565b9055506001919050565b7f85cc79b6be0f7f23d750ce271d29ecc56c7c1a80fc209736f2b226ac13ce4e5c546040517fa8248768000000000000000000000000000000000000000000000000000000008152600481018390526000917f85cc79b6be0f7f23d750ce271d29ecc56c7c1a80fc209736f2b226ac13ce4e5a916001600160a01b039091169063a8248768906024015b602060405180830381865afa158015610ba1573d6000803e3d6000fd5b505050506040513d601f19601f820116820180604052508101906107e79190612233565b7f85cc79b6be0f7f23d750ce271d29ecc56c7c1a80fc209736f2b226ac13ce4e5c546040517f66a5236c000000000000000000000000000000000000000000000000000000008152600481018390526000917f85cc79b6be0f7f23d750ce271d29ecc56c7c1a80fc209736f2b226ac13ce4e5a916001600160a01b03909116906366a5236c90602401610b84565b7f85cc79b6be0f7f23d750ce271d29ecc56c7c1a80fc209736f2b226ac13ce4e61546001600160a01b03821660009081527f85cc79b6be0f7f23d750ce271d29ecc56c7c1a80fc209736f2b226ac13ce4e62602052604081205490917f85cc79b6be0f7f23d750ce271d29ecc56c7c1a80fc209736f2b226ac13ce4e5a916107e79161172c565b7f85cc79b6be0f7f23d750ce271d29ecc56c7c1a80fc209736f2b226ac13ce4e61546000907f85cc79b6be0f7f23d750ce271d29ecc56c7c1a80fc209736f2b226ac13ce4e5a906107e790849061172c565b7f85cc79b6be0f7f23d750ce271d29ecc56c7c1a80fc209736f2b226ac13ce4e5c54604080517f18160ddd00000000000000000000000000000000000000000000000000000000815290516000927f85cc79b6be0f7f23d750ce271d29ecc56c7c1a80fc209736f2b226ac13ce4e5a927fc991b2e918acaba8e5721668ed0b1982684e5a8692a621bcd2d7ef326bb015b492610ea7926001600160a01b03169163a82487689183916318160ddd9160048083019260209291908290030181865afa158015610dfe573d6000803e3d6000fd5b505050506040513d601f19601f82011682018060405250810190610e229190612233565b6040518263ffffffff1660e01b8152600401610e4091815260200190565b602060405180830381865afa158015610e5d573d6000803e3d6000fd5b505050506040513d601f19601f82011682018060405250810190610e819190612233565b6001840154610a6890610e9c906001600160a01b0316610c53565b600285015490611a4c565b9250505090565b60607f2967a798b92539a1b9eefe4d8eb931f96b68d27665e276f1bee2d5db7f743047600101805461069a906121f8565b3360009081527fc991b2e918acaba8e5721668ed0b1982684e5a8692a621bcd2d7ef326bb015b5602090815260408083206001600160a01b0386168452909152812054808310610f3a57610f35338560006118d4565b610f49565b610f493385610a6e8487611a4c565b5060019392505050565b7f85cc79b6be0f7f23d750ce271d29ecc56c7c1a80fc209736f2b226ac13ce4e61546000907f85cc79b6be0f7f23d750ce271d29ecc56c7c1a80fc209736f2b226ac13ce4e5a908290610fa7908590611720565b336000908152600884016020526040902054909150610fc69082611a4c565b336000908152600884016020526040808220929092556001600160a01b03871681522054610ff49082611738565b6001600160a01b03861660009081526008840160209081526040808320939093553380835260098601909152919020549061102e90610c53565b101561107c5760405162461bcd60e51b815260206004820152601c60248201527f446562743a2063616e6e6f74207472616e7366657220616d6f756e7400000000604482015260640161097e565b6040518481526001600160a01b0386169033907fddf252ad1be2c89b69c2b068fc378daa952ba7f163c4a11628f55a4df523b3ef9060200160405180910390a3506001949350505050565b7f85cc79b6be0f7f23d750ce271d29ecc56c7c1a80fc209736f2b226ac13ce4e5d547f85cc79b6be0f7f23d750ce271d29ecc56c7c1a80fc209736f2b226ac13ce4e5a906001600160a01b031633146111625760405162461bcd60e51b815260206004820152600d60248201527f4f6e6c7920747265617375727900000000000000000000000000000000000000604482015260640161097e565b81156111ad576001600160a01b038316600090815260098201602052604090205461118d9085611738565b6001600160a01b03841660009081526009830160205260409020556111ee565b6001600160a01b03831660009081526009820160205260409020546111d29085611a4c565b6001600160a01b03841660009081526009830160205260409020555b6111f783610c53565b6001600160a01b038416600090815260098301602052604090205411156112605760405162461bcd60e51b815260206004820152601b60248201527f734e6563633a20696e73756666696369656e742062616c616e63650000000000604482015260640161097e565b50505050565b61126e611a58565b60408051808201909152600b81527f5374616b6564204e65636300000000000000000000000000000000000000000060208201527fc991b2e918acaba8e5721668ed0b1982684e5a8692a621bcd2d7ef326bb015b4907f2967a798b92539a1b9eefe4d8eb931f96b68d27665e276f1bee2d5db7f743047907f85cc79b6be0f7f23d750ce271d29ecc56c7c1a80fc209736f2b226ac13ce4e5a90611313908390611a62565b60408051808201909152600581527f734e4543430000000000000000000000000000000000000000000000000000006020820152611352908390611a79565b6002820180547fffffffffffffffffffffffffffffffffffffffffffffffffffffffffffffff001660091790556611c37937e080006002840181905561139e9061063f816000196121b7565b60078201556001810180546001600160a01b0380891673ffffffffffffffffffffffffffffffffffffffff1992831617909255600283018054928816929091169190911790556113f76611c37937e080006000196121b7565b611403906000196121e1565b60018201546001600160a01b03908116600090815260088401602090815260408083209490945560038501805473ffffffffffffffffffffffffffffffffffffffff1916898516179055600287015493519384529189169290917fddf252ad1be2c89b69c2b068fc378daa952ba7f163c4a11628f55a4df523b3ef910160405180910390a36040516001600160a01b03871681527f817c653428858ed536dc085c5d8273734c517b55de44b55f5c5877a75e3373a19060200160405180910390a1505050505050565b6114d581611a8e565b50565b834211156115285760405162461bcd60e51b815260206004820152601d60248201527f45524332305065726d69743a206578706972656420646561646c696e65000000604482015260640161097e565b6001600160a01b03871660009081527fbb9c3660b51e1fafa886fcf600a68efa81371bd50359eccba98f0c4fff2cfeb9602090815260408083205481517f6e71edae12b1b97f4d1f60370fef10105fa2faae0126114a169c64845d6126c981529283018b9052908201899052606082018890526080820181905260a0820187905260c0909120916115b7611ae4565b6040517f19010000000000000000000000000000000000000000000000000000000000008152600281018290526022810185905260429020909150600061160082898989611b26565b90508b6001600160a01b0316816001600160a01b0316146116635760405162461bcd60e51b815260206004820152601e60248201527f45524332305065726d69743a20696e76616c6964207369676e61747572650000604482015260640161097e565b6001600160a01b038c1660009081527fbb9c3660b51e1fafa886fcf600a68efa81371bd50359eccba98f0c4fff2cfeb9602052604081208054916116a68361224c565b91905055506116b68c8c8c6118d4565b505050505050505050505050565b60018101546001600160a01b031633146114d55760405162461bcd60e51b815260206004820152601a60248201527f4e444f4c3a206f6e6c79207374616b696e67436f6e7472616374000000000000604482015260640161097e565b60006107e78284612267565b60006107e78284612286565b60006107e7828461229a565b60007f85cc79b6be0f7f23d750ce271d29ecc56c7c1a80fc209736f2b226ac13ce4e5a7fc991b2e918acaba8e5721668ed0b1982684e5a8692a621bcd2d7ef326bb015b48261179f876105ce88670de0b6b3a7640000611720565b9050826006016040518060e001604052808781526020018381526020018981526020016117ca610d2c565b81526020018881526020016117dd6109e0565b81524360209182015282546001808201855560009485529382902083516007909202019081558282015193810193909355604080830151600280860191909155606084015160038601556080840151600486015560a0840151600586015560c0909301516006909401939093559084015482514281529182015286917f917acfbe39be6509ccf7fecb66a7e42ce2be1083c2d7dd3b9b7491dabddb8da4910160405180910390a2847f6012dbce857565c4a40974aa5de8373a761fc429077ef0c8c8611d1e20d63fb2826118af6109e0565b6040805192835260208301919091520160405180910390a25060019695505050505050565b6001600160a01b03831661194f5760405162461bcd60e51b8152602060048201526024808201527f45524332303a20617070726f76652066726f6d20746865207a65726f2061646460448201527f7265737300000000000000000000000000000000000000000000000000000000606482015260840161097e565b6001600160a01b0382166119cb5760405162461bcd60e51b815260206004820152602260248201527f45524332303a20617070726f766520746f20746865207a65726f20616464726560448201527f7373000000000000000000000000000000000000000000000000000000000000606482015260840161097e565b6001600160a01b0383811660008181527fc991b2e918acaba8e5721668ed0b1982684e5a8692a621bcd2d7ef326bb015b56020908152604080832094871680845294825291829020859055815185815291517f8c5be1e5ebec7d5bd14f71427d1e84f3dd0314c0f7b2291e5b200ac8c7c3b9259281900390910190a3505050565b60006107e782846121e1565b611a60611d05565b565b8051611a749083906020840190611ead565b505050565b8051611a749060018401906020840190611ead565b611a96611d05565b7fc8fcad8db84d3cc18b4c41d551ea0ee66dd599cde068d998e57d5e09332c1320805473ffffffffffffffffffffffffffffffffffffffff19166001600160a01b0392909216919091179055565b4660009081527fbb9c3660b51e1fafa886fcf600a68efa81371bd50359eccba98f0c4fff2cfeba60205260408120548015611b1e57919050565b610a10611da7565b60007f7fffffffffffffffffffffffffffffff5d576e7357a4501ddfe92f46681b20a0821115611bbe5760405162461bcd60e51b815260206004820152602260248201527f45434453413a20696e76616c6964207369676e6174757265202773272076616c60448201527f7565000000000000000000000000000000000000000000000000000000000000606482015260840161097e565b8360ff16601b1480611bd357508360ff16601c145b611c455760405162461bcd60e51b815260206004820152602260248201527f45434453413a20696e76616c6964207369676e6174757265202776272076616c60448201527f7565000000000000000000000000000000000000000000000000000000000000606482015260840161097e565b6040805160008082526020820180845288905260ff871692820192909252606081018590526080810184905260019060a0016020604051602081039080840390855afa158015611c99573d6000803e3d6000fd5b5050604051601f1901519150506001600160a01b038116611cfc5760405162461bcd60e51b815260206004820152601860248201527f45434453413a20696e76616c6964207369676e61747572650000000000000000604482015260640161097e565b95945050505050565b7fc8fcad8db84d3cc18b4c41d551ea0ee66dd599cde068d998e57d5e09332c131c600401546001600160a01b03163314611a605760405162461bcd60e51b815260206004820152602260248201527f4c69624469616d6f6e643a20696e76616c696420636f6e7472616374206f776e60448201527f6572000000000000000000000000000000000000000000000000000000000000606482015260840161097e565b600046817f8b73c3c69bb8fe3d512ecc4cf759cc79239f7b179b0ffacaa9a75d522b39400f611dd461066c565b8051602091820120604080518082018252600181527f310000000000000000000000000000000000000000000000000000000000000090840152805192830193909352918101919091527fc89efdaa54c0f20c7adf612882df0950f5a951637e0307cdcb4c672f298b8bc66060820152608081018390523060a082015260c00160405160208183030381529060405280519060200120905080611e947fbb9c3660b51e1fafa886fcf600a68efa81371bd50359eccba98f0c4fff2cfeb990565b6000938452600101602052604090922091909155919050565b828054611eb9906121f8565b90600052602060002090601f016020900481019282611edb5760008555611f21565b82601f10611ef457805160ff1916838001178555611f21565b82800160010185558215611f21579182015b82811115611f21578251825591602001919060010190611f06565b50611f2d929150611f31565b5090565b5b80821115611f2d5760008155600101611f32565b60008060408385031215611f5957600080fd5b50508035926020909101359150565b600060208083528351808285015260005b81811015611f9557858101830151858201604001528201611f79565b81811115611fa7576000604083870101525b50601f01601f1916929092016040019392505050565b80356001600160a01b0381168114611fd457600080fd5b919050565b60008060408385031215611fec57600080fd5b611ff583611fbd565b946020939093013593505050565b60006020828403121561201557600080fd5b5035919050565b60008060006060848603121561203157600080fd5b61203a84611fbd565b925061204860208501611fbd565b9150604084013590509250925092565b60006020828403121561206a57600080fd5b6107e782611fbd565b60008060006060848603121561208857600080fd5b8335925061209860208501611fbd565b9150604084013580151581146120ad57600080fd5b809150509250925092565b6000806000606084860312156120cd57600080fd5b6120d684611fbd565b92506120e460208501611fbd565b91506120f260408501611fbd565b90509250925092565b600080600080600080600060e0888a03121561211657600080fd5b61211f88611fbd565b965061212d60208901611fbd565b95506040880135945060608801359350608088013560ff8116811461215157600080fd5b9699959850939692959460a0840135945060c09093013592915050565b6000806040838503121561218157600080fd5b61218a83611fbd565b915061219860208401611fbd565b90509250929050565b634e487b7160e01b600052601260045260246000fd5b6000826121c6576121c66121a1565b500690565b634e487b7160e01b600052601160045260246000fd5b6000828210156121f3576121f36121cb565b500390565b600181811c9082168061220c57607f821691505b6020821081141561222d57634e487b7160e01b600052602260045260246000fd5b50919050565b60006020828403121561224557600080fd5b5051919050565b6000600019821415612260576122606121cb565b5060010190565b6000816000190483118215151615612281576122816121cb565b500290565b600082612295576122956121a1565b500490565b600082198211156122ad576122ad6121cb565b50019056fea26469706673582212205309daf4e5a99c6388e9a4b0309172331c9f86e4fb531a1f485a4030817b0fb564736f6c634300080a0033",
  "linkReferences": {},
  "deployedLinkReferences": {}
}