{
  "_format": "hh-sol-artifact-1",
  "contractName": "NdolFacet",
  "sourceName": "contracts/facets/Ndol/NdolFacet.sol",
  "abi": [
    {
      "anonymous": false,
      "inputs": [
        {
          "indexed": true,
          "internalType": "address",
          "name": "owner",
          "type": "address"
        },
        {
          "indexed": true,
          "internalType": "address",
          "name": "spender",
          "type": "address"
        },
        {
          "indexed": false,
          "internalType": "uint256",
          "name": "value",
          "type": "uint256"
        }
      ],
      "name": "Approval",
      "type": "event"
    },
    {
      "anonymous": false,
      "inputs": [
        {
          "indexed": true,
          "internalType": "address",
          "name": "from",
          "type": "address"
        },
        {
          "indexed": true,
          "internalType": "address",
          "name": "to",
          "type": "address"
        },
        {
          "indexed": false,
          "internalType": "uint256",
          "name": "value",
          "type": "uint256"
        }
      ],
      "name": "Transfer",
      "type": "event"
    },
    {
      "inputs": [
        {
          "internalType": "address",
          "name": "_vault",
          "type": "address"
        }
      ],
      "name": "addVault",
      "outputs": [],
      "stateMutability": "nonpayable",
      "type": "function"
    },
    {
      "inputs": [
        {
          "internalType": "address",
          "name": "holder",
          "type": "address"
        },
        {
          "internalType": "address",
          "name": "spender",
          "type": "address"
        }
      ],
      "name": "allowance",
      "outputs": [
        {
          "internalType": "uint256",
          "name": "",
          "type": "uint256"
        }
      ],
      "stateMutability": "view",
      "type": "function"
    },
    {
      "inputs": [
        {
          "internalType": "address",
          "name": "spender",
          "type": "address"
        },
        {
          "internalType": "uint256",
          "name": "amount",
          "type": "uint256"
        }
      ],
      "name": "approve",
      "outputs": [
        {
          "internalType": "bool",
          "name": "",
          "type": "bool"
        }
      ],
      "stateMutability": "nonpayable",
      "type": "function"
    },
    {
      "inputs": [
        {
          "internalType": "address",
          "name": "account",
          "type": "address"
        }
      ],
      "name": "balanceOf",
      "outputs": [
        {
          "internalType": "uint256",
          "name": "",
          "type": "uint256"
        }
      ],
      "stateMutability": "view",
      "type": "function"
    },
    {
      "inputs": [
        {
          "internalType": "address",
          "name": "_account",
          "type": "address"
        },
        {
          "internalType": "uint256",
          "name": "_amount",
          "type": "uint256"
        }
      ],
      "name": "burn",
      "outputs": [],
      "stateMutability": "nonpayable",
      "type": "function"
    },
    {
      "inputs": [],
      "name": "decimals",
      "outputs": [
        {
          "internalType": "uint8",
          "name": "",
          "type": "uint8"
        }
      ],
      "stateMutability": "view",
      "type": "function"
    },
    {
      "inputs": [
        {
          "internalType": "address",
          "name": "spender",
          "type": "address"
        },
        {
          "internalType": "uint256",
          "name": "amount",
          "type": "uint256"
        }
      ],
      "name": "decreaseAllowance",
      "outputs": [
        {
          "internalType": "bool",
          "name": "",
          "type": "bool"
        }
      ],
      "stateMutability": "nonpayable",
      "type": "function"
    },
    {
      "inputs": [],
      "name": "gov",
      "outputs": [
        {
          "internalType": "address",
          "name": "",
          "type": "address"
        }
      ],
      "stateMutability": "view",
      "type": "function"
    },
    {
      "inputs": [
        {
          "internalType": "address",
          "name": "spender",
          "type": "address"
        },
        {
          "internalType": "uint256",
          "name": "amount",
          "type": "uint256"
        }
      ],
      "name": "increaseAllowance",
      "outputs": [
        {
          "internalType": "bool",
          "name": "",
          "type": "bool"
        }
      ],
      "stateMutability": "nonpayable",
      "type": "function"
    },
    {
      "inputs": [
        {
          "internalType": "address",
          "name": "_vault",
          "type": "address"
        }
      ],
      "name": "initialize",
      "outputs": [],
      "stateMutability": "nonpayable",
      "type": "function"
    },
    {
      "inputs": [
        {
          "internalType": "address",
          "name": "_account",
          "type": "address"
        },
        {
          "internalType": "uint256",
          "name": "_amount",
          "type": "uint256"
        }
      ],
      "name": "mint",
      "outputs": [],
      "stateMutability": "nonpayable",
      "type": "function"
    },
    {
      "inputs": [],
      "name": "name",
      "outputs": [
        {
          "internalType": "string",
          "name": "",
          "type": "string"
        }
      ],
      "stateMutability": "view",
      "type": "function"
    },
    {
      "inputs": [
        {
          "internalType": "address",
          "name": "owner",
          "type": "address"
        }
      ],
      "name": "nonces",
      "outputs": [
        {
          "internalType": "uint256",
          "name": "",
          "type": "uint256"
        }
      ],
      "stateMutability": "view",
      "type": "function"
    },
    {
      "inputs": [
        {
          "internalType": "address",
          "name": "owner",
          "type": "address"
        },
        {
          "internalType": "address",
          "name": "spender",
          "type": "address"
        },
        {
          "internalType": "uint256",
          "name": "amount",
          "type": "uint256"
        },
        {
          "internalType": "uint256",
          "name": "deadline",
          "type": "uint256"
        },
        {
          "internalType": "uint8",
          "name": "v",
          "type": "uint8"
        },
        {
          "internalType": "bytes32",
          "name": "r",
          "type": "bytes32"
        },
        {
          "internalType": "bytes32",
          "name": "s",
          "type": "bytes32"
        }
      ],
      "name": "permit",
      "outputs": [],
      "stateMutability": "nonpayable",
      "type": "function"
    },
    {
      "inputs": [
        {
          "internalType": "address",
          "name": "_vault",
          "type": "address"
        }
      ],
      "name": "removeVault",
      "outputs": [],
      "stateMutability": "nonpayable",
      "type": "function"
    },
    {
      "inputs": [
        {
          "internalType": "address",
          "name": "_newOwner",
          "type": "address"
        }
      ],
      "name": "setGov",
      "outputs": [],
      "stateMutability": "nonpayable",
      "type": "function"
    },
    {
      "inputs": [],
      "name": "symbol",
      "outputs": [
        {
          "internalType": "string",
          "name": "",
          "type": "string"
        }
      ],
      "stateMutability": "view",
      "type": "function"
    },
    {
      "inputs": [],
      "name": "totalSupply",
      "outputs": [
        {
          "internalType": "uint256",
          "name": "",
          "type": "uint256"
        }
      ],
      "stateMutability": "view",
      "type": "function"
    },
    {
      "inputs": [
        {
          "internalType": "address",
          "name": "recipient",
          "type": "address"
        },
        {
          "internalType": "uint256",
          "name": "amount",
          "type": "uint256"
        }
      ],
      "name": "transfer",
      "outputs": [
        {
          "internalType": "bool",
          "name": "",
          "type": "bool"
        }
      ],
      "stateMutability": "nonpayable",
      "type": "function"
    },
    {
      "inputs": [
        {
          "internalType": "address",
          "name": "holder",
          "type": "address"
        },
        {
          "internalType": "address",
          "name": "recipient",
          "type": "address"
        },
        {
          "internalType": "uint256",
          "name": "amount",
          "type": "uint256"
        }
      ],
      "name": "transferFrom",
      "outputs": [
        {
          "internalType": "bool",
          "name": "",
          "type": "bool"
        }
      ],
      "stateMutability": "nonpayable",
      "type": "function"
    },
    {
      "inputs": [
        {
          "internalType": "address",
          "name": "vault",
          "type": "address"
        }
      ],
      "name": "vaults",
      "outputs": [
        {
          "internalType": "bool",
          "name": "",
          "type": "bool"
        }
      ],
      "stateMutability": "view",
      "type": "function"
    }
  ],
  "bytecode": "0x608060405234801561001057600080fd5b50611b06806100206000396000f3fe608060405234801561001057600080fd5b50600436106101775760003560e01c80637ecebe00116100d8578063a9059cbb1161008c578063cfad57a211610066578063cfad57a214610315578063d505accf14610328578063dd62ed3e1461033b57600080fd5b8063a9059cbb146102dc578063c4d66de8146102ef578063ceb68c231461030257600080fd5b80639dc29fac116100bd5780639dc29fac146102a3578063a457c2d7146102b6578063a622ee7c146102c957600080fd5b80637ecebe001461028857806395d89b411461029b57600080fd5b8063256b5a021161012f5780633950935111610114578063395093511461024f57806340c10f191461026257806370a082311461027557600080fd5b8063256b5a0214610206578063313ce5671461021b57600080fd5b806312d43a511161016057806312d43a51146101bd57806318160ddd146101dd57806323b872dd146101f357600080fd5b806306fdde031461017c578063095ea7b31461019a575b600080fd5b610184610393565b604051610191919061184d565b60405180910390f35b6101ad6101a83660046118be565b610444565b6040519015158152602001610191565b6101c561045a565b6040516001600160a01b039091168152602001610191565b6101e5610492565b604051908152602001610191565b6101ad6102013660046118e8565b6104bc565b610219610214366004611924565b61059d565b005b7f2967a798b92539a1b9eefe4d8eb931f96b68d27665e276f1bee2d5db7f7430495460405160ff9091168152602001610191565b6101ad61025d3660046118be565b6105cc565b6102196102703660046118be565b6106bc565b6101e5610283366004611924565b6106f6565b6101e5610296366004611924565b610707565b61018461074a565b6102196102b13660046118be565b61077b565b6101ad6102c43660046118be565b6107b0565b6101ad6102d7366004611924565b61089e565b6101ad6102ea3660046118be565b6108e3565b6102196102fd366004611924565b6108f0565b610219610310366004611924565b6109d1565b610219610323366004611924565b6109fc565b61021961033636600461193f565b610a08565b6101e56103493660046119b2565b6001600160a01b0391821660009081527fc991b2e918acaba8e5721668ed0b1982684e5a8692a621bcd2d7ef326bb015b56020908152604080832093909416825291909152205490565b60607f2967a798b92539a1b9eefe4d8eb931f96b68d27665e276f1bee2d5db7f74304780546103c1906119e5565b80601f01602080910402602001604051908101604052809291908181526020018280546103ed906119e5565b801561043a5780601f1061040f5761010080835404028352916020019161043a565b820191906000526020600020905b81548152906001019060200180831161041d57829003601f168201915b5050505050905090565b6000610451338484610bf4565b50600192915050565b600061048d7fc8fcad8db84d3cc18b4c41d551ea0ee66dd599cde068d998e57d5e09332c1320546001600160a01b031690565b905090565b600061048d7fc991b2e918acaba8e5721668ed0b1982684e5a8692a621bcd2d7ef326bb015b65490565b6001600160a01b03831660009081527fc991b2e918acaba8e5721668ed0b1982684e5a8692a621bcd2d7ef326bb015b5602090815260408083203384529091528120548281101561057a5760405162461bcd60e51b815260206004820152602860248201527f45524332303a207472616e7366657220616d6f756e742065786365656473206160448201527f6c6c6f77616e636500000000000000000000000000000000000000000000000060648201526084015b60405180910390fd5b6105878533858403610bf4565b610592858585610d6c565b506001949350505050565b7fc44bf86f0b53fa836224f66e8e1673ab1d24877f9e8c87398930ec1c0322e6866105c88183610fa7565b5050565b3360009081527fc991b2e918acaba8e5721668ed0b1982684e5a8692a621bcd2d7ef326bb015b5602090815260408083206001600160a01b0386168452918290528220548381018111156106885760405162461bcd60e51b815260206004820152602260248201527f4552433230457874656e6465643a2065786365737369766520616c6c6f77616e60448201527f63650000000000000000000000000000000000000000000000000000000000006064820152608401610571565b61059233868684018560008a6001600160a01b03166001600160a01b03168152602001908152602001600020819055610bf4565b7fc44bf86f0b53fa836224f66e8e1673ab1d24877f9e8c87398930ec1c0322e6866106e78133610fd4565b6106f1838361103c565b505050565b600061070182611157565b92915050565b60007fbb9c3660b51e1fafa886fcf600a68efa81371bd50359eccba98f0c4fff2cfeb95b6001600160a01b03909216600090815260209290925250604090205490565b60607f2967a798b92539a1b9eefe4d8eb931f96b68d27665e276f1bee2d5db7f74304760010180546103c1906119e5565b7fc44bf86f0b53fa836224f66e8e1673ab1d24877f9e8c87398930ec1c0322e6866107a68133610fd4565b6106f1838361117f565b3360009081527fc991b2e918acaba8e5721668ed0b1982684e5a8692a621bcd2d7ef326bb015b5602090815260408083206001600160a01b0386168452918290528220548084111561086a5760405162461bcd60e51b815260206004820152602560248201527f4552433230457874656e6465643a20696e73756666696369656e7420616c6c6f60448201527f77616e63650000000000000000000000000000000000000000000000000000006064820152608401610571565b61059233868684038560008a6001600160a01b03166001600160a01b03168152602001908152602001600020819055610bf4565b6001600160a01b03811660009081527fc44bf86f0b53fa836224f66e8e1673ab1d24877f9e8c87398930ec1c0322e6866020819052604082205460ff165b9392505050565b6000610451338484610d6c565b7fc44bf86f0b53fa836224f66e8e1673ab1d24877f9e8c87398930ec1c0322e6867f2967a798b92539a1b9eefe4d8eb931f96b68d27665e276f1bee2d5db7f74304761093a611329565b60408051808201909152600c81527f4e65636320446f6c6c61727300000000000000000000000000000000000000006020820152610979908290611333565b60408051808201909152600481527f4e444f4c0000000000000000000000000000000000000000000000000000000060208201526109b8908290611345565b60028101805460ff191660121790556106f18284610fa7565b7fc44bf86f0b53fa836224f66e8e1673ab1d24877f9e8c87398930ec1c0322e6866105c8818361135a565b610a0581611384565b50565b83421115610a585760405162461bcd60e51b815260206004820152601d60248201527f45524332305065726d69743a206578706972656420646561646c696e650000006044820152606401610571565b6001600160a01b03871660009081527fbb9c3660b51e1fafa886fcf600a68efa81371bd50359eccba98f0c4fff2cfeb9602090815260408083205481517f6e71edae12b1b97f4d1f60370fef10105fa2faae0126114a169c64845d6126c981529283018b9052908201899052606082018890526080820181905260a0820187905260c090912091610ae76113e5565b6040517f190100000000000000000000000000000000000000000000000000000000000081526002810182905260228101859052604290209091506000610b308289898961142d565b90508b6001600160a01b0316816001600160a01b031614610b935760405162461bcd60e51b815260206004820152601e60248201527f45524332305065726d69743a20696e76616c6964207369676e617475726500006044820152606401610571565b6001600160a01b038c1660009081527fbb9c3660b51e1fafa886fcf600a68efa81371bd50359eccba98f0c4fff2cfeb960205260408120805491610bd683611a68565b9190505550610be68c8c8c610bf4565b505050505050505050505050565b6001600160a01b038316610c6f5760405162461bcd60e51b8152602060048201526024808201527f45524332303a20617070726f76652066726f6d20746865207a65726f2061646460448201527f72657373000000000000000000000000000000000000000000000000000000006064820152608401610571565b6001600160a01b038216610ceb5760405162461bcd60e51b815260206004820152602260248201527f45524332303a20617070726f766520746f20746865207a65726f20616464726560448201527f73730000000000000000000000000000000000000000000000000000000000006064820152608401610571565b6001600160a01b0383811660008181527fc991b2e918acaba8e5721668ed0b1982684e5a8692a621bcd2d7ef326bb015b5602090815260408083209487168084529482529182902085905590518481527f8c5be1e5ebec7d5bd14f71427d1e84f3dd0314c0f7b2291e5b200ac8c7c3b92591015b60405180910390a3505050565b6001600160a01b038316610de85760405162461bcd60e51b815260206004820152602560248201527f45524332303a207472616e736665722066726f6d20746865207a65726f20616460448201527f64726573730000000000000000000000000000000000000000000000000000006064820152608401610571565b6001600160a01b038216610e645760405162461bcd60e51b815260206004820152602360248201527f45524332303a207472616e7366657220746f20746865207a65726f206164647260448201527f65737300000000000000000000000000000000000000000000000000000000006064820152608401610571565b6001600160a01b03831660009081527fc991b2e918acaba8e5721668ed0b1982684e5a8692a621bcd2d7ef326bb015b4602081905260409091205482811015610f155760405162461bcd60e51b815260206004820152602660248201527f45524332303a207472616e7366657220616d6f756e742065786365656473206260448201527f616c616e636500000000000000000000000000000000000000000000000000006064820152608401610571565b6001600160a01b03808616600090815260208490526040808220868503905591861681529081208054859290610f4c908490611aa1565b92505081905550836001600160a01b0316856001600160a01b03167fddf252ad1be2c89b69c2b068fc378daa952ba7f163c4a11628f55a4df523b3ef85604051610f9891815260200190565b60405180910390a35050505050565b610faf611329565b6001600160a01b0316600090815260209190915260409020805460ff19166001179055565b6001600160a01b03811660009081526020839052604090205460ff166105c85760405162461bcd60e51b815260206004820152601160248201527f4e444f4c3a206f6e6c79207661756c74730000000000000000000000000000006044820152606401610571565b6001600160a01b0382166110925760405162461bcd60e51b815260206004820152601f60248201527f45524332303a206d696e7420746f20746865207a65726f2061646472657373006044820152606401610571565b7fc991b2e918acaba8e5721668ed0b1982684e5a8692a621bcd2d7ef326bb015b680547fc991b2e918acaba8e5721668ed0b1982684e5a8692a621bcd2d7ef326bb015b49183916000906110e7908490611aa1565b90915550506001600160a01b03831660009081526020829052604081208054849290611114908490611aa1565b90915550506040518281526001600160a01b038416906000907fddf252ad1be2c89b69c2b068fc378daa952ba7f163c4a11628f55a4df523b3ef90602001610d5f565b60007fc991b2e918acaba8e5721668ed0b1982684e5a8692a621bcd2d7ef326bb015b461072b565b6001600160a01b0382166111fb5760405162461bcd60e51b815260206004820152602160248201527f45524332303a206275726e2066726f6d20746865207a65726f2061646472657360448201527f73000000000000000000000000000000000000000000000000000000000000006064820152608401610571565b6001600160a01b03821660009081527fc991b2e918acaba8e5721668ed0b1982684e5a8692a621bcd2d7ef326bb015b46020819052604090912054828110156112ac5760405162461bcd60e51b815260206004820152602260248201527f45524332303a206275726e20616d6f756e7420657863656564732062616c616e60448201527f63650000000000000000000000000000000000000000000000000000000000006064820152608401610571565b6001600160a01b038416600090815260208390526040812084830390556002830180548592906112dd908490611ab9565b90915550506040518381526000906001600160a01b038616907fddf252ad1be2c89b69c2b068fc378daa952ba7f163c4a11628f55a4df523b3ef9060200160405180910390a350505050565b61133161160c565b565b80516106f190839060208401906117b4565b80516106f190600184019060208401906117b4565b611362611329565b6001600160a01b0316600090815260209190915260409020805460ff19169055565b61138c61160c565b7fc8fcad8db84d3cc18b4c41d551ea0ee66dd599cde068d998e57d5e09332c132080547fffffffffffffffffffffffff0000000000000000000000000000000000000000166001600160a01b0392909216919091179055565b4660009081527fbb9c3660b51e1fafa886fcf600a68efa81371bd50359eccba98f0c4fff2cfeba6020526040812054801561141f57919050565b6114276116ae565b91505090565b60007f7fffffffffffffffffffffffffffffff5d576e7357a4501ddfe92f46681b20a08211156114c55760405162461bcd60e51b815260206004820152602260248201527f45434453413a20696e76616c6964207369676e6174757265202773272076616c60448201527f75650000000000000000000000000000000000000000000000000000000000006064820152608401610571565b8360ff16601b14806114da57508360ff16601c145b61154c5760405162461bcd60e51b815260206004820152602260248201527f45434453413a20696e76616c6964207369676e6174757265202776272076616c60448201527f75650000000000000000000000000000000000000000000000000000000000006064820152608401610571565b6040805160008082526020820180845288905260ff871692820192909252606081018590526080810184905260019060a0016020604051602081039080840390855afa1580156115a0573d6000803e3d6000fd5b5050604051601f1901519150506001600160a01b0381166116035760405162461bcd60e51b815260206004820152601860248201527f45434453413a20696e76616c6964207369676e617475726500000000000000006044820152606401610571565b95945050505050565b7fc8fcad8db84d3cc18b4c41d551ea0ee66dd599cde068d998e57d5e09332c131c600401546001600160a01b031633146113315760405162461bcd60e51b815260206004820152602260248201527f4c69624469616d6f6e643a20696e76616c696420636f6e7472616374206f776e60448201527f65720000000000000000000000000000000000000000000000000000000000006064820152608401610571565b600046817f8b73c3c69bb8fe3d512ecc4cf759cc79239f7b179b0ffacaa9a75d522b39400f6116db610393565b8051602091820120604080518082018252600181527f310000000000000000000000000000000000000000000000000000000000000090840152805192830193909352918101919091527fc89efdaa54c0f20c7adf612882df0950f5a951637e0307cdcb4c672f298b8bc66060820152608081018390523060a082015260c0016040516020818303038152906040528051906020012090508061179b7fbb9c3660b51e1fafa886fcf600a68efa81371bd50359eccba98f0c4fff2cfeb990565b6000938452600101602052604090922091909155919050565b8280546117c0906119e5565b90600052602060002090601f0160209004810192826117e25760008555611828565b82601f106117fb57805160ff1916838001178555611828565b82800160010185558215611828579182015b8281111561182857825182559160200191906001019061180d565b50611834929150611838565b5090565b5b808211156118345760008155600101611839565b600060208083528351808285015260005b8181101561187a5785810183015185820160400152820161185e565b8181111561188c576000604083870101525b50601f01601f1916929092016040019392505050565b80356001600160a01b03811681146118b957600080fd5b919050565b600080604083850312156118d157600080fd5b6118da836118a2565b946020939093013593505050565b6000806000606084860312156118fd57600080fd5b611906846118a2565b9250611914602085016118a2565b9150604084013590509250925092565b60006020828403121561193657600080fd5b6108dc826118a2565b600080600080600080600060e0888a03121561195a57600080fd5b611963886118a2565b9650611971602089016118a2565b95506040880135945060608801359350608088013560ff8116811461199557600080fd5b9699959850939692959460a0840135945060c09093013592915050565b600080604083850312156119c557600080fd5b6119ce836118a2565b91506119dc602084016118a2565b90509250929050565b600181811c908216806119f957607f821691505b60208210811415611a33577f4e487b7100000000000000000000000000000000000000000000000000000000600052602260045260246000fd5b50919050565b7f4e487b7100000000000000000000000000000000000000000000000000000000600052601160045260246000fd5b60007fffffffffffffffffffffffffffffffffffffffffffffffffffffffffffffffff821415611a9a57611a9a611a39565b5060010190565b60008219821115611ab457611ab4611a39565b500190565b600082821015611acb57611acb611a39565b50039056fea2646970667358221220ca9161b1fb67ecff31b1e633e5b3ac22a20c725773047b9b2e499bdfd14197ed64736f6c634300080a0033",
  "linkReferences": {},
  "deployedLinkReferences": {}
}