{
  "_format": "hh-sol-artifact-1",
  "contractName": "Token",
  "sourceName": "contracts/tokens/Token.sol",
  "abi": [
    {
      "inputs": [],
      "stateMutability": "nonpayable",
      "type": "constructor"
    },
    {
      "anonymous": false,
      "inputs": [
        {
          "indexed": true,
          "internalType": "address",
          "name": "owner",
          "type": "address"
        },
        {
          "indexed": true,
          "internalType": "address",
          "name": "spender",
          "type": "address"
        },
        {
          "indexed": false,
          "internalType": "uint256",
          "name": "value",
          "type": "uint256"
        }
      ],
      "name": "Approval",
      "type": "event"
    },
    {
      "anonymous": false,
      "inputs": [
        {
          "indexed": true,
          "internalType": "address",
          "name": "from",
          "type": "address"
        },
        {
          "indexed": true,
          "internalType": "address",
          "name": "to",
          "type": "address"
        },
        {
          "indexed": false,
          "internalType": "uint256",
          "name": "value",
          "type": "uint256"
        }
      ],
      "name": "Transfer",
      "type": "event"
    },
    {
      "inputs": [
        {
          "internalType": "address",
          "name": "owner",
          "type": "address"
        },
        {
          "internalType": "address",
          "name": "spender",
          "type": "address"
        }
      ],
      "name": "allowance",
      "outputs": [
        {
          "internalType": "uint256",
          "name": "",
          "type": "uint256"
        }
      ],
      "stateMutability": "view",
      "type": "function"
    },
    {
      "inputs": [
        {
          "internalType": "address",
          "name": "spender",
          "type": "address"
        },
        {
          "internalType": "uint256",
          "name": "amount",
          "type": "uint256"
        }
      ],
      "name": "approve",
      "outputs": [
        {
          "internalType": "bool",
          "name": "",
          "type": "bool"
        }
      ],
      "stateMutability": "nonpayable",
      "type": "function"
    },
    {
      "inputs": [
        {
          "internalType": "address",
          "name": "account",
          "type": "address"
        }
      ],
      "name": "balanceOf",
      "outputs": [
        {
          "internalType": "uint256",
          "name": "",
          "type": "uint256"
        }
      ],
      "stateMutability": "view",
      "type": "function"
    },
    {
      "inputs": [],
      "name": "decimals",
      "outputs": [
        {
          "internalType": "uint8",
          "name": "",
          "type": "uint8"
        }
      ],
      "stateMutability": "view",
      "type": "function"
    },
    {
      "inputs": [
        {
          "internalType": "address",
          "name": "spender",
          "type": "address"
        },
        {
          "internalType": "uint256",
          "name": "subtractedValue",
          "type": "uint256"
        }
      ],
      "name": "decreaseAllowance",
      "outputs": [
        {
          "internalType": "bool",
          "name": "",
          "type": "bool"
        }
      ],
      "stateMutability": "nonpayable",
      "type": "function"
    },
    {
      "inputs": [],
      "name": "deposit",
      "outputs": [],
      "stateMutability": "payable",
      "type": "function"
    },
    {
      "inputs": [
        {
          "internalType": "address",
          "name": "spender",
          "type": "address"
        },
        {
          "internalType": "uint256",
          "name": "addedValue",
          "type": "uint256"
        }
      ],
      "name": "increaseAllowance",
      "outputs": [
        {
          "internalType": "bool",
          "name": "",
          "type": "bool"
        }
      ],
      "stateMutability": "nonpayable",
      "type": "function"
    },
    {
      "inputs": [
        {
          "internalType": "address",
          "name": "account",
          "type": "address"
        },
        {
          "internalType": "uint256",
          "name": "amount",
          "type": "uint256"
        }
      ],
      "name": "mint",
      "outputs": [],
      "stateMutability": "nonpayable",
      "type": "function"
    },
    {
      "inputs": [],
      "name": "name",
      "outputs": [
        {
          "internalType": "string",
          "name": "",
          "type": "string"
        }
      ],
      "stateMutability": "view",
      "type": "function"
    },
    {
      "inputs": [],
      "name": "symbol",
      "outputs": [
        {
          "internalType": "string",
          "name": "",
          "type": "string"
        }
      ],
      "stateMutability": "view",
      "type": "function"
    },
    {
      "inputs": [],
      "name": "totalSupply",
      "outputs": [
        {
          "internalType": "uint256",
          "name": "",
          "type": "uint256"
        }
      ],
      "stateMutability": "view",
      "type": "function"
    },
    {
      "inputs": [
        {
          "internalType": "address",
          "name": "recipient",
          "type": "address"
        },
        {
          "internalType": "uint256",
          "name": "amount",
          "type": "uint256"
        }
      ],
      "name": "transfer",
      "outputs": [
        {
          "internalType": "bool",
          "name": "",
          "type": "bool"
        }
      ],
      "stateMutability": "nonpayable",
      "type": "function"
    },
    {
      "inputs": [
        {
          "internalType": "address",
          "name": "sender",
          "type": "address"
        },
        {
          "internalType": "address",
          "name": "recipient",
          "type": "address"
        },
        {
          "internalType": "uint256",
          "name": "amount",
          "type": "uint256"
        }
      ],
      "name": "transferFrom",
      "outputs": [
        {
          "internalType": "bool",
          "name": "",
          "type": "bool"
        }
      ],
      "stateMutability": "nonpayable",
      "type": "function"
    },
    {
      "inputs": [
        {
          "internalType": "uint256",
          "name": "amount",
          "type": "uint256"
        }
      ],
      "name": "withdraw",
      "outputs": [],
      "stateMutability": "nonpayable",
      "type": "function"
    },
    {
      "inputs": [
        {
          "internalType": "address",
          "name": "token",
          "type": "address"
        },
        {
          "internalType": "address",
          "name": "account",
          "type": "address"
        },
        {
          "internalType": "uint256",
          "name": "amount",
          "type": "uint256"
        }
      ],
      "name": "withdrawToken",
      "outputs": [],
      "stateMutability": "nonpayable",
      "type": "function"
    }
  ],
  "bytecode": "0x60806040523480156200001157600080fd5b50604080518082019091526005808252642a37b5b2b760d91b6020909201918252620000409160039162000083565b50604080518082019091526005808252642a27a5a2a760d91b60209092019182526200006f9160049162000083565b506005805460ff1916601217905562000166565b828054620000919062000129565b90600052602060002090601f016020900481019282620000b5576000855562000100565b82601f10620000d057805160ff191683800117855562000100565b8280016001018555821562000100579182015b8281111562000100578251825591602001919060010190620000e3565b506200010e92915062000112565b5090565b5b808211156200010e576000815560010162000113565b600181811c908216806200013e57607f821691505b602082108114156200016057634e487b7160e01b600052602260045260246000fd5b50919050565b610d1c80620001766000396000f3fe6080604052600436106100e85760003560e01c8063395093511161008a578063a457c2d711610059578063a457c2d714610276578063a9059cbb14610296578063d0e30db0146102b6578063dd62ed3e146102be57600080fd5b806339509351146101eb57806340c10f191461020b57806370a082311461022b57806395d89b411461026157600080fd5b806318160ddd116100c657806318160ddd1461016a57806323b872dd146101895780632e1a7d4d146101a9578063313ce567146101c957600080fd5b806301e33667146100ed57806306fdde031461010f578063095ea7b31461013a575b600080fd5b3480156100f957600080fd5b5061010d610108366004610a5f565b610304565b005b34801561011b57600080fd5b50610124610396565b6040516101319190610a9b565b60405180910390f35b34801561014657600080fd5b5061015a610155366004610b0e565b610428565b6040519015158152602001610131565b34801561017657600080fd5b506002545b604051908152602001610131565b34801561019557600080fd5b5061015a6101a4366004610a5f565b61043e565b3480156101b557600080fd5b5061010d6101c4366004610b38565b6104a7565b3480156101d557600080fd5b5060055460405160ff9091168152602001610131565b3480156101f757600080fd5b5061015a610206366004610b0e565b610530565b34801561021757600080fd5b5061010d610226366004610b0e565b610566565b34801561023757600080fd5b5061017b610246366004610b51565b6001600160a01b031660009081526020819052604090205490565b34801561026d57600080fd5b50610124610570565b34801561028257600080fd5b5061015a610291366004610b0e565b61057f565b3480156102a257600080fd5b5061015a6102b1366004610b0e565b6105ce565b61010d6105db565b3480156102ca57600080fd5b5061017b6102d9366004610b6c565b6001600160a01b03918216600090815260016020908152604080832093909416825291909152205490565b6040517fa9059cbb0000000000000000000000000000000000000000000000000000000081526001600160a01b0383811660048301526024820183905284169063a9059cbb906044016020604051808303816000875af115801561036c573d6000803e3d6000fd5b505050506040513d601f19601f820116820180604052508101906103909190610b9f565b50505050565b6060600380546103a590610bc1565b80601f01602080910402602001604051908101604052809291908181526020018280546103d190610bc1565b801561041e5780601f106103f35761010080835404028352916020019161041e565b820191906000526020600020905b81548152906001019060200180831161040157829003601f168201915b5050505050905090565b6000610435338484610607565b50600192915050565b600061044b848484610765565b61049d843361049885604051806060016040528060288152602001610c9a602891396001600160a01b038a166000908152600160209081526040808320338452909152902054919061091a565b610607565b5060019392505050565b336000908152602081905260409020548111156104c357600080fd5b336000908152602081905260409020546104dd9082610946565b336000908152602081905260409020556104f43390565b6001600160a01b03166108fc829081150290604051600060405180830381858888f1935050505015801561052c573d6000803e3d6000fd5b5050565b3360008181526001602090815260408083206001600160a01b038716845290915281205490916104359185906104989086610959565b61052c8282610965565b6060600480546103a590610bc1565b6000610435338461049885604051806060016040528060258152602001610cc2602591393360009081526001602090815260408083206001600160a01b038d168452909152902054919061091a565b6000610435338484610765565b336000908152602081905260409020546105f59034610959565b33600090815260208190526040902055565b6001600160a01b0383166106875760405162461bcd60e51b8152602060048201526024808201527f45524332303a20617070726f76652066726f6d20746865207a65726f2061646460448201527f726573730000000000000000000000000000000000000000000000000000000060648201526084015b60405180910390fd5b6001600160a01b0382166107035760405162461bcd60e51b815260206004820152602260248201527f45524332303a20617070726f766520746f20746865207a65726f20616464726560448201527f7373000000000000000000000000000000000000000000000000000000000000606482015260840161067e565b6001600160a01b0383811660008181526001602090815260408083209487168084529482529182902085905590518481527f8c5be1e5ebec7d5bd14f71427d1e84f3dd0314c0f7b2291e5b200ac8c7c3b92591015b60405180910390a3505050565b6001600160a01b0383166107e15760405162461bcd60e51b815260206004820152602560248201527f45524332303a207472616e736665722066726f6d20746865207a65726f20616460448201527f6472657373000000000000000000000000000000000000000000000000000000606482015260840161067e565b6001600160a01b03821661085d5760405162461bcd60e51b815260206004820152602360248201527f45524332303a207472616e7366657220746f20746865207a65726f206164647260448201527f6573730000000000000000000000000000000000000000000000000000000000606482015260840161067e565b61089a81604051806060016040528060268152602001610c74602691396001600160a01b038616600090815260208190526040902054919061091a565b6001600160a01b0380851660009081526020819052604080822093909355908416815220546108c99082610959565b6001600160a01b038381166000818152602081815260409182902094909455518481529092918616917fddf252ad1be2c89b69c2b068fc378daa952ba7f163c4a11628f55a4df523b3ef9101610758565b6000818484111561093e5760405162461bcd60e51b815260040161067e9190610a9b565b505050900390565b60006109528284610c44565b9392505050565b60006109528284610c5b565b6001600160a01b0382166109bb5760405162461bcd60e51b815260206004820152601f60248201527f45524332303a206d696e7420746f20746865207a65726f206164647265737300604482015260640161067e565b6002546109c89082610959565b6002556001600160a01b0382166000908152602081905260409020546109ee9082610959565b6001600160a01b038316600081815260208181526040808320949094559251848152919290917fddf252ad1be2c89b69c2b068fc378daa952ba7f163c4a11628f55a4df523b3ef910160405180910390a35050565b80356001600160a01b0381168114610a5a57600080fd5b919050565b600080600060608486031215610a7457600080fd5b610a7d84610a43565b9250610a8b60208501610a43565b9150604084013590509250925092565b600060208083528351808285015260005b81811015610ac857858101830151858201604001528201610aac565b81811115610ada576000604083870101525b50601f017fffffffffffffffffffffffffffffffffffffffffffffffffffffffffffffffe016929092016040019392505050565b60008060408385031215610b2157600080fd5b610b2a83610a43565b946020939093013593505050565b600060208284031215610b4a57600080fd5b5035919050565b600060208284031215610b6357600080fd5b61095282610a43565b60008060408385031215610b7f57600080fd5b610b8883610a43565b9150610b9660208401610a43565b90509250929050565b600060208284031215610bb157600080fd5b8151801515811461095257600080fd5b600181811c90821680610bd557607f821691505b60208210811415610c0f577f4e487b7100000000000000000000000000000000000000000000000000000000600052602260045260246000fd5b50919050565b7f4e487b7100000000000000000000000000000000000000000000000000000000600052601160045260246000fd5b600082821015610c5657610c56610c15565b500390565b60008219821115610c6e57610c6e610c15565b50019056fe45524332303a207472616e7366657220616d6f756e7420657863656564732062616c616e636545524332303a207472616e7366657220616d6f756e74206578636565647320616c6c6f77616e636545524332303a2064656372656173656420616c6c6f77616e63652062656c6f77207a65726fa2646970667358221220f06c4e051183de4206c74eeaa4f032e6265ad54ee60d5f7e4d3031cc8179174e64736f6c634300080a0033",
  "linkReferences": {},
  "deployedLinkReferences": {}
}