{
  "_format": "hh-sol-artifact-1",
  "contractName": "MintFarm",
  "sourceName": "contracts/core/Farm/MintFarm.sol",
  "abi": [
    {
      "anonymous": false,
      "inputs": [
        {
          "indexed": true,
          "internalType": "address",
          "name": "who",
          "type": "address"
        },
        {
          "indexed": false,
          "internalType": "uint256",
          "name": "amountClaimed",
          "type": "uint256"
        }
      ],
      "name": "Claim",
      "type": "event"
    },
    {
      "anonymous": false,
      "inputs": [
        {
          "indexed": true,
          "internalType": "address",
          "name": "previousOwner",
          "type": "address"
        },
        {
          "indexed": true,
          "internalType": "address",
          "name": "newOwner",
          "type": "address"
        }
      ],
      "name": "OwnershipTransferred",
      "type": "event"
    },
    {
      "anonymous": false,
      "inputs": [
        {
          "indexed": true,
          "internalType": "address",
          "name": "who",
          "type": "address"
        },
        {
          "indexed": false,
          "internalType": "uint256",
          "name": "amountStaked",
          "type": "uint256"
        }
      ],
      "name": "Stake",
      "type": "event"
    },
    {
      "anonymous": false,
      "inputs": [
        {
          "indexed": true,
          "internalType": "address",
          "name": "who",
          "type": "address"
        },
        {
          "indexed": false,
          "internalType": "uint256",
          "name": "amountUnstaked",
          "type": "uint256"
        }
      ],
      "name": "Unstake",
      "type": "event"
    },
    {
      "inputs": [],
      "name": "claim",
      "outputs": [],
      "stateMutability": "nonpayable",
      "type": "function"
    },
    {
      "inputs": [
        {
          "internalType": "address",
          "name": "account",
          "type": "address"
        }
      ],
      "name": "claimable",
      "outputs": [
        {
          "internalType": "uint256",
          "name": "",
          "type": "uint256"
        }
      ],
      "stateMutability": "view",
      "type": "function"
    },
    {
      "inputs": [
        {
          "internalType": "address",
          "name": "",
          "type": "address"
        }
      ],
      "name": "claimableReward",
      "outputs": [
        {
          "internalType": "uint256",
          "name": "",
          "type": "uint256"
        }
      ],
      "stateMutability": "view",
      "type": "function"
    },
    {
      "inputs": [],
      "name": "cumulativeRewardPerToken",
      "outputs": [
        {
          "internalType": "uint256",
          "name": "",
          "type": "uint256"
        }
      ],
      "stateMutability": "view",
      "type": "function"
    },
    {
      "inputs": [
        {
          "internalType": "uint256",
          "name": "amount",
          "type": "uint256"
        }
      ],
      "name": "exit",
      "outputs": [],
      "stateMutability": "nonpayable",
      "type": "function"
    },
    {
      "inputs": [
        {
          "internalType": "contract IDistributor",
          "name": "_rewardDistributor",
          "type": "address"
        },
        {
          "internalType": "contract IERC20",
          "name": "_stakingToken",
          "type": "address"
        }
      ],
      "name": "initialize",
      "outputs": [],
      "stateMutability": "nonpayable",
      "type": "function"
    },
    {
      "inputs": [],
      "name": "owner",
      "outputs": [
        {
          "internalType": "address",
          "name": "",
          "type": "address"
        }
      ],
      "stateMutability": "view",
      "type": "function"
    },
    {
      "inputs": [
        {
          "internalType": "address",
          "name": "",
          "type": "address"
        }
      ],
      "name": "previousCumulatedRewardPerToken",
      "outputs": [
        {
          "internalType": "uint256",
          "name": "",
          "type": "uint256"
        }
      ],
      "stateMutability": "view",
      "type": "function"
    },
    {
      "inputs": [],
      "name": "renounceOwnership",
      "outputs": [],
      "stateMutability": "nonpayable",
      "type": "function"
    },
    {
      "inputs": [],
      "name": "rewardDistributor",
      "outputs": [
        {
          "internalType": "contract IDistributor",
          "name": "",
          "type": "address"
        }
      ],
      "stateMutability": "view",
      "type": "function"
    },
    {
      "inputs": [],
      "name": "rewardToken",
      "outputs": [
        {
          "internalType": "contract IERC20",
          "name": "",
          "type": "address"
        }
      ],
      "stateMutability": "view",
      "type": "function"
    },
    {
      "inputs": [
        {
          "internalType": "uint256",
          "name": "amount",
          "type": "uint256"
        }
      ],
      "name": "stake",
      "outputs": [],
      "stateMutability": "nonpayable",
      "type": "function"
    },
    {
      "inputs": [
        {
          "internalType": "address",
          "name": "",
          "type": "address"
        }
      ],
      "name": "staked",
      "outputs": [
        {
          "internalType": "uint256",
          "name": "",
          "type": "uint256"
        }
      ],
      "stateMutability": "view",
      "type": "function"
    },
    {
      "inputs": [],
      "name": "stakingToken",
      "outputs": [
        {
          "internalType": "contract IERC20",
          "name": "",
          "type": "address"
        }
      ],
      "stateMutability": "view",
      "type": "function"
    },
    {
      "inputs": [],
      "name": "totalClaimedRewards",
      "outputs": [
        {
          "internalType": "uint256",
          "name": "",
          "type": "uint256"
        }
      ],
      "stateMutability": "view",
      "type": "function"
    },
    {
      "inputs": [],
      "name": "totalFarmRewards",
      "outputs": [
        {
          "internalType": "uint256",
          "name": "",
          "type": "uint256"
        }
      ],
      "stateMutability": "view",
      "type": "function"
    },
    {
      "inputs": [],
      "name": "totalStaked",
      "outputs": [
        {
          "internalType": "uint256",
          "name": "",
          "type": "uint256"
        }
      ],
      "stateMutability": "view",
      "type": "function"
    },
    {
      "inputs": [
        {
          "internalType": "address",
          "name": "newOwner",
          "type": "address"
        }
      ],
      "name": "transferOwnership",
      "outputs": [],
      "stateMutability": "nonpayable",
      "type": "function"
    },
    {
      "inputs": [
        {
          "internalType": "uint256",
          "name": "amount",
          "type": "uint256"
        }
      ],
      "name": "unstake",
      "outputs": [],
      "stateMutability": "nonpayable",
      "type": "function"
    }
  ],
  "bytecode": "0x608060405234801561001057600080fd5b5061001a3361001f565b61006f565b600080546001600160a01b038381166001600160a01b0319831681178455604051919092169283917f8be0079c531659141344cd1fd0a4f28419497f9722a3daafe3b4186f6b6457e09190a35050565b6117918061007e6000396000f3fe608060405234801561001057600080fd5b50600436106101515760003560e01c80638da5cb5b116100cd578063e950342511610081578063f2fde38b11610066578063f2fde38b146102a4578063f5fc5076146102b7578063f7c618c1146102c057600080fd5b8063e95034251461027b578063ea0cddfe1461029b57600080fd5b8063a694fc3a116100b2578063a694fc3a1461024c578063acc2166a1461025f578063d578ceab1461027257600080fd5b80638da5cb5b1461021b57806398807d841461022c57600080fd5b80634e71d92d1161012457806372f702f31161010957806372f702f3146101d45780637f8661a1146101ff578063817b1cd21461021257600080fd5b80634e71d92d146101c4578063715018a6146101cc57600080fd5b80632e17de7814610156578063402914f51461016b57806344a0841114610191578063485cc955146101b1575b600080fd5b6101696101643660046115a9565b6102d3565b005b61017e6101793660046115d7565b6105b2565b6040519081526020015b60405180910390f35b61017e61019f3660046115d7565b60076020526000908152604090205481565b6101696101bf3660046115f4565b6106f5565b610169610919565b610169610b6e565b6001546101e7906001600160a01b031681565b6040516001600160a01b039091168152602001610188565b61016961020d3660046115a9565b610bd4565b61017e60045481565b6000546001600160a01b03166101e7565b61017e61023a3660046115d7565b60056020526000908152604090205481565b61016961025a3660046115a9565b610e32565b6003546101e7906001600160a01b031681565b61017e60095481565b61017e6102893660046115d7565b60086020526000908152604090205481565b61017e600a5481565b6101696102b23660046115d7565b6111a2565b61017e60065481565b6002546101e7906001600160a01b031681565b6002546003546040516370a0823160e01b81526001600160a01b03918216600482015260009291909116906370a0823190602401602060405180830381865afa158015610324573d6000803e3d6000fd5b505050506040513d601f19601f82011682018060405250810190610348919061162d565b1180156103c85750600354604080516338af3eed60e01b8152905130926001600160a01b0316916338af3eed9160048083019260209291908290030181865afa158015610399573d6000803e3d6000fd5b505050506040513d601f19601f820116820180604052508101906103bd9190611646565b6001600160a01b0316145b1561043657600360009054906101000a90046001600160a01b03166001600160a01b031663e4fc6b6d6040518163ffffffff1660e01b8152600401600060405180830381600087803b15801561041d57600080fd5b505af1158015610431573d6000803e3d6000fd5b505050505b6009546002546040516370a0823160e01b81523060048201526000926104cb926c0c9f2c9cd04674edea40000000926104c592916001600160a01b0316906370a08231906024015b602060405180830381865afa15801561049b573d6000803e3d6000fd5b505050506040513d601f19601f820116820180604052508101906104bf919061162d565b90611284565b90611297565b905060006104e4600a54836112a390919063ffffffff16565b600a839055600454909150156105195761051561050c600454836112af90919063ffffffff16565b60065490611284565b6006555b336000908152600760205260409020546006546105829161056c916c0c9f2c9cd04674edea400000009161056691610550916112a3565b3360009081526005602052604090205490611297565b906112af565b3360009081526008602052604090205490611284565b336000908152600860209081526040808320939093556006546007909152919020556105ad836112bb565b505050565b6001600160a01b0381166000908152600560205260408120546105eb57506001600160a01b031660009081526008602052604090205490565b6009546002546040516370a0823160e01b8152306004820152600092610637926c0c9f2c9cd04674edea40000000926104c592916001600160a01b0316906370a082319060240161047e565b90506000610650600a54836112a390919063ffffffff16565b9050600061066c61050c600454846112af90919063ffffffff16565b6001600160a01b0386166000908152600760205260409020549091506106ec906106cd906c0c9f2c9cd04674edea4000000090610566906106ae9086906112a3565b6001600160a01b038a1660009081526005602052604090205490611297565b6001600160a01b03871660009081526008602052604090205490611284565b95945050505050565b6000546001600160a01b031633146107545760405162461bcd60e51b815260206004820181905260248201527f4f776e61626c653a2063616c6c6572206973206e6f7420746865206f776e657260448201526064015b60405180910390fd5b600180546001600160a01b0380841673ffffffffffffffffffffffffffffffffffffffff1992831617909255600380549285169290911682179055604080517ff7c618c1000000000000000000000000000000000000000000000000000000008152905163f7c618c1916004808201926020929091908290030181865afa1580156107e3573d6000803e3d6000fd5b505050506040513d601f19601f820116820180604052508101906108079190611646565b6002805473ffffffffffffffffffffffffffffffffffffffff19166001600160a01b03928316179055600354604080516338af3eed60e01b81529051309392909216916338af3eed916004808201926020929091908290030181865afa158015610875573d6000803e3d6000fd5b505050506040513d601f19601f820116820180604052508101906108999190611646565b6001600160a01b0316146109155760405162461bcd60e51b815260206004820152602c60248201527f4d696e744661726d3a204469737472696275746f722062656e6566696369617260448201527f79206973206e6f74207365740000000000000000000000000000000000000000606482015260840161074b565b5050565b6002546003546040516370a0823160e01b81526001600160a01b03918216600482015260009291909116906370a0823190602401602060405180830381865afa15801561096a573d6000803e3d6000fd5b505050506040513d601f19601f8201168201806040525081019061098e919061162d565b118015610a0e5750600354604080516338af3eed60e01b8152905130926001600160a01b0316916338af3eed9160048083019260209291908290030181865afa1580156109df573d6000803e3d6000fd5b505050506040513d601f19601f82011682018060405250810190610a039190611646565b6001600160a01b0316145b15610a7c57600360009054906101000a90046001600160a01b03166001600160a01b031663e4fc6b6d6040518163ffffffff1660e01b8152600401600060405180830381600087803b158015610a6357600080fd5b505af1158015610a77573d6000803e3d6000fd5b505050505b6009546002546040516370a0823160e01b8152306004820152600092610ac8926c0c9f2c9cd04674edea40000000926104c592916001600160a01b0316906370a082319060240161047e565b90506000610ae1600a54836112a390919063ffffffff16565b600a83905560045490915015610b0d57610b0961050c600454836112af90919063ffffffff16565b6006555b33600090815260076020526040902054600654610b449161056c916c0c9f2c9cd04674edea400000009161056691610550916112a3565b3360009081526008602090815260408083209390935560065460079091529190205561091561144c565b6000546001600160a01b03163314610bc85760405162461bcd60e51b815260206004820181905260248201527f4f776e61626c653a2063616c6c6572206973206e6f7420746865206f776e6572604482015260640161074b565b610bd2600061154c565b565b6002546003546040516370a0823160e01b81526001600160a01b03918216600482015260009291909116906370a0823190602401602060405180830381865afa158015610c25573d6000803e3d6000fd5b505050506040513d601f19601f82011682018060405250810190610c49919061162d565b118015610cc95750600354604080516338af3eed60e01b8152905130926001600160a01b0316916338af3eed9160048083019260209291908290030181865afa158015610c9a573d6000803e3d6000fd5b505050506040513d601f19601f82011682018060405250810190610cbe9190611646565b6001600160a01b0316145b15610d3757600360009054906101000a90046001600160a01b03166001600160a01b031663e4fc6b6d6040518163ffffffff1660e01b8152600401600060405180830381600087803b158015610d1e57600080fd5b505af1158015610d32573d6000803e3d6000fd5b505050505b6009546002546040516370a0823160e01b8152306004820152600092610d83926c0c9f2c9cd04674edea40000000926104c592916001600160a01b0316906370a082319060240161047e565b90506000610d9c600a54836112a390919063ffffffff16565b600a83905560045490915015610dc857610dc461050c600454836112af90919063ffffffff16565b6006555b33600090815260076020526040902054600654610dff9161056c916c0c9f2c9cd04674edea400000009161056691610550916112a3565b33600090815260086020908152604080832093909355600654600790915291902055610e2a836112bb565b6105ad61144c565b6002546003546040516370a0823160e01b81526001600160a01b03918216600482015260009291909116906370a0823190602401602060405180830381865afa158015610e83573d6000803e3d6000fd5b505050506040513d601f19601f82011682018060405250810190610ea7919061162d565b118015610f275750600354604080516338af3eed60e01b8152905130926001600160a01b0316916338af3eed9160048083019260209291908290030181865afa158015610ef8573d6000803e3d6000fd5b505050506040513d601f19601f82011682018060405250810190610f1c9190611646565b6001600160a01b0316145b15610f9557600360009054906101000a90046001600160a01b03166001600160a01b031663e4fc6b6d6040518163ffffffff1660e01b8152600401600060405180830381600087803b158015610f7c57600080fd5b505af1158015610f90573d6000803e3d6000fd5b505050505b6009546002546040516370a0823160e01b8152306004820152600092610fe1926c0c9f2c9cd04674edea40000000926104c592916001600160a01b0316906370a082319060240161047e565b90506000610ffa600a54836112a390919063ffffffff16565b600a839055600454909150156110265761102261050c600454836112af90919063ffffffff16565b6006555b3360009081526007602052604090205460065461105d9161056c916c0c9f2c9cd04674edea400000009161056691610550916112a3565b336000908152600860208181526040808420948555600654600783529320929092559052541561108f5761108f61144c565b336000908152600560205260409020546110a99084611284565b336000908152600560205260409020556004546110c69084611284565b60049081556001546040517f23b872dd0000000000000000000000000000000000000000000000000000000081523392810192909252306024830152604482018590526001600160a01b0316906323b872dd906064016020604051808303816000875af115801561113b573d6000803e3d6000fd5b505050506040513d601f19601f8201168201806040525081019061115f9190611663565b61116857600080fd5b60405183815233907febedb8b3c678666e7f36970bc8f57abf6d8fa2e828c0da91ea5b75bf68ed101a9060200160405180910390a2505050565b6000546001600160a01b031633146111fc5760405162461bcd60e51b815260206004820181905260248201527f4f776e61626c653a2063616c6c6572206973206e6f7420746865206f776e6572604482015260640161074b565b6001600160a01b0381166112785760405162461bcd60e51b815260206004820152602660248201527f4f776e61626c653a206e6577206f776e657220697320746865207a65726f206160448201527f6464726573730000000000000000000000000000000000000000000000000000606482015260840161074b565b6112818161154c565b50565b600061129082846116b4565b9392505050565b600061129082846116cc565b60006112908284611709565b60006112908284611720565b336000908152600560205260409020548111156113405760405162461bcd60e51b815260206004820152603e60248201527f4d696e744661726d3a2043616e6e6f7420776974686472617720616d6f756e7460448201527f20626967676572207468616e20617661696c61626c652062616c616e63650000606482015260840161074b565b3360009081526005602052604090205461135a90826112a3565b3360009081526005602052604090205560045461137790826112a3565b60049081556001546040517fa9059cbb0000000000000000000000000000000000000000000000000000000081523392810192909252602482018390526001600160a01b03169063a9059cbb906044016020604051808303816000875af11580156113e6573d6000803e3d6000fd5b505050506040513d601f19601f8201168201806040525081019061140a9190611663565b61141357600080fd5b60405181815233907f85082129d87b2fe11527cb1b3b7a520aeb5aa6913f88a3d8757fe40d1db02fdd906020015b60405180910390a250565b3360009081526008602052604090205460095461146891611284565b60095533600081815260086020526040808220805492905560025490517fa9059cbb00000000000000000000000000000000000000000000000000000000815260048101939093526024830182905290916001600160a01b039091169063a9059cbb906044016020604051808303816000875af11580156114ed573d6000803e3d6000fd5b505050506040513d601f19601f820116820180604052508101906115119190611663565b61151a57600080fd5b60405181815233907f47cee97cb7acd717b3c0aa1435d004cd5b3c8c57d70dbceb4e4458bbd60e39d490602001611441565b600080546001600160a01b0383811673ffffffffffffffffffffffffffffffffffffffff19831681178455604051919092169283917f8be0079c531659141344cd1fd0a4f28419497f9722a3daafe3b4186f6b6457e09190a35050565b6000602082840312156115bb57600080fd5b5035919050565b6001600160a01b038116811461128157600080fd5b6000602082840312156115e957600080fd5b8135611290816115c2565b6000806040838503121561160757600080fd5b8235611612816115c2565b91506020830135611622816115c2565b809150509250929050565b60006020828403121561163f57600080fd5b5051919050565b60006020828403121561165857600080fd5b8151611290816115c2565b60006020828403121561167557600080fd5b8151801515811461129057600080fd5b7f4e487b7100000000000000000000000000000000000000000000000000000000600052601160045260246000fd5b600082198211156116c7576116c7611685565b500190565b6000817fffffffffffffffffffffffffffffffffffffffffffffffffffffffffffffffff048311821515161561170457611704611685565b500290565b60008282101561171b5761171b611685565b500390565b600082611756577f4e487b7100000000000000000000000000000000000000000000000000000000600052601260045260246000fd5b50049056fea26469706673582212202dc13355b0faac44c3217f88e8e2942be4b10640e4d5108e04d41b97b9d684e264736f6c634300080a0033",
  "linkReferences": {},
  "deployedLinkReferences": {}
}