{
  "_format": "hh-sol-artifact-1",
  "contractName": "VM",
  "sourceName": "contracts/weiroll/VM.sol",
  "abi": [
    {
      "inputs": [],
      "stateMutability": "nonpayable",
      "type": "constructor"
    },
    {
      "inputs": [
        {
          "internalType": "bytes32[]",
          "name": "commands",
          "type": "bytes32[]"
        },
        {
          "internalType": "bytes[]",
          "name": "state",
          "type": "bytes[]"
        }
      ],
      "name": "execute",
      "outputs": [
        {
          "internalType": "bytes[]",
          "name": "",
          "type": "bytes[]"
        }
      ],
      "stateMutability": "nonpayable",
      "type": "function"
    }
  ],
  "bytecode": "0x60a060405234801561001057600080fd5b5030608052608051610f1c61002f600039600060730152610f1c6000f3fe608060405234801561001057600080fd5b506004361061002b5760003560e01c8063de792d5f14610030575b600080fd5b61004361003e366004610b0f565b610059565b6040516100509190610c8f565b60405180910390f35b60603073ffffffffffffffffffffffffffffffffffffffff7f000000000000000000000000000000000000000000000000000000000000000016141561009e57600080fd5b600080600080606060005b8881101561043b578989828181106100c3576100c3610d27565b602002919091013596505060d886901c60ff811695506080161561010c578989826100ed81610d53565b93508181106100fe576100fe610d27565b905060200201359350610130565b602886901b79ffffffffffffffffffffffffffffffffffffffffffffffffffff1793505b600385166101b25773ffffffffffffffffffffffffffffffffffffffff861661015a89888761044c565b6040516101679190610d8c565b600060405180830381855af49150503d80600081146101a2576040519150601f19603f3d011682016040523d82523d6000602084013e6101a7565b606091505b5090935091506103ad565b600385166001141561022a5773ffffffffffffffffffffffffffffffffffffffff86166101e089888761044c565b6040516101ed9190610d8c565b6000604051808303816000865af19150503d80600081146101a2576040519150601f19603f3d011682016040523d82523d6000602084013e6101a7565b60038516600214156102a05773ffffffffffffffffffffffffffffffffffffffff861661025889888761044c565b6040516102659190610d8c565b600060405180830381855afa9150503d80600081146101a2576040519150601f19603f3d011682016040523d82523d6000602084013e6101a7565b6003858116141561036057600080898660f81c60ff16815181106102c6576102c6610d27565b6020908102919091018101519081018352905073ffffffffffffffffffffffffffffffffffffffff8816826103038c8b60088b901b60ff1761044c565b6040516103109190610d8c565b60006040518083038185875af1925050503d806000811461034d576040519150601f19603f3d011682016040523d82523d6000602084013e610352565b606091505b5090955093506103ad915050565b60405162461bcd60e51b815260206004820152601060248201527f496e76616c69642063616c6c747970650000000000000000000000000000000060448201526064015b60405180910390fd5b826103fa5760405162461bcd60e51b815260206004820152600b60248201527f43616c6c206661696c656400000000000000000000000000000000000000000060448201526064016103a4565b60408516156104175761041288605888901b84610839565b610429565b61042688605888901b846108e1565b97505b8061043381610d53565b9150506100a9565b5086955050505050505b9392505050565b60606000808281805b60208110156106685786816020811061047057610470610d27565b1a915060ff82141561048157610668565b60808216156105a85760fe8214156104dc5782516104bc57886040516020016104aa9190610c8f565b60405160208183030381529060405292505b82516104c89086610da8565b94506104d5602085610da8565b9350610656565b600089607f8416815181106104f3576104f3610d27565b602002602001015151905060208161050b9190610dc0565b1561057e5760405162461bcd60e51b815260206004820152603660248201527f44796e616d6963207374617465207661726961626c6573206d7573742062652060448201527f61206d756c7469706c65206f662033322062797465730000000000000000000060648201526084016103a4565b610589816020610da8565b6105939087610da8565b95506105a0602086610da8565b945050610656565b88607f8316815181106105bd576105bd610d27565b60200260200101515160201461063b5760405162461bcd60e51b815260206004820152602760248201527f537461746963207374617465207661726961626c6573206d757374206265203360448201527f322062797465730000000000000000000000000000000000000000000000000060648201526084016103a4565b610646602086610da8565b9450610653602085610da8565b93505b8061066081610d53565b915050610455565b50610674846004610da8565b67ffffffffffffffff81111561068c5761068c610a7c565b6040519080825280601f01601f1916602001820160405280156106b6576020820181803683370190505b5094508660208601526000935060005b602081101561082d578681602081106106e1576106e1610d27565b1a915060ff8214156106f25761082d565b60808216156107dd5760fe82141561075e578585016024018490526107328360208861071f886004610da8565b6020885161072d9190610de2565b610a62565b602083516107409190610de2565b61074a9085610da8565b9350610757602086610da8565b945061081b565b600089607f84168151811061077557610775610d27565b602002602001015151905084866024890101526107be8a607f8516815181106107a0576107a0610d27565b60200260200101516000898860046107b89190610da8565b85610a62565b6107c88186610da8565b94506107d5602087610da8565b95505061081b565b600089607f8416815181106107f4576107f4610d27565b602002602001015190506020810151866024890101526020866108179190610da8565b9550505b8061082581610d53565b9150506106c6565b50505050509392505050565b60f882901c60ff81141561084d5750505050565b60008251602061085d9190610da8565b67ffffffffffffffff81111561087557610875610a7c565b6040519080825280601f01601f19166020018201604052801561089f576020820181803683370190505b50858360ff16815181106108b5576108b5610d27565b6020026020010181905290506108d18360008360208751610a62565b8251806020830152505050505050565b606060f883901c60ff8114156108fa5784915050610445565b60808116156109c05760fe81141561092757828060200190518101906109209190610df9565b9450610a59565b6020838101519081146109a25760405162461bcd60e51b815260206004820152602a60248201527f4f6e6c79206f6e652072657475726e2076616c7565207065726d69747465642060448201527f287661726961626c65290000000000000000000000000000000000000000000060648201526084016103a4565b508251601f19016020848101918252607f8316810287010152610a59565b8251602014610a375760405162461bcd60e51b815260206004820152602860248201527f4f6e6c79206f6e652072657475726e2076616c7565207065726d69747465642060448201527f287374617469632900000000000000000000000000000000000000000000000060648201526084016103a4565b8285607f831681518110610a4d57610a4d610d27565b60200260200101819052505b50929392505050565b808260208501018286602089010160045afa505050505050565b634e487b7160e01b600052604160045260246000fd5b604051601f8201601f1916810167ffffffffffffffff81118282101715610abb57610abb610a7c565b604052919050565b600067ffffffffffffffff821115610add57610add610a7c565b5060051b60200190565b600067ffffffffffffffff821115610b0157610b01610a7c565b50601f01601f191660200190565b60008060006040808587031215610b2557600080fd5b843567ffffffffffffffff80821115610b3d57600080fd5b818701915087601f830112610b5157600080fd5b813581811115610b6057600080fd5b602089818360051b8601011115610b7657600080fd5b808401975081965080890135935082841115610b9157600080fd5b838901935089601f850112610ba557600080fd5b83359150610bba610bb583610ac3565b610a92565b82815260059290921b8401810191818101908b841115610bd957600080fd5b8286015b84811015610c4d57803586811115610bf55760008081fd5b8701603f81018e13610c075760008081fd5b84810135610c17610bb582610ae7565b8181528f8b838501011115610c2c5760008081fd5b818b8401888301376000918101870191909152845250918301918301610bdd565b50809750505050505050509250925092565b60005b83811015610c7a578181015183820152602001610c62565b83811115610c89576000848401525b50505050565b6000602080830181845280855180835260408601915060408160051b870101925083870160005b82811015610d1a577fffffffffffffffffffffffffffffffffffffffffffffffffffffffffffffffc088860301845281518051808752610cfb818989018a8501610c5f565b601f01601f191695909501860194509285019290850190600101610cb6565b5092979650505050505050565b634e487b7160e01b600052603260045260246000fd5b634e487b7160e01b600052601160045260246000fd5b60007fffffffffffffffffffffffffffffffffffffffffffffffffffffffffffffffff821415610d8557610d85610d3d565b5060010190565b60008251610d9e818460208701610c5f565b9190910192915050565b60008219821115610dbb57610dbb610d3d565b500190565b600082610ddd57634e487b7160e01b600052601260045260246000fd5b500690565b600082821015610df457610df4610d3d565b500390565b60006020808385031215610e0c57600080fd5b825167ffffffffffffffff80821115610e2457600080fd5b818501915085601f830112610e3857600080fd5b8151610e46610bb582610ac3565b81815260059190911b83018401908481019088831115610e6557600080fd5b8585015b83811015610ed957805185811115610e815760008081fd5b8601603f81018b13610e935760008081fd5b878101516040610ea5610bb583610ae7565b8281528d82848601011115610eba5760008081fd5b610ec9838c8301848701610c5f565b8652505050918601918601610e69565b509897505050505050505056fea2646970667358221220f63a39469fe30fceca43e23ebd0a39df8606cd87506c1a2e033383d79a8dce9964736f6c634300080a0033",
  "linkReferences": {},
  "deployedLinkReferences": {}
}