{
  "_format": "hh-sol-artifact-1",
  "contractName": "NeccFacet",
  "sourceName": "contracts/facets/Necc/NeccFacet.sol",
  "abi": [
    {
      "anonymous": false,
      "inputs": [
        {
          "indexed": true,
          "internalType": "address",
          "name": "owner",
          "type": "address"
        },
        {
          "indexed": true,
          "internalType": "address",
          "name": "spender",
          "type": "address"
        },
        {
          "indexed": false,
          "internalType": "uint256",
          "name": "value",
          "type": "uint256"
        }
      ],
      "name": "Approval",
      "type": "event"
    },
    {
      "anonymous": false,
      "inputs": [
        {
          "indexed": true,
          "internalType": "address",
          "name": "from",
          "type": "address"
        },
        {
          "indexed": true,
          "internalType": "address",
          "name": "to",
          "type": "address"
        },
        {
          "indexed": false,
          "internalType": "uint256",
          "name": "value",
          "type": "uint256"
        }
      ],
      "name": "Transfer",
      "type": "event"
    },
    {
      "inputs": [
        {
          "internalType": "address",
          "name": "_vault",
          "type": "address"
        }
      ],
      "name": "addVault",
      "outputs": [],
      "stateMutability": "nonpayable",
      "type": "function"
    },
    {
      "inputs": [
        {
          "internalType": "address",
          "name": "holder",
          "type": "address"
        },
        {
          "internalType": "address",
          "name": "spender",
          "type": "address"
        }
      ],
      "name": "allowance",
      "outputs": [
        {
          "internalType": "uint256",
          "name": "",
          "type": "uint256"
        }
      ],
      "stateMutability": "view",
      "type": "function"
    },
    {
      "inputs": [
        {
          "internalType": "address",
          "name": "spender",
          "type": "address"
        },
        {
          "internalType": "uint256",
          "name": "amount",
          "type": "uint256"
        }
      ],
      "name": "approve",
      "outputs": [
        {
          "internalType": "bool",
          "name": "",
          "type": "bool"
        }
      ],
      "stateMutability": "nonpayable",
      "type": "function"
    },
    {
      "inputs": [
        {
          "internalType": "address",
          "name": "account",
          "type": "address"
        }
      ],
      "name": "balanceOf",
      "outputs": [
        {
          "internalType": "uint256",
          "name": "",
          "type": "uint256"
        }
      ],
      "stateMutability": "view",
      "type": "function"
    },
    {
      "inputs": [
        {
          "internalType": "uint256",
          "name": "amount",
          "type": "uint256"
        }
      ],
      "name": "burn",
      "outputs": [],
      "stateMutability": "nonpayable",
      "type": "function"
    },
    {
      "inputs": [
        {
          "internalType": "address",
          "name": "_account",
          "type": "address"
        },
        {
          "internalType": "uint256",
          "name": "_amount",
          "type": "uint256"
        }
      ],
      "name": "burnFrom",
      "outputs": [],
      "stateMutability": "nonpayable",
      "type": "function"
    },
    {
      "inputs": [],
      "name": "decimals",
      "outputs": [
        {
          "internalType": "uint8",
          "name": "",
          "type": "uint8"
        }
      ],
      "stateMutability": "view",
      "type": "function"
    },
    {
      "inputs": [
        {
          "internalType": "address",
          "name": "spender",
          "type": "address"
        },
        {
          "internalType": "uint256",
          "name": "amount",
          "type": "uint256"
        }
      ],
      "name": "decreaseAllowance",
      "outputs": [
        {
          "internalType": "bool",
          "name": "",
          "type": "bool"
        }
      ],
      "stateMutability": "nonpayable",
      "type": "function"
    },
    {
      "inputs": [],
      "name": "gov",
      "outputs": [
        {
          "internalType": "address",
          "name": "",
          "type": "address"
        }
      ],
      "stateMutability": "view",
      "type": "function"
    },
    {
      "inputs": [
        {
          "internalType": "address",
          "name": "spender",
          "type": "address"
        },
        {
          "internalType": "uint256",
          "name": "amount",
          "type": "uint256"
        }
      ],
      "name": "increaseAllowance",
      "outputs": [
        {
          "internalType": "bool",
          "name": "",
          "type": "bool"
        }
      ],
      "stateMutability": "nonpayable",
      "type": "function"
    },
    {
      "inputs": [
        {
          "internalType": "address",
          "name": "_vault",
          "type": "address"
        }
      ],
      "name": "initialize",
      "outputs": [],
      "stateMutability": "nonpayable",
      "type": "function"
    },
    {
      "inputs": [
        {
          "internalType": "address",
          "name": "_account",
          "type": "address"
        },
        {
          "internalType": "uint256",
          "name": "_amount",
          "type": "uint256"
        }
      ],
      "name": "mint",
      "outputs": [],
      "stateMutability": "nonpayable",
      "type": "function"
    },
    {
      "inputs": [],
      "name": "name",
      "outputs": [
        {
          "internalType": "string",
          "name": "",
          "type": "string"
        }
      ],
      "stateMutability": "view",
      "type": "function"
    },
    {
      "inputs": [
        {
          "internalType": "address",
          "name": "owner",
          "type": "address"
        }
      ],
      "name": "nonces",
      "outputs": [
        {
          "internalType": "uint256",
          "name": "",
          "type": "uint256"
        }
      ],
      "stateMutability": "view",
      "type": "function"
    },
    {
      "inputs": [
        {
          "internalType": "address",
          "name": "owner",
          "type": "address"
        },
        {
          "internalType": "address",
          "name": "spender",
          "type": "address"
        },
        {
          "internalType": "uint256",
          "name": "amount",
          "type": "uint256"
        },
        {
          "internalType": "uint256",
          "name": "deadline",
          "type": "uint256"
        },
        {
          "internalType": "uint8",
          "name": "v",
          "type": "uint8"
        },
        {
          "internalType": "bytes32",
          "name": "r",
          "type": "bytes32"
        },
        {
          "internalType": "bytes32",
          "name": "s",
          "type": "bytes32"
        }
      ],
      "name": "permit",
      "outputs": [],
      "stateMutability": "nonpayable",
      "type": "function"
    },
    {
      "inputs": [
        {
          "internalType": "address",
          "name": "_vault",
          "type": "address"
        }
      ],
      "name": "removeVault",
      "outputs": [],
      "stateMutability": "nonpayable",
      "type": "function"
    },
    {
      "inputs": [
        {
          "internalType": "address",
          "name": "_newOwner",
          "type": "address"
        }
      ],
      "name": "setGov",
      "outputs": [],
      "stateMutability": "nonpayable",
      "type": "function"
    },
    {
      "inputs": [],
      "name": "symbol",
      "outputs": [
        {
          "internalType": "string",
          "name": "",
          "type": "string"
        }
      ],
      "stateMutability": "view",
      "type": "function"
    },
    {
      "inputs": [],
      "name": "totalSupply",
      "outputs": [
        {
          "internalType": "uint256",
          "name": "",
          "type": "uint256"
        }
      ],
      "stateMutability": "view",
      "type": "function"
    },
    {
      "inputs": [
        {
          "internalType": "address",
          "name": "recipient",
          "type": "address"
        },
        {
          "internalType": "uint256",
          "name": "amount",
          "type": "uint256"
        }
      ],
      "name": "transfer",
      "outputs": [
        {
          "internalType": "bool",
          "name": "",
          "type": "bool"
        }
      ],
      "stateMutability": "nonpayable",
      "type": "function"
    },
    {
      "inputs": [
        {
          "internalType": "address",
          "name": "holder",
          "type": "address"
        },
        {
          "internalType": "address",
          "name": "recipient",
          "type": "address"
        },
        {
          "internalType": "uint256",
          "name": "amount",
          "type": "uint256"
        }
      ],
      "name": "transferFrom",
      "outputs": [
        {
          "internalType": "bool",
          "name": "",
          "type": "bool"
        }
      ],
      "stateMutability": "nonpayable",
      "type": "function"
    },
    {
      "inputs": [
        {
          "internalType": "address",
          "name": "vault",
          "type": "address"
        }
      ],
      "name": "vaults",
      "outputs": [
        {
          "internalType": "bool",
          "name": "",
          "type": "bool"
        }
      ],
      "stateMutability": "view",
      "type": "function"
    }
  ],
  "bytecode": "0x608060405234801561001057600080fd5b50611b33806100206000396000f3fe608060405234801561001057600080fd5b50600436106101825760003560e01c806379cc6790116100d8578063a9059cbb1161008c578063cfad57a211610066578063cfad57a214610333578063d505accf14610346578063dd62ed3e1461035957600080fd5b8063a9059cbb146102fa578063c4d66de81461030d578063ceb68c231461032057600080fd5b806395d89b41116100bd57806395d89b41146102cc578063a457c2d7146102d4578063a622ee7c146102e757600080fd5b806379cc6790146102a65780637ecebe00146102b957600080fd5b8063256b5a021161013a57806340c10f191161011457806340c10f191461026d57806342966c681461028057806370a082311461029357600080fd5b8063256b5a0214610211578063313ce56714610226578063395093511461025a57600080fd5b806312d43a511161016b57806312d43a51146101c857806318160ddd146101e857806323b872dd146101fe57600080fd5b806306fdde0314610187578063095ea7b3146101a5575b600080fd5b61018f6103b1565b60405161019c9190611861565b60405180910390f35b6101b86101b33660046118d2565b610462565b604051901515815260200161019c565b6101d0610478565b6040516001600160a01b03909116815260200161019c565b6101f06104b0565b60405190815260200161019c565b6101b861020c3660046118fc565b6104da565b61022461021f366004611938565b6105bb565b005b7f2967a798b92539a1b9eefe4d8eb931f96b68d27665e276f1bee2d5db7f7430495460405160ff909116815260200161019c565b6101b86102683660046118d2565b6105ea565b61022461027b3660046118d2565b6106da565b61022461028e366004611953565b610714565b6101f06102a1366004611938565b610721565b6102246102b43660046118d2565b610732565b6101f06102c7366004611938565b61073c565b61018f61077f565b6101b86102e23660046118d2565b6107b0565b6101b86102f5366004611938565b61089e565b6101b86103083660046118d2565b6108e3565b61022461031b366004611938565b6108f0565b61022461032e366004611938565b6109d3565b610224610341366004611938565b6109fe565b61022461035436600461196c565b610a07565b6101f06103673660046119df565b6001600160a01b0391821660009081527fc991b2e918acaba8e5721668ed0b1982684e5a8692a621bcd2d7ef326bb015b56020908152604080832093909416825291909152205490565b60607f2967a798b92539a1b9eefe4d8eb931f96b68d27665e276f1bee2d5db7f74304780546103df90611a12565b80601f016020809104026020016040519081016040528092919081815260200182805461040b90611a12565b80156104585780601f1061042d57610100808354040283529160200191610458565b820191906000526020600020905b81548152906001019060200180831161043b57829003601f168201915b5050505050905090565b600061046f338484610bf3565b50600192915050565b60006104ab7fc8fcad8db84d3cc18b4c41d551ea0ee66dd599cde068d998e57d5e09332c1320546001600160a01b031690565b905090565b60006104ab7fc991b2e918acaba8e5721668ed0b1982684e5a8692a621bcd2d7ef326bb015b65490565b6001600160a01b03831660009081527fc991b2e918acaba8e5721668ed0b1982684e5a8692a621bcd2d7ef326bb015b560209081526040808320338452909152812054828110156105985760405162461bcd60e51b815260206004820152602860248201527f45524332303a207472616e7366657220616d6f756e742065786365656473206160448201527f6c6c6f77616e636500000000000000000000000000000000000000000000000060648201526084015b60405180910390fd5b6105a58533858403610bf3565b6105b0858585610d6b565b506001949350505050565b7f5d70cc522e320a58bfb729d340c4fbb499df72d53958e8375b19ef8b8b6c1d656105e68183610fa6565b5050565b3360009081527fc991b2e918acaba8e5721668ed0b1982684e5a8692a621bcd2d7ef326bb015b5602090815260408083206001600160a01b0386168452918290528220548381018111156106a65760405162461bcd60e51b815260206004820152602260248201527f4552433230457874656e6465643a2065786365737369766520616c6c6f77616e60448201527f6365000000000000000000000000000000000000000000000000000000000000606482015260840161058f565b6105b033868684018560008a6001600160a01b03166001600160a01b03168152602001908152602001600020819055610bf3565b7f5d70cc522e320a58bfb729d340c4fbb499df72d53958e8375b19ef8b8b6c1d656107058133610fd3565b61070f838361103b565b505050565b61071e3382611156565b50565b600061072c82611300565b92915050565b6105e68282611328565b60007fbb9c3660b51e1fafa886fcf600a68efa81371bd50359eccba98f0c4fff2cfeb95b6001600160a01b03909216600090815260209290925250604090205490565b60607f2967a798b92539a1b9eefe4d8eb931f96b68d27665e276f1bee2d5db7f74304760010180546103df90611a12565b3360009081527fc991b2e918acaba8e5721668ed0b1982684e5a8692a621bcd2d7ef326bb015b5602090815260408083206001600160a01b0386168452918290528220548084111561086a5760405162461bcd60e51b815260206004820152602560248201527f4552433230457874656e6465643a20696e73756666696369656e7420616c6c6f60448201527f77616e6365000000000000000000000000000000000000000000000000000000606482015260840161058f565b6105b033868684038560008a6001600160a01b03166001600160a01b03168152602001908152602001600020819055610bf3565b6001600160a01b03811660009081527f5d70cc522e320a58bfb729d340c4fbb499df72d53958e8375b19ef8b8b6c1d656020819052604082205460ff165b9392505050565b600061046f338484610d6b565b6108f861133d565b60408051808201909152600481527f4e6563630000000000000000000000000000000000000000000000000000000060208201527f2967a798b92539a1b9eefe4d8eb931f96b68d27665e276f1bee2d5db7f743047907f5d70cc522e320a58bfb729d340c4fbb499df72d53958e8375b19ef8b8b6c1d659061097b908390611347565b60408051808201909152600481527f4e4543430000000000000000000000000000000000000000000000000000000060208201526109ba908390611359565b60028201805460ff1916600917905561070f8184610fa6565b7f5d70cc522e320a58bfb729d340c4fbb499df72d53958e8375b19ef8b8b6c1d656105e6818361136e565b61071e81611398565b83421115610a575760405162461bcd60e51b815260206004820152601d60248201527f45524332305065726d69743a206578706972656420646561646c696e65000000604482015260640161058f565b6001600160a01b03871660009081527fbb9c3660b51e1fafa886fcf600a68efa81371bd50359eccba98f0c4fff2cfeb9602090815260408083205481517f6e71edae12b1b97f4d1f60370fef10105fa2faae0126114a169c64845d6126c981529283018b9052908201899052606082018890526080820181905260a0820187905260c090912091610ae66113f9565b6040517f190100000000000000000000000000000000000000000000000000000000000081526002810182905260228101859052604290209091506000610b2f82898989611441565b90508b6001600160a01b0316816001600160a01b031614610b925760405162461bcd60e51b815260206004820152601e60248201527f45524332305065726d69743a20696e76616c6964207369676e61747572650000604482015260640161058f565b6001600160a01b038c1660009081527fbb9c3660b51e1fafa886fcf600a68efa81371bd50359eccba98f0c4fff2cfeb960205260408120805491610bd583611a95565b9190505550610be58c8c8c610bf3565b505050505050505050505050565b6001600160a01b038316610c6e5760405162461bcd60e51b8152602060048201526024808201527f45524332303a20617070726f76652066726f6d20746865207a65726f2061646460448201527f7265737300000000000000000000000000000000000000000000000000000000606482015260840161058f565b6001600160a01b038216610cea5760405162461bcd60e51b815260206004820152602260248201527f45524332303a20617070726f766520746f20746865207a65726f20616464726560448201527f7373000000000000000000000000000000000000000000000000000000000000606482015260840161058f565b6001600160a01b0383811660008181527fc991b2e918acaba8e5721668ed0b1982684e5a8692a621bcd2d7ef326bb015b5602090815260408083209487168084529482529182902085905590518481527f8c5be1e5ebec7d5bd14f71427d1e84f3dd0314c0f7b2291e5b200ac8c7c3b92591015b60405180910390a3505050565b6001600160a01b038316610de75760405162461bcd60e51b815260206004820152602560248201527f45524332303a207472616e736665722066726f6d20746865207a65726f20616460448201527f6472657373000000000000000000000000000000000000000000000000000000606482015260840161058f565b6001600160a01b038216610e635760405162461bcd60e51b815260206004820152602360248201527f45524332303a207472616e7366657220746f20746865207a65726f206164647260448201527f6573730000000000000000000000000000000000000000000000000000000000606482015260840161058f565b6001600160a01b03831660009081527fc991b2e918acaba8e5721668ed0b1982684e5a8692a621bcd2d7ef326bb015b4602081905260409091205482811015610f145760405162461bcd60e51b815260206004820152602660248201527f45524332303a207472616e7366657220616d6f756e742065786365656473206260448201527f616c616e63650000000000000000000000000000000000000000000000000000606482015260840161058f565b6001600160a01b03808616600090815260208490526040808220868503905591861681529081208054859290610f4b908490611ace565b92505081905550836001600160a01b0316856001600160a01b03167fddf252ad1be2c89b69c2b068fc378daa952ba7f163c4a11628f55a4df523b3ef85604051610f9791815260200190565b60405180910390a35050505050565b610fae61133d565b6001600160a01b0316600090815260209190915260409020805460ff19166001179055565b6001600160a01b03811660009081526020839052604090205460ff166105e65760405162461bcd60e51b815260206004820152601160248201527f4e444f4c3a206f6e6c79207661756c7473000000000000000000000000000000604482015260640161058f565b6001600160a01b0382166110915760405162461bcd60e51b815260206004820152601f60248201527f45524332303a206d696e7420746f20746865207a65726f206164647265737300604482015260640161058f565b7fc991b2e918acaba8e5721668ed0b1982684e5a8692a621bcd2d7ef326bb015b680547fc991b2e918acaba8e5721668ed0b1982684e5a8692a621bcd2d7ef326bb015b49183916000906110e6908490611ace565b90915550506001600160a01b03831660009081526020829052604081208054849290611113908490611ace565b90915550506040518281526001600160a01b038416906000907fddf252ad1be2c89b69c2b068fc378daa952ba7f163c4a11628f55a4df523b3ef90602001610d5e565b6001600160a01b0382166111d25760405162461bcd60e51b815260206004820152602160248201527f45524332303a206275726e2066726f6d20746865207a65726f2061646472657360448201527f7300000000000000000000000000000000000000000000000000000000000000606482015260840161058f565b6001600160a01b03821660009081527fc991b2e918acaba8e5721668ed0b1982684e5a8692a621bcd2d7ef326bb015b46020819052604090912054828110156112835760405162461bcd60e51b815260206004820152602260248201527f45524332303a206275726e20616d6f756e7420657863656564732062616c616e60448201527f6365000000000000000000000000000000000000000000000000000000000000606482015260840161058f565b6001600160a01b038416600090815260208390526040812084830390556002830180548592906112b4908490611ae6565b90915550506040518381526000906001600160a01b038616907fddf252ad1be2c89b69c2b068fc378daa952ba7f163c4a11628f55a4df523b3ef9060200160405180910390a350505050565b60007fc991b2e918acaba8e5721668ed0b1982684e5a8692a621bcd2d7ef326bb015b4610760565b61133282826107b0565b506105e68282611156565b611345611620565b565b805161070f90839060208401906117c8565b805161070f90600184019060208401906117c8565b61137661133d565b6001600160a01b0316600090815260209190915260409020805460ff19169055565b6113a0611620565b7fc8fcad8db84d3cc18b4c41d551ea0ee66dd599cde068d998e57d5e09332c132080547fffffffffffffffffffffffff0000000000000000000000000000000000000000166001600160a01b0392909216919091179055565b4660009081527fbb9c3660b51e1fafa886fcf600a68efa81371bd50359eccba98f0c4fff2cfeba6020526040812054801561143357919050565b61143b6116c2565b91505090565b60007f7fffffffffffffffffffffffffffffff5d576e7357a4501ddfe92f46681b20a08211156114d95760405162461bcd60e51b815260206004820152602260248201527f45434453413a20696e76616c6964207369676e6174757265202773272076616c60448201527f7565000000000000000000000000000000000000000000000000000000000000606482015260840161058f565b8360ff16601b14806114ee57508360ff16601c145b6115605760405162461bcd60e51b815260206004820152602260248201527f45434453413a20696e76616c6964207369676e6174757265202776272076616c60448201527f7565000000000000000000000000000000000000000000000000000000000000606482015260840161058f565b6040805160008082526020820180845288905260ff871692820192909252606081018590526080810184905260019060a0016020604051602081039080840390855afa1580156115b4573d6000803e3d6000fd5b5050604051601f1901519150506001600160a01b0381166116175760405162461bcd60e51b815260206004820152601860248201527f45434453413a20696e76616c6964207369676e61747572650000000000000000604482015260640161058f565b95945050505050565b7fc8fcad8db84d3cc18b4c41d551ea0ee66dd599cde068d998e57d5e09332c131c600401546001600160a01b031633146113455760405162461bcd60e51b815260206004820152602260248201527f4c69624469616d6f6e643a20696e76616c696420636f6e7472616374206f776e60448201527f6572000000000000000000000000000000000000000000000000000000000000606482015260840161058f565b600046817f8b73c3c69bb8fe3d512ecc4cf759cc79239f7b179b0ffacaa9a75d522b39400f6116ef6103b1565b8051602091820120604080518082018252600181527f310000000000000000000000000000000000000000000000000000000000000090840152805192830193909352918101919091527fc89efdaa54c0f20c7adf612882df0950f5a951637e0307cdcb4c672f298b8bc66060820152608081018390523060a082015260c001604051602081830303815290604052805190602001209050806117af7fbb9c3660b51e1fafa886fcf600a68efa81371bd50359eccba98f0c4fff2cfeb990565b6000938452600101602052604090922091909155919050565b8280546117d490611a12565b90600052602060002090601f0160209004810192826117f6576000855561183c565b82601f1061180f57805160ff191683800117855561183c565b8280016001018555821561183c579182015b8281111561183c578251825591602001919060010190611821565b5061184892915061184c565b5090565b5b80821115611848576000815560010161184d565b600060208083528351808285015260005b8181101561188e57858101830151858201604001528201611872565b818111156118a0576000604083870101525b50601f01601f1916929092016040019392505050565b80356001600160a01b03811681146118cd57600080fd5b919050565b600080604083850312156118e557600080fd5b6118ee836118b6565b946020939093013593505050565b60008060006060848603121561191157600080fd5b61191a846118b6565b9250611928602085016118b6565b9150604084013590509250925092565b60006020828403121561194a57600080fd5b6108dc826118b6565b60006020828403121561196557600080fd5b5035919050565b600080600080600080600060e0888a03121561198757600080fd5b611990886118b6565b965061199e602089016118b6565b95506040880135945060608801359350608088013560ff811681146119c257600080fd5b9699959850939692959460a0840135945060c09093013592915050565b600080604083850312156119f257600080fd5b6119fb836118b6565b9150611a09602084016118b6565b90509250929050565b600181811c90821680611a2657607f821691505b60208210811415611a60577f4e487b7100000000000000000000000000000000000000000000000000000000600052602260045260246000fd5b50919050565b7f4e487b7100000000000000000000000000000000000000000000000000000000600052601160045260246000fd5b60007fffffffffffffffffffffffffffffffffffffffffffffffffffffffffffffffff821415611ac757611ac7611a66565b5060010190565b60008219821115611ae157611ae1611a66565b500190565b600082821015611af857611af8611a66565b50039056fea2646970667358221220def0f229ae20017c207c273e93c24dec856f72dbe03a0d7d7561b0ad06e9ef5f64736f6c634300080a0033",
  "linkReferences": {},
  "deployedLinkReferences": {}
}