{
  "_format": "hh-sol-artifact-1",
  "contractName": "DistributorFacet",
  "sourceName": "contracts/facets/Bond/DistributorFacet.sol",
  "abi": [
    {
      "inputs": [],
      "name": "distribute",
      "outputs": [
        {
          "internalType": "bool",
          "name": "",
          "type": "bool"
        }
      ],
      "stateMutability": "nonpayable",
      "type": "function"
    },
    {
      "inputs": [
        {
          "internalType": "uint256",
          "name": "_rate",
          "type": "uint256"
        }
      ],
      "name": "nextRewardAt",
      "outputs": [
        {
          "internalType": "uint256",
          "name": "",
          "type": "uint256"
        }
      ],
      "stateMutability": "view",
      "type": "function"
    },
    {
      "inputs": [
        {
          "internalType": "address",
          "name": "_recipient",
          "type": "address"
        }
      ],
      "name": "nextRewardFor",
      "outputs": [
        {
          "internalType": "uint256",
          "name": "",
          "type": "uint256"
        }
      ],
      "stateMutability": "view",
      "type": "function"
    }
  ],
  "bytecode": "0x608060405234801561001057600080fd5b50610b61806100206000396000f3fe608060405234801561001057600080fd5b50600436106100415760003560e01c806336d33f4414610046578063c9fa8b2a14610076578063e4fc6b6d146100a6575b600080fd5b610060600480360381019061005b91906107d6565b6100c4565b60405161006d919061081c565b60405180910390f35b610090600480360381019061008b9190610863565b6101b9565b60405161009d919061081c565b60405180910390f35b6100ae61027c565b6040516100bb91906108ab565b60405180910390f35b60008060005b6000601101805490508110156101af578373ffffffffffffffffffffffffffffffffffffffff1660006011018281548110610108576101076108c6565b5b906000526020600020906002020160010160009054906101000a900473ffffffffffffffffffffffffffffffffffffffff1673ffffffffffffffffffffffffffffffffffffffff16141561019c5761019961018a60006011018381548110610173576101726108c6565b5b9060005260206000209060020201600001546101b9565b8361049c90919063ffffffff16565b91505b80806101a790610924565b9150506100ca565b5080915050919050565b6000610275620f4240610267846000800160009054906101000a900473ffffffffffffffffffffffffffffffffffffffff1673ffffffffffffffffffffffffffffffffffffffff166318160ddd6040518163ffffffff1660e01b8152600401602060405180830381865afa158015610235573d6000803e3d6000fd5b505050506040513d601f19601f820116820180604052508101906102599190610982565b6104b290919063ffffffff16565b6104c890919063ffffffff16565b9050919050565b60008061028c60006008016104de565b905060006001905060005b8281101561032157426000600f0160008381526020019081526020016000205411610309576102ea6000601701546000600f0160008481526020019081526020016000205461049c90919063ffffffff16565b6000600f0160008381526020019081526020016000208190555061030e565b600091505b808061031990610924565b915050610297565b5080156104945760005b600060110180549050811015610492576000806011018281548110610353576103526108c6565b5b906000526020600020906002020160000154111561047f57600060040160009054906101000a900473ffffffffffffffffffffffffffffffffffffffff1673ffffffffffffffffffffffffffffffffffffffff16636a20de92600060110183815481106103c3576103c26108c6565b5b906000526020600020906002020160010160009054906101000a900473ffffffffffffffffffffffffffffffffffffffff166104266000601101858154811061040f5761040e6108c6565b5b9060005260206000209060020201600001546101b9565b6040518363ffffffff1660e01b81526004016104439291906109be565b600060405180830381600087803b15801561045d57600080fd5b505af1158015610471573d6000803e3d6000fd5b5050505061047e816104f3565b5b808061048a90610924565b91505061032b565b505b809250505090565b600081836104aa91906109e7565b905092915050565b600081836104c09190610a3d565b905092915050565b600081836104d69190610ac6565b905092915050565b60006104ec8260000161074c565b9050919050565b600080601201600083815260200190815260200160002090506000816001015414610748578060000160009054906101000a900460ff16156105f15761056e81600101546000601101848154811061054e5761054d6108c6565b5b90600052602060002090600202016000015461049c90919063ffffffff16565b60006011018381548110610585576105846108c6565b5b9060005260206000209060020201600001819055508060020154600060110183815481106105b6576105b56108c6565b5b906000526020600020906002020160000154106105ec576000806012016000848152602001908152602001600020600101819055505b610747565b80600101546000601101838154811061060d5761060c6108c6565b5b906000526020600020906002020160000154111561069557610664816001015460006011018481548110610644576106436108c6565b5b90600052602060002090600202016000015461075d90919063ffffffff16565b6000601101838154811061067b5761067a6108c6565b5b9060005260206000209060020201600001819055506106c3565b60008060110183815481106106ad576106ac6108c6565b5b9060005260206000209060020201600001819055505b8060020154600060110183815481106106df576106de6108c6565b5b90600052602060002090600202016000015411610746576000806012016000848152602001908152602001600020600101819055508060020154600060110183815481106107305761072f6108c6565b5b9060005260206000209060020201600001819055505b5b5b5050565b600081600001805490509050919050565b6000818361076b9190610af7565b905092915050565b600080fd5b600073ffffffffffffffffffffffffffffffffffffffff82169050919050565b60006107a382610778565b9050919050565b6107b381610798565b81146107be57600080fd5b50565b6000813590506107d0816107aa565b92915050565b6000602082840312156107ec576107eb610773565b5b60006107fa848285016107c1565b91505092915050565b6000819050919050565b61081681610803565b82525050565b6000602082019050610831600083018461080d565b92915050565b61084081610803565b811461084b57600080fd5b50565b60008135905061085d81610837565b92915050565b60006020828403121561087957610878610773565b5b60006108878482850161084e565b91505092915050565b60008115159050919050565b6108a581610890565b82525050565b60006020820190506108c0600083018461089c565b92915050565b7f4e487b7100000000000000000000000000000000000000000000000000000000600052603260045260246000fd5b7f4e487b7100000000000000000000000000000000000000000000000000000000600052601160045260246000fd5b600061092f82610803565b91507fffffffffffffffffffffffffffffffffffffffffffffffffffffffffffffffff821415610962576109616108f5565b5b600182019050919050565b60008151905061097c81610837565b92915050565b60006020828403121561099857610997610773565b5b60006109a68482850161096d565b91505092915050565b6109b881610798565b82525050565b60006040820190506109d360008301856109af565b6109e0602083018461080d565b9392505050565b60006109f282610803565b91506109fd83610803565b9250827fffffffffffffffffffffffffffffffffffffffffffffffffffffffffffffffff03821115610a3257610a316108f5565b5b828201905092915050565b6000610a4882610803565b9150610a5383610803565b9250817fffffffffffffffffffffffffffffffffffffffffffffffffffffffffffffffff0483118215151615610a8c57610a8b6108f5565b5b828202905092915050565b7f4e487b7100000000000000000000000000000000000000000000000000000000600052601260045260246000fd5b6000610ad182610803565b9150610adc83610803565b925082610aec57610aeb610a97565b5b828204905092915050565b6000610b0282610803565b9150610b0d83610803565b925082821015610b2057610b1f6108f5565b5b82820390509291505056fea264697066735822122015bc16a7426f2166754351c1201abc9d3f14894acf4c5403146281bc1dab3c2f64736f6c634300080a0033",
  "linkReferences": {},
  "deployedLinkReferences": {}
}