{
  "_format": "hh-sol-artifact-1",
  "contractName": "DistributorFacet",
  "sourceName": "contracts/facets/Bond/DistributorFacet.sol",
  "abi": [
    {
      "inputs": [],
      "name": "distribute",
      "outputs": [
        {
          "internalType": "bool",
          "name": "",
          "type": "bool"
        }
      ],
      "stateMutability": "nonpayable",
      "type": "function"
    },
    {
      "inputs": [
        {
          "internalType": "uint256",
          "name": "_rate",
          "type": "uint256"
        }
      ],
      "name": "nextRewardAt",
      "outputs": [
        {
          "internalType": "uint256",
          "name": "",
          "type": "uint256"
        }
      ],
      "stateMutability": "view",
      "type": "function"
    },
    {
      "inputs": [
        {
          "internalType": "address",
          "name": "_recipient",
          "type": "address"
        }
      ],
      "name": "nextRewardFor",
      "outputs": [
        {
          "internalType": "uint256",
          "name": "",
          "type": "uint256"
        }
      ],
      "stateMutability": "view",
      "type": "function"
    }
  ],
  "bytecode": "0x608060405234801561001057600080fd5b5061076a806100206000396000f3fe608060405234801561001057600080fd5b50600436106100415760003560e01c806336d33f4414610046578063c9fa8b2a1461006c578063e4fc6b6d1461007f575b600080fd5b610059610054366004610615565b610097565b6040519081526020015b60405180910390f35b61005961007a36600461064b565b61015a565b61008761020d565b6040519015158152602001610063565b60008060005b601154811015610153578373ffffffffffffffffffffffffffffffffffffffff16600060110182815481106100d4576100d4610664565b600091825260209091206001600290920201015473ffffffffffffffffffffffffffffffffffffffff1614156101415761013e6101376000601101838154811061012057610120610664565b90600052602060002090600202016000015461015a565b83906103e7565b91505b8061014b81610690565b91505061009d565b5092915050565b60008054604080517f18160ddd000000000000000000000000000000000000000000000000000000008152905161020792620f42409261020192879273ffffffffffffffffffffffffffffffffffffffff16916318160ddd9160048083019260209291908290030181865afa1580156101d7573d6000803e3d6000fd5b505050506040513d601f19601f820116820180604052508101906101fb91906106ab565b906103fa565b90610406565b92915050565b60008061021a6008610412565b9050600160005b82811015610284576000818152600f6020526040902054421061026d576017546000828152600f6020526040902054610259916103e7565b6000828152600f6020526040902055610272565b600091505b8061027c81610690565b915050610221565b5080156102075760005b6011548110156101535760008060110182815481106102af576102af610664565b90600052602060002090600202016000015411156103d5576004546011805473ffffffffffffffffffffffffffffffffffffffff90921691636a20de929190849081106102fe576102fe610664565b906000526020600020906002020160010160009054906101000a900473ffffffffffffffffffffffffffffffffffffffff166103496000601101858154811061012057610120610664565b6040517fffffffff0000000000000000000000000000000000000000000000000000000060e085901b16815273ffffffffffffffffffffffffffffffffffffffff90921660048301526024820152604401600060405180830381600087803b1580156103b457600080fd5b505af11580156103c8573d6000803e3d6000fd5b505050506103d58161041c565b806103df81610690565b91505061028e565b60006103f382846106c4565b9392505050565b60006103f382846106dc565b60006103f382846106fb565b6000610207825490565b60008181526012602052604090206001810154156104dc57805460ff16156104e05761047381600101546000601101848154811061045c5761045c610664565b6000918252602090912060029091020154906103e7565b601180548490811061048757610487610664565b600091825260209091206002918202019190915581015460118054849081106104b2576104b2610664565b906000526020600020906002020160000154106104dc576000828152601260205260408120600101555b5050565b600181015460118054849081106104f9576104f9610664565b90600052602060002090600202016000015411156105705761054681600101546000601101848154811061052f5761052f610664565b600091825260209091206002909102015490610609565b601180548490811061055a5761055a610664565b6000918252602090912060029091020155610599565b600080601101838154811061058757610587610664565b60009182526020909120600290910201555b600281015460118054849081106105b2576105b2610664565b906000526020600020906002020160000154116104dc57600082815260126020526040812060010155600281015460118054849081106105f4576105f4610664565b60009182526020909120600290910201555050565b60006103f3828461071d565b60006020828403121561062757600080fd5b813573ffffffffffffffffffffffffffffffffffffffff811681146103f357600080fd5b60006020828403121561065d57600080fd5b5035919050565b634e487b7160e01b600052603260045260246000fd5b634e487b7160e01b600052601160045260246000fd5b60006000198214156106a4576106a461067a565b5060010190565b6000602082840312156106bd57600080fd5b5051919050565b600082198211156106d7576106d761067a565b500190565b60008160001904831182151516156106f6576106f661067a565b500290565b60008261071857634e487b7160e01b600052601260045260246000fd5b500490565b60008282101561072f5761072f61067a565b50039056fea2646970667358221220a25a52380729d2d06edc1752feaf11c76354686059fac7a173e138e5ae9bfe4c64736f6c634300080a0033",
  "linkReferences": {},
  "deployedLinkReferences": {}
}