{
  "_format": "hh-sol-artifact-1",
  "contractName": "BondingCalculatorFacet",
  "sourceName": "contracts/facets/Treasury/BondingCalculatorFacet.sol",
  "abi": [
    {
      "inputs": [
        {
          "internalType": "address",
          "name": "_pair",
          "type": "address"
        }
      ],
      "name": "getKValue",
      "outputs": [
        {
          "internalType": "uint256",
          "name": "k_",
          "type": "uint256"
        }
      ],
      "stateMutability": "view",
      "type": "function"
    },
    {
      "inputs": [
        {
          "internalType": "address",
          "name": "_pair",
          "type": "address"
        }
      ],
      "name": "getTotalValue",
      "outputs": [
        {
          "internalType": "uint256",
          "name": "_value",
          "type": "uint256"
        }
      ],
      "stateMutability": "view",
      "type": "function"
    },
    {
      "inputs": [
        {
          "internalType": "address",
          "name": "_pair",
          "type": "address"
        }
      ],
      "name": "markdown",
      "outputs": [
        {
          "internalType": "uint256",
          "name": "",
          "type": "uint256"
        }
      ],
      "stateMutability": "view",
      "type": "function"
    },
    {
      "inputs": [
        {
          "internalType": "address",
          "name": "_pair",
          "type": "address"
        },
        {
          "internalType": "uint256",
          "name": "amount_",
          "type": "uint256"
        }
      ],
      "name": "valuation",
      "outputs": [
        {
          "internalType": "uint256",
          "name": "_value",
          "type": "uint256"
        }
      ],
      "stateMutability": "view",
      "type": "function"
    }
  ],
  "bytecode": "0x608060405234801561001057600080fd5b50611119806100206000396000f3fe608060405234801561001057600080fd5b506004361061004c5760003560e01c806332da80a3146100515780634249719f14610076578063490084ef14610089578063686375491461009c575b600080fd5b61006461005f366004610dcd565b6100af565b60405190815260200160405180910390f35b610064610084366004610dea565b610385565b610064610097366004610dcd565b610421565b6100646100aa366004610dcd565b61071a565b6000806000836001600160a01b0316630902f1ac6040518163ffffffff1660e01b8152600401606060405180830381865afa1580156100f2573d6000803e3d6000fd5b505050506040513d601f19601f820116820180604052508101906101169190610e34565b506dffffffffffffffffffffffffffff1691506dffffffffffffffffffffffffffff16915060008060020160009054906101000a90046001600160a01b03166001600160a01b0316856001600160a01b0316630dfe16816040518163ffffffff1660e01b8152600401602060405180830381865afa15801561019c573d6000803e3d6000fd5b505050506040513d601f19601f820116820180604052508101906101c09190610e84565b6001600160a01b031614156101d65750806102bd565b600254604080517fd21220a700000000000000000000000000000000000000000000000000000000815290516001600160a01b039283169288169163d21220a79160048083019260209291908290030181865afa15801561023b573d6000803e3d6000fd5b505050506040513d601f19601f8201168201806040525081019061025f9190610e84565b6001600160a01b0316146102ba5760405162461bcd60e51b815260206004820152600c60248201527f496e76616c69642070616972000000000000000000000000000000000000000060448201526064015b60405180910390fd5b50815b61037c633b9aca006103766102d18861071a565b600254604080517f313ce5670000000000000000000000000000000000000000000000000000000081529051610376926001600160a01b03169163313ce5679160048083019260209291908290030181865afa158015610335573d6000803e3d6000fd5b505050506040513d601f19601f820116820180604052508101906103599190610ea1565b61036490600a610fb6565b61036f906002610fc5565b8690610738565b906107da565b95945050505050565b6000806103918461071a565b90506000846001600160a01b03166318160ddd6040518163ffffffff1660e01b8152600401602060405180830381865afa1580156103d3573d6000803e3d6000fd5b505050506040513d601f19601f820116820180604052508101906103f79190610fe4565b905061037c670de0b6b3a764000061037661041a610415888661081c565b6109a3565b8590610738565b600080826001600160a01b0316630dfe16816040518163ffffffff1660e01b8152600401602060405180830381865afa158015610462573d6000803e3d6000fd5b505050506040513d601f19601f820116820180604052508101906104869190610e84565b6001600160a01b031663313ce5676040518163ffffffff1660e01b8152600401602060405180830381865afa1580156104c3573d6000803e3d6000fd5b505050506040513d601f19601f820116820180604052508101906104e79190610ea1565b60ff1690506000836001600160a01b031663d21220a76040518163ffffffff1660e01b8152600401602060405180830381865afa15801561052c573d6000803e3d6000fd5b505050506040513d601f19601f820116820180604052508101906105509190610e84565b6001600160a01b031663313ce5676040518163ffffffff1660e01b8152600401602060405180830381865afa15801561058d573d6000803e3d6000fd5b505050506040513d601f19601f820116820180604052508101906105b19190610ea1565b60ff169050600080856001600160a01b0316630902f1ac6040518163ffffffff1660e01b8152600401606060405180830381865afa1580156105f7573d6000803e3d6000fd5b505050506040513d601f19601f8201168201806040525081019061061b9190610e34565b506dffffffffffffffffffffffffffff9182169350169050600061063f85856109d8565b90506000876001600160a01b031663313ce5676040518163ffffffff1660e01b8152600401602060405180830381865afa158015610681573d6000803e3d6000fd5b505050506040513d601f19601f820116820180604052508101906106a59190610ea1565b60ff1690508082106106df5760006106bd8383610a37565b90506106d76106cd82600a610ffd565b6103768787610738565b97505061070f565b60006106eb8284610a37565b905061070b6106fb82600a610ffd565b6107058787610738565b90610738565b9750505b505050505050919050565b6000610732600261070561072d85610421565b610a79565b92915050565b60008261074757506000610732565b60006107538385610fc5565b905082610760858361101f565b146107d35760405162461bcd60e51b815260206004820152602160248201527f536166654d6174683a206d756c7469706c69636174696f6e206f766572666c6f60448201527f770000000000000000000000000000000000000000000000000000000000000060648201526084016102b1565b9392505050565b60006107d383836040518060400160405280601a81526020017f536166654d6174683a206469766973696f6e206279207a65726f000000000000815250610ae4565b604080516020810190915260008152600082116108a15760405162461bcd60e51b815260206004820152602660248201527f4669786564506f696e743a3a6672616374696f6e3a206469766973696f6e206260448201527f79207a65726f000000000000000000000000000000000000000000000000000060648201526084016102b1565b826108bb5750604080516020810190915260008152610732565b71ffffffffffffffffffffffffffffffffffff83116109875760006108e483607086901b61101f565b90507bffffffffffffffffffffffffffffffffffffffffffffffffffffffff8111156109525760405162461bcd60e51b815260206004820152601e60248201527f4669786564506f696e743a3a6672616374696f6e3a206f766572666c6f77000060448201526064016102b1565b6040518060200160405280827bffffffffffffffffffffffffffffffffffffffffffffffffffffffff16815250915050610732565b60006108e4846e01000000000000000000000000000085610b12565b8051600090610732906612725dd1d243ab907bffffffffffffffffffffffffffffffffffffffffffffffffffffffff1661101f565b6000806109e58385611041565b9050838110156107d35760405162461bcd60e51b815260206004820152601b60248201527f536166654d6174683a206164646974696f6e206f766572666c6f77000000000060448201526064016102b1565b60006107d383836040518060400160405280601e81526020017f536166654d6174683a207375627472616374696f6e206f766572666c6f770000815250610bc1565b60006003821115610ad55750806000610a9d610a968360026107da565b60016109d8565b90505b81811015610acf57809150610ac8610ac1610abb85846107da565b836109d8565b60026107da565b9050610aa0565b50919050565b8115610adf575060015b919050565b60008183610b055760405162461bcd60e51b81526004016102b19190611059565b50600061037c848661101f565b6000806000610b218686610bf2565b9150915060008480610b3557610b35611009565b868809905082811115610b5057610b4d6001836110cc565b91505b610b5a81846110cc565b9250848210610bab5760405162461bcd60e51b815260206004820152601a60248201527f46756c6c4d6174683a3a6d756c4469763a206f766572666c6f7700000000000060448201526064016102b1565b610bb6838387610c34565b979650505050505050565b60008184841115610be55760405162461bcd60e51b81526004016102b19190611059565b50600061037c84866110cc565b600080806000198486099050610c088486610fc5565b9250610c1483826110cc565b915082811015610c2c57610c296001836110cc565b91505b509250929050565b600080610c4383196001611041565b83169050610c51818461101f565b9250610c5d818661101f565b945080610c6c81196001611041565b610c76919061101f565b610c81906001611041565b610c8b9085610fc5565b610c959086611041565b94506001610ca38185610fc5565b610cae9060026110cc565b610cb89082610fc5565b9050610cc48185610fc5565b610ccf9060026110cc565b610cd99082610fc5565b9050610ce58185610fc5565b610cf09060026110cc565b610cfa9082610fc5565b9050610d068185610fc5565b610d119060026110cc565b610d1b9082610fc5565b9050610d278185610fc5565b610d329060026110cc565b610d3c9082610fc5565b9050610d488185610fc5565b610d539060026110cc565b610d5d9082610fc5565b9050610d698185610fc5565b610d749060026110cc565b610d7e9082610fc5565b9050610d8a8185610fc5565b610d959060026110cc565b610d9f9082610fc5565b9050610dab8187610fc5565b9695505050505050565b6001600160a01b0381168114610dca57600080fd5b50565b600060208284031215610ddf57600080fd5b81356107d381610db5565b60008060408385031215610dfd57600080fd5b8235610e0881610db5565b946020939093013593505050565b80516dffffffffffffffffffffffffffff81168114610adf57600080fd5b600080600060608486031215610e4957600080fd5b610e5284610e16565b9250610e6060208501610e16565b9150604084015163ffffffff81168114610e7957600080fd5b809150509250925092565b600060208284031215610e9657600080fd5b81516107d381610db5565b600060208284031215610eb357600080fd5b815160ff811681146107d357600080fd5b634e487b7160e01b600052601160045260246000fd5b600181815b80851115610c2c578160001904821115610efb57610efb610ec4565b80851615610f0857918102915b93841c9390800290610edf565b600082610f2457506001610732565b81610f3157506000610732565b8160018114610f475760028114610f5157610f6d565b6001915050610732565b60ff841115610f6257610f62610ec4565b50506001821b610732565b5060208310610133831016604e8410600b8410161715610f90575081810a610732565b610f9a8383610eda565b8060001904821115610fae57610fae610ec4565b029392505050565b60006107d360ff841683610f15565b6000816000190483118215151615610fdf57610fdf610ec4565b500290565b600060208284031215610ff657600080fd5b5051919050565b60006107d38383610f15565b634e487b7160e01b600052601260045260246000fd5b60008261103c57634e487b7160e01b600052601260045260246000fd5b500490565b6000821982111561105457611054610ec4565b500190565b600060208083528351808285015260005b818110156110865785810183015185820160400152820161106a565b81811115611098576000604083870101525b50601f017fffffffffffffffffffffffffffffffffffffffffffffffffffffffffffffffe016929092016040019392505050565b6000828210156110de576110de610ec4565b50039056fea264697066735822122094a0ec104f399082038d77e89a809cf6ef2ae28e23d6da7444bd5c9472f540a064736f6c634300080a0033",
  "linkReferences": {},
  "deployedLinkReferences": {}
}