{
  "_format": "hh-sol-artifact-1",
  "contractName": "BondingCalculatorFacet",
  "sourceName": "contracts/facets/Treasury/BondingCalculatorFacet.sol",
  "abi": [
    {
      "inputs": [
        {
          "internalType": "address",
          "name": "_pair",
          "type": "address"
        }
      ],
      "name": "getKValue",
      "outputs": [
        {
          "internalType": "uint256",
          "name": "k_",
          "type": "uint256"
        }
      ],
      "stateMutability": "view",
      "type": "function"
    },
    {
      "inputs": [
        {
          "internalType": "address",
          "name": "_pair",
          "type": "address"
        }
      ],
      "name": "getTotalValue",
      "outputs": [
        {
          "internalType": "uint256",
          "name": "_value",
          "type": "uint256"
        }
      ],
      "stateMutability": "view",
      "type": "function"
    },
    {
      "inputs": [
        {
          "internalType": "address",
          "name": "_pair",
          "type": "address"
        }
      ],
      "name": "markdown",
      "outputs": [
        {
          "internalType": "uint256",
          "name": "",
          "type": "uint256"
        }
      ],
      "stateMutability": "view",
      "type": "function"
    },
    {
      "inputs": [
        {
          "internalType": "address",
          "name": "_pair",
          "type": "address"
        },
        {
          "internalType": "uint256",
          "name": "amount_",
          "type": "uint256"
        }
      ],
      "name": "valuation",
      "outputs": [
        {
          "internalType": "uint256",
          "name": "_value",
          "type": "uint256"
        }
      ],
      "stateMutability": "view",
      "type": "function"
    }
  ],
  "bytecode": "0x608060405234801561001057600080fd5b50611ae2806100206000396000f3fe608060405234801561001057600080fd5b506004361061004c5760003560e01c806332da80a3146100515780634249719f14610081578063490084ef146100b157806368637549146100e1575b600080fd5b61006b60048036038101906100669190611155565b610111565b604051610078919061119b565b60405180910390f35b61009b600480360381019061009691906111e2565b610477565b6040516100a8919061119b565b60405180910390f35b6100cb60048036038101906100c69190611155565b610540565b6040516100d8919061119b565b60405180910390f35b6100fb60048036038101906100f69190611155565b6108db565b604051610108919061119b565b60405180910390f35b60008060008373ffffffffffffffffffffffffffffffffffffffff16630902f1ac6040518163ffffffff1660e01b8152600401606060405180830381865afa158015610161573d6000803e3d6000fd5b505050506040513d601f19601f8201168201806040525081019061018591906112a4565b506dffffffffffffffffffffffffffff1691506dffffffffffffffffffffffffffff16915060008060020160009054906101000a900473ffffffffffffffffffffffffffffffffffffffff1673ffffffffffffffffffffffffffffffffffffffff168573ffffffffffffffffffffffffffffffffffffffff16630dfe16816040518163ffffffff1660e01b8152600401602060405180830381865afa158015610232573d6000803e3d6000fd5b505050506040513d601f19601f82011682018060405250810190610256919061130c565b73ffffffffffffffffffffffffffffffffffffffff16141561027a5781905061037f565b600060020160009054906101000a900473ffffffffffffffffffffffffffffffffffffffff1673ffffffffffffffffffffffffffffffffffffffff168573ffffffffffffffffffffffffffffffffffffffff1663d21220a76040518163ffffffff1660e01b8152600401602060405180830381865afa158015610301573d6000803e3d6000fd5b505050506040513d601f19601f82011682018060405250810190610325919061130c565b73ffffffffffffffffffffffffffffffffffffffff161461037b576040517f08c379a000000000000000000000000000000000000000000000000000000000815260040161037290611396565b60405180910390fd5b8290505b61046d633b9aca0061045f610393886108db565b610451600060020160009054906101000a900473ffffffffffffffffffffffffffffffffffffffff1673ffffffffffffffffffffffffffffffffffffffff1663313ce5676040518163ffffffff1660e01b8152600401602060405180830381865afa158015610406573d6000803e3d6000fd5b505050506040513d601f19601f8201168201806040525081019061042a91906113ef565b600a610436919061157e565b600261044291906115c9565b8661090890919063ffffffff16565b61098390919063ffffffff16565b61098390919063ffffffff16565b9350505050919050565b600080610483846108db565b905060008473ffffffffffffffffffffffffffffffffffffffff166318160ddd6040518163ffffffff1660e01b8152600401602060405180830381865afa1580156104d2573d6000803e3d6000fd5b505050506040513d601f19601f820116820180604052508101906104f69190611638565b9050610536670de0b6b3a764000061052861051961051488866109cd565b610bd4565b8561090890919063ffffffff16565b61098390919063ffffffff16565b9250505092915050565b6000808273ffffffffffffffffffffffffffffffffffffffff16630dfe16816040518163ffffffff1660e01b8152600401602060405180830381865afa15801561058e573d6000803e3d6000fd5b505050506040513d601f19601f820116820180604052508101906105b2919061130c565b73ffffffffffffffffffffffffffffffffffffffff1663313ce5676040518163ffffffff1660e01b8152600401602060405180830381865afa1580156105fc573d6000803e3d6000fd5b505050506040513d601f19601f8201168201806040525081019061062091906113ef565b60ff16905060008373ffffffffffffffffffffffffffffffffffffffff1663d21220a76040518163ffffffff1660e01b8152600401602060405180830381865afa158015610672573d6000803e3d6000fd5b505050506040513d601f19601f82011682018060405250810190610696919061130c565b73ffffffffffffffffffffffffffffffffffffffff1663313ce5676040518163ffffffff1660e01b8152600401602060405180830381865afa1580156106e0573d6000803e3d6000fd5b505050506040513d601f19601f8201168201806040525081019061070491906113ef565b60ff1690506000808573ffffffffffffffffffffffffffffffffffffffff16630902f1ac6040518163ffffffff1660e01b8152600401606060405180830381865afa158015610757573d6000803e3d6000fd5b505050506040513d601f19601f8201168201806040525081019061077b91906112a4565b506dffffffffffffffffffffffffffff1691506dffffffffffffffffffffffffffff16915060006107b58486610c1290919063ffffffff16565b905060008773ffffffffffffffffffffffffffffffffffffffff1663313ce5676040518163ffffffff1660e01b8152600401602060405180830381865afa158015610804573d6000803e3d6000fd5b505050506040513d601f19601f8201168201806040525081019061082891906113ef565b60ff1690508082106108845760006108498284610c7090919063ffffffff16565b905061087c81600a61085b9190611665565b61086e868861090890919063ffffffff16565b61098390919063ffffffff16565b9750506108d0565b60006108998383610c7090919063ffffffff16565b90506108cc81600a6108ab9190611665565b6108be868861090890919063ffffffff16565b61090890919063ffffffff16565b9750505b505050505050919050565b600061090160026108f36108ee85610540565b610cba565b61090890919063ffffffff16565b9050919050565b60008083141561091b576000905061097d565b6000828461092991906115c9565b905082848261093891906116df565b14610978576040517f08c379a000000000000000000000000000000000000000000000000000000000815260040161096f90611782565b60405180910390fd5b809150505b92915050565b60006109c583836040518060400160405280601a81526020017f536166654d6174683a206469766973696f6e206279207a65726f000000000000815250610d2a565b905092915050565b6109d56110c1565b60008211610a18576040517f08c379a0000000000000000000000000000000000000000000000000000000008152600401610a0f90611814565b60405180910390fd5b6000831415610a5657604051806020016040528060007bffffffffffffffffffffffffffffffffffffffffffffffffffffffff168152509050610bce565b71ffffffffffffffffffffffffffffffffffff80168311610b1e57600082607060ff1685901b610a8691906116df565b90507bffffffffffffffffffffffffffffffffffffffffffffffffffffffff8016811115610ae9576040517f08c379a0000000000000000000000000000000000000000000000000000000008152600401610ae090611880565b60405180910390fd5b6040518060200160405280827bffffffffffffffffffffffffffffffffffffffffffffffffffffffff16815250915050610bce565b6000610b3a846e01000000000000000000000000000085610d8d565b90507bffffffffffffffffffffffffffffffffffffffffffffffffffffffff8016811115610b9d576040517f08c379a0000000000000000000000000000000000000000000000000000000008152600401610b9490611880565b60405180910390fd5b6040518060200160405280827bffffffffffffffffffffffffffffffffffffffffffffffffffffffff168152509150505b92915050565b60006612725dd1d243ab82600001517bffffffffffffffffffffffffffffffffffffffffffffffffffffffff16610c0b91906116df565b9050919050565b6000808284610c2191906118a0565b905083811015610c66576040517f08c379a0000000000000000000000000000000000000000000000000000000008152600401610c5d90611942565b60405180910390fd5b8091505092915050565b6000610cb283836040518060400160405280601e81526020017f536166654d6174683a207375627472616374696f6e206f766572666c6f770000815250610e35565b905092915050565b60006003821115610d17578190506000610cdf610cd8846002610983565b6001610c12565b90505b81811015610d1157809150610d0a610d03610cfd8584610983565b83610c12565b6002610983565b9050610ce2565b50610d25565b60008214610d2457600190505b5b919050565b60008083118290610d71576040517f08c379a0000000000000000000000000000000000000000000000000000000008152600401610d6891906119ea565b60405180910390fd5b5060008385610d8091906116df565b9050809150509392505050565b6000806000610d9c8686610e99565b9150915060008480610db157610db06116b0565b5b868809905082811115610dce57600182610dcb9190611a0c565b91505b8083610dda9190611a0c565b9250848210610e1e576040517f08c379a0000000000000000000000000000000000000000000000000000000008152600401610e1590611a8c565b60405180910390fd5b610e29838387610f0e565b93505050509392505050565b6000838311158290610e7d576040517f08c379a0000000000000000000000000000000000000000000000000000000008152600401610e7491906119ea565b60405180910390fd5b5060008385610e8c9190611a0c565b9050809150509392505050565b60008060007fffffffffffffffffffffffffffffffffffffffffffffffffffffffffffffffff80610ecd57610ecc6116b0565b5b84860990508385610ede91906115c9565b92508281610eec9190611a0c565b915082811015610f0657600182610f039190611a0c565b91505b509250929050565b60008060018319610f1f91906118a0565b831690508083610f2f91906116df565b92508085610f3d91906116df565b945060018160018319610f5091906118a0565b610f5a91906116df565b610f6491906118a0565b84610f6f91906115c9565b85610f7a91906118a0565b94506000600190508084610f8e91906115c9565b6002610f9a9190611a0c565b81610fa591906115c9565b90508084610fb391906115c9565b6002610fbf9190611a0c565b81610fca91906115c9565b90508084610fd891906115c9565b6002610fe49190611a0c565b81610fef91906115c9565b90508084610ffd91906115c9565b60026110099190611a0c565b8161101491906115c9565b9050808461102291906115c9565b600261102e9190611a0c565b8161103991906115c9565b9050808461104791906115c9565b60026110539190611a0c565b8161105e91906115c9565b9050808461106c91906115c9565b60026110789190611a0c565b8161108391906115c9565b9050808461109191906115c9565b600261109d9190611a0c565b816110a891906115c9565b905080866110b691906115c9565b925050509392505050565b604051806020016040528060007bffffffffffffffffffffffffffffffffffffffffffffffffffffffff1681525090565b600080fd5b600073ffffffffffffffffffffffffffffffffffffffff82169050919050565b6000611122826110f7565b9050919050565b61113281611117565b811461113d57600080fd5b50565b60008135905061114f81611129565b92915050565b60006020828403121561116b5761116a6110f2565b5b600061117984828501611140565b91505092915050565b6000819050919050565b61119581611182565b82525050565b60006020820190506111b0600083018461118c565b92915050565b6111bf81611182565b81146111ca57600080fd5b50565b6000813590506111dc816111b6565b92915050565b600080604083850312156111f9576111f86110f2565b5b600061120785828601611140565b9250506020611218858286016111cd565b9150509250929050565b60006dffffffffffffffffffffffffffff82169050919050565b61124581611222565b811461125057600080fd5b50565b6000815190506112628161123c565b92915050565b600063ffffffff82169050919050565b61128181611268565b811461128c57600080fd5b50565b60008151905061129e81611278565b92915050565b6000806000606084860312156112bd576112bc6110f2565b5b60006112cb86828701611253565b93505060206112dc86828701611253565b92505060406112ed8682870161128f565b9150509250925092565b60008151905061130681611129565b92915050565b600060208284031215611322576113216110f2565b5b6000611330848285016112f7565b91505092915050565b600082825260208201905092915050565b7f496e76616c696420706169720000000000000000000000000000000000000000600082015250565b6000611380600c83611339565b915061138b8261134a565b602082019050919050565b600060208201905081810360008301526113af81611373565b9050919050565b600060ff82169050919050565b6113cc816113b6565b81146113d757600080fd5b50565b6000815190506113e9816113c3565b92915050565b600060208284031215611405576114046110f2565b5b6000611413848285016113da565b91505092915050565b7f4e487b7100000000000000000000000000000000000000000000000000000000600052601160045260246000fd5b60008160011c9050919050565b6000808291508390505b60018511156114a25780860481111561147e5761147d61141c565b5b600185161561148d5780820291505b808102905061149b8561144b565b9450611462565b94509492505050565b6000826114bb5760019050611577565b816114c95760009050611577565b81600181146114df57600281146114e957611518565b6001915050611577565b60ff8411156114fb576114fa61141c565b5b8360020a9150848211156115125761151161141c565b5b50611577565b5060208310610133831016604e8410600b841016171561154d5782820a9050838111156115485761154761141c565b5b611577565b61155a8484846001611458565b925090508184048111156115715761157061141c565b5b81810290505b9392505050565b600061158982611182565b9150611594836113b6565b92506115c17fffffffffffffffffffffffffffffffffffffffffffffffffffffffffffffffff84846114ab565b905092915050565b60006115d482611182565b91506115df83611182565b9250817fffffffffffffffffffffffffffffffffffffffffffffffffffffffffffffffff04831182151516156116185761161761141c565b5b828202905092915050565b600081519050611632816111b6565b92915050565b60006020828403121561164e5761164d6110f2565b5b600061165c84828501611623565b91505092915050565b600061167082611182565b915061167b83611182565b92506116a87fffffffffffffffffffffffffffffffffffffffffffffffffffffffffffffffff84846114ab565b905092915050565b7f4e487b7100000000000000000000000000000000000000000000000000000000600052601260045260246000fd5b60006116ea82611182565b91506116f583611182565b925082611705576117046116b0565b5b828204905092915050565b7f536166654d6174683a206d756c7469706c69636174696f6e206f766572666c6f60008201527f7700000000000000000000000000000000000000000000000000000000000000602082015250565b600061176c602183611339565b915061177782611710565b604082019050919050565b6000602082019050818103600083015261179b8161175f565b9050919050565b7f4669786564506f696e743a3a6672616374696f6e3a206469766973696f6e206260008201527f79207a65726f0000000000000000000000000000000000000000000000000000602082015250565b60006117fe602683611339565b9150611809826117a2565b604082019050919050565b6000602082019050818103600083015261182d816117f1565b9050919050565b7f4669786564506f696e743a3a6672616374696f6e3a206f766572666c6f770000600082015250565b600061186a601e83611339565b915061187582611834565b602082019050919050565b600060208201905081810360008301526118998161185d565b9050919050565b60006118ab82611182565b91506118b683611182565b9250827fffffffffffffffffffffffffffffffffffffffffffffffffffffffffffffffff038211156118eb576118ea61141c565b5b828201905092915050565b7f536166654d6174683a206164646974696f6e206f766572666c6f770000000000600082015250565b600061192c601b83611339565b9150611937826118f6565b602082019050919050565b6000602082019050818103600083015261195b8161191f565b9050919050565b600081519050919050565b60005b8381101561198b578082015181840152602081019050611970565b8381111561199a576000848401525b50505050565b6000601f19601f8301169050919050565b60006119bc82611962565b6119c68185611339565b93506119d681856020860161196d565b6119df816119a0565b840191505092915050565b60006020820190508181036000830152611a0481846119b1565b905092915050565b6000611a1782611182565b9150611a2283611182565b925082821015611a3557611a3461141c565b5b828203905092915050565b7f46756c6c4d6174683a3a6d756c4469763a206f766572666c6f77000000000000600082015250565b6000611a76601a83611339565b9150611a8182611a40565b602082019050919050565b60006020820190508181036000830152611aa581611a69565b905091905056fea2646970667358221220433ab002a3555dcc67af0fed01412b395832c8d186f572555936156a86e10b3064736f6c634300080a0033",
  "linkReferences": {},
  "deployedLinkReferences": {}
}