{
  "_format": "hh-sol-artifact-1",
  "contractName": "PriceFeed",
  "sourceName": "contracts/peripherals/PriceFeed.sol",
  "abi": [
    {
      "inputs": [],
      "stateMutability": "nonpayable",
      "type": "constructor"
    },
    {
      "inputs": [],
      "name": "aggregator",
      "outputs": [
        {
          "internalType": "address",
          "name": "",
          "type": "address"
        }
      ],
      "stateMutability": "view",
      "type": "function"
    },
    {
      "inputs": [],
      "name": "answer",
      "outputs": [
        {
          "internalType": "int256",
          "name": "",
          "type": "int256"
        }
      ],
      "stateMutability": "view",
      "type": "function"
    },
    {
      "inputs": [
        {
          "internalType": "uint80",
          "name": "",
          "type": "uint80"
        }
      ],
      "name": "answers",
      "outputs": [
        {
          "internalType": "int256",
          "name": "",
          "type": "int256"
        }
      ],
      "stateMutability": "view",
      "type": "function"
    },
    {
      "inputs": [],
      "name": "decimals",
      "outputs": [
        {
          "internalType": "uint256",
          "name": "",
          "type": "uint256"
        }
      ],
      "stateMutability": "view",
      "type": "function"
    },
    {
      "inputs": [],
      "name": "description",
      "outputs": [
        {
          "internalType": "string",
          "name": "",
          "type": "string"
        }
      ],
      "stateMutability": "view",
      "type": "function"
    },
    {
      "inputs": [
        {
          "internalType": "uint80",
          "name": "_roundId",
          "type": "uint80"
        }
      ],
      "name": "getRoundData",
      "outputs": [
        {
          "internalType": "uint80",
          "name": "",
          "type": "uint80"
        },
        {
          "internalType": "int256",
          "name": "",
          "type": "int256"
        },
        {
          "internalType": "uint256",
          "name": "",
          "type": "uint256"
        },
        {
          "internalType": "uint256",
          "name": "",
          "type": "uint256"
        },
        {
          "internalType": "uint80",
          "name": "",
          "type": "uint80"
        }
      ],
      "stateMutability": "view",
      "type": "function"
    },
    {
      "inputs": [],
      "name": "gov",
      "outputs": [
        {
          "internalType": "address",
          "name": "",
          "type": "address"
        }
      ],
      "stateMutability": "view",
      "type": "function"
    },
    {
      "inputs": [
        {
          "internalType": "address",
          "name": "",
          "type": "address"
        }
      ],
      "name": "isAdmin",
      "outputs": [
        {
          "internalType": "bool",
          "name": "",
          "type": "bool"
        }
      ],
      "stateMutability": "view",
      "type": "function"
    },
    {
      "inputs": [],
      "name": "latestAnswer",
      "outputs": [
        {
          "internalType": "int256",
          "name": "",
          "type": "int256"
        }
      ],
      "stateMutability": "view",
      "type": "function"
    },
    {
      "inputs": [],
      "name": "latestRound",
      "outputs": [
        {
          "internalType": "uint80",
          "name": "",
          "type": "uint80"
        }
      ],
      "stateMutability": "view",
      "type": "function"
    },
    {
      "inputs": [],
      "name": "roundId",
      "outputs": [
        {
          "internalType": "uint80",
          "name": "",
          "type": "uint80"
        }
      ],
      "stateMutability": "view",
      "type": "function"
    },
    {
      "inputs": [
        {
          "internalType": "address",
          "name": "_account",
          "type": "address"
        },
        {
          "internalType": "bool",
          "name": "_isAdmin",
          "type": "bool"
        }
      ],
      "name": "setAdmin",
      "outputs": [],
      "stateMutability": "nonpayable",
      "type": "function"
    },
    {
      "inputs": [
        {
          "internalType": "int256",
          "name": "_answer",
          "type": "int256"
        }
      ],
      "name": "setLatestAnswer",
      "outputs": [],
      "stateMutability": "nonpayable",
      "type": "function"
    }
  ],
  "bytecode": "0x60c06040526009608081905268141c9a58d95199595960ba1b60a090815261002a916002919061006b565b5034801561003757600080fd5b50600580546001600160a01b031916339081179091556000908152600760205260409020805460ff1916600117905561013f565b82805461007790610104565b90600052602060002090601f01602090048101928261009957600085556100df565b82601f106100b257805160ff19168380011785556100df565b828001600101855582156100df579182015b828111156100df5782518255916020019190600101906100c4565b506100eb9291506100ef565b5090565b5b808211156100eb57600081556001016100f0565b600181811c9082168061011857607f821691505b6020821081141561013957634e487b7160e01b600052602260045260246000fd5b50919050565b6107338061014e6000396000f3fe608060405234801561001057600080fd5b50600436106100df5760003560e01c80634c295ca31161008c5780637284e416116100665780637284e4161461021357806385bb7d69146102285780638cd221c9146102315780639a6fc8f51461024757600080fd5b80634c295ca3146101c057806350d25bcd146101e0578063668a0f02146101e857600080fd5b806324d7806c116100bd57806324d7806c14610163578063313ce567146101965780634b0bddd2146101ad57600080fd5b806304ea97b0146100e457806312d43a51146100f9578063245a7bfc14610143575b600080fd5b6100f76100f2366004610515565b6102b0565b005b6005546101199073ffffffffffffffffffffffffffffffffffffffff1681565b60405173ffffffffffffffffffffffffffffffffffffffff90911681526020015b60405180910390f35b6003546101199073ffffffffffffffffffffffffffffffffffffffff1681565b610186610171366004610557565b60076020526000908152604090205460ff1681565b604051901515815260200161013a565b61019f60045481565b60405190815260200161013a565b6100f76101bb366004610579565b6103b0565b61019f6101ce3660046105b5565b60066020526000908152604090205481565b60005461019f565b60015469ffffffffffffffffffff165b60405169ffffffffffffffffffff909116815260200161013a565b61021b610487565b60405161013a91906105e1565b61019f60005481565b6001546101f89069ffffffffffffffffffff1681565b6102796102553660046105b5565b69ffffffffffffffffffff8116600090815260066020526040812054919281908190565b6040805169ffffffffffffffffffff968716815260208101959095528401929092526060830152909116608082015260a00161013a565b60055473ffffffffffffffffffffffffffffffffffffffff1660009081526007602052604090205460ff16610346576040517f08c379a000000000000000000000000000000000000000000000000000000000815260206004820152601460248201527f5072696365466565643a20666f7262696464656e00000000000000000000000060448201526064015b60405180910390fd5b600180546103629169ffffffffffffffffffff90911690610654565b600180547fffffffffffffffffffffffffffffffffffffffffffff000000000000000000001669ffffffffffffffffffff929092169182179055600082815590815260066020526040902055565b60055473ffffffffffffffffffffffffffffffffffffffff163314610431576040517f08c379a000000000000000000000000000000000000000000000000000000000815260206004820152601460248201527f5072696365466565643a20666f7262696464656e000000000000000000000000604482015260640161033d565b73ffffffffffffffffffffffffffffffffffffffff91909116600090815260076020526040902080547fffffffffffffffffffffffffffffffffffffffffffffffffffffffffffffff0016911515919091179055565b60028054610494906106a9565b80601f01602080910402602001604051908101604052809291908181526020018280546104c0906106a9565b801561050d5780601f106104e25761010080835404028352916020019161050d565b820191906000526020600020905b8154815290600101906020018083116104f057829003601f168201915b505050505081565b60006020828403121561052757600080fd5b5035919050565b803573ffffffffffffffffffffffffffffffffffffffff8116811461055257600080fd5b919050565b60006020828403121561056957600080fd5b6105728261052e565b9392505050565b6000806040838503121561058c57600080fd5b6105958361052e565b9150602083013580151581146105aa57600080fd5b809150509250929050565b6000602082840312156105c757600080fd5b813569ffffffffffffffffffff8116811461057257600080fd5b600060208083528351808285015260005b8181101561060e578581018301518582016040015282016105f2565b81811115610620576000604083870101525b50601f017fffffffffffffffffffffffffffffffffffffffffffffffffffffffffffffffe016929092016040019392505050565b600069ffffffffffffffffffff8083168185168083038211156106a0577f4e487b7100000000000000000000000000000000000000000000000000000000600052601160045260246000fd5b01949350505050565b600181811c908216806106bd57607f821691505b602082108114156106f7577f4e487b7100000000000000000000000000000000000000000000000000000000600052602260045260246000fd5b5091905056fea264697066735822122084b1b06285ca415b0d1d1996860078de05059fd5fedf3be87e298e7fd3f8ac2064736f6c634300080a0033",
  "linkReferences": {},
  "deployedLinkReferences": {}
}