{
  "_format": "hh-sol-artifact-1",
  "contractName": "MintDistributor",
  "sourceName": "contracts/core/Farm/MintDistributor.sol",
  "abi": [
    {
      "anonymous": false,
      "inputs": [
        {
          "indexed": false,
          "internalType": "uint256",
          "name": "amount",
          "type": "uint256"
        }
      ],
      "name": "Distributed",
      "type": "event"
    },
    {
      "anonymous": false,
      "inputs": [
        {
          "indexed": true,
          "internalType": "address",
          "name": "previousOwner",
          "type": "address"
        },
        {
          "indexed": true,
          "internalType": "address",
          "name": "newOwner",
          "type": "address"
        }
      ],
      "name": "OwnershipTransferred",
      "type": "event"
    },
    {
      "inputs": [],
      "name": "amount",
      "outputs": [
        {
          "internalType": "uint256",
          "name": "",
          "type": "uint256"
        }
      ],
      "stateMutability": "view",
      "type": "function"
    },
    {
      "inputs": [],
      "name": "beneficiary",
      "outputs": [
        {
          "internalType": "address",
          "name": "",
          "type": "address"
        }
      ],
      "stateMutability": "view",
      "type": "function"
    },
    {
      "inputs": [],
      "name": "distribute",
      "outputs": [],
      "stateMutability": "nonpayable",
      "type": "function"
    },
    {
      "inputs": [],
      "name": "empty",
      "outputs": [],
      "stateMutability": "nonpayable",
      "type": "function"
    },
    {
      "inputs": [],
      "name": "halt",
      "outputs": [],
      "stateMutability": "nonpayable",
      "type": "function"
    },
    {
      "inputs": [],
      "name": "halted",
      "outputs": [
        {
          "internalType": "bool",
          "name": "",
          "type": "bool"
        }
      ],
      "stateMutability": "view",
      "type": "function"
    },
    {
      "inputs": [
        {
          "internalType": "address",
          "name": "_beneficiary",
          "type": "address"
        },
        {
          "internalType": "contract IERC20",
          "name": "_rewardToken",
          "type": "address"
        }
      ],
      "name": "initialize",
      "outputs": [],
      "stateMutability": "nonpayable",
      "type": "function"
    },
    {
      "inputs": [],
      "name": "owner",
      "outputs": [
        {
          "internalType": "address",
          "name": "",
          "type": "address"
        }
      ],
      "stateMutability": "view",
      "type": "function"
    },
    {
      "inputs": [],
      "name": "renounceOwnership",
      "outputs": [],
      "stateMutability": "nonpayable",
      "type": "function"
    },
    {
      "inputs": [],
      "name": "rewardToken",
      "outputs": [
        {
          "internalType": "contract IERC20",
          "name": "",
          "type": "address"
        }
      ],
      "stateMutability": "view",
      "type": "function"
    },
    {
      "inputs": [
        {
          "internalType": "address",
          "name": "newOwner",
          "type": "address"
        }
      ],
      "name": "transferOwnership",
      "outputs": [],
      "stateMutability": "nonpayable",
      "type": "function"
    },
    {
      "inputs": [],
      "name": "unHalt",
      "outputs": [],
      "stateMutability": "nonpayable",
      "type": "function"
    }
  ],
  "bytecode": "0x608060405234801561001057600080fd5b5061001a3361001f565b61006f565b600080546001600160a01b038381166001600160a01b0319831681178455604051919092169283917f8be0079c531659141344cd1fd0a4f28419497f9722a3daafe3b4186f6b6457e09190a35050565b610c6e8061007e6000396000f3fe608060405234801561001057600080fd5b50600436106100d45760003560e01c8063aa8c217c11610081578063f2a75fe41161005b578063f2a75fe414610183578063f2fde38b1461018b578063f7c618c11461019e57600080fd5b8063aa8c217c14610147578063b9b8af0b1461015e578063e4fc6b6d1461017b57600080fd5b8063715018a6116100b2578063715018a61461012657806376865eea1461012e5780638da5cb5b1461013657600080fd5b806338af3eed146100d9578063485cc955146101095780635ed7ca5b1461011e575b600080fd5b6002546100ec906001600160a01b031681565b6040516001600160a01b0390911681526020015b60405180910390f35b61011c610117366004610b0a565b6101b1565b005b61011c6102ba565b61011c610323565b61011c610389565b6000546001600160a01b03166100ec565b61015060035481565b604051908152602001610100565b60045461016b9060ff1681565b6040519015158152602001610100565b61011c6103ef565b61011c610537565b61011c610199366004610b43565b61061e565b6001546100ec906001600160a01b031681565b6000546001600160a01b031633146102105760405162461bcd60e51b815260206004820181905260248201527f4f776e61626c653a2063616c6c6572206973206e6f7420746865206f776e657260448201526064015b60405180910390fd5b600280546001600160a01b038481167fffffffffffffffffffffffff0000000000000000000000000000000000000000928316179092556001805492841692909116821790556040516370a0823160e01b81523060048201526370a0823190602401602060405180830381865afa15801561028f573d6000803e3d6000fd5b505050506040513d601f19601f820116820180604052508101906102b39190610b60565b6003555050565b6000546001600160a01b031633146103145760405162461bcd60e51b815260206004820181905260248201527f4f776e61626c653a2063616c6c6572206973206e6f7420746865206f776e65726044820152606401610207565b6004805460ff19166001179055565b6000546001600160a01b0316331461037d5760405162461bcd60e51b815260206004820181905260248201527f4f776e61626c653a2063616c6c6572206973206e6f7420746865206f776e65726044820152606401610207565b6103876000610700565b565b6000546001600160a01b031633146103e35760405162461bcd60e51b815260206004820181905260248201527f4f776e61626c653a2063616c6c6572206973206e6f7420746865206f776e65726044820152606401610207565b6004805460ff19169055565b6103f7610768565b6103ff6107e8565b6001546040516370a0823160e01b81523060048201526000916001600160a01b0316906370a0823190602401602060405180830381865afa158015610448573d6000803e3d6000fd5b505050506040513d601f19601f8201168201806040525081019061046c9190610b60565b6001546002546040517fa9059cbb0000000000000000000000000000000000000000000000000000000081526001600160a01b03918216600482015260248101849052929350169063a9059cbb906044016020604051808303816000875af11580156104dc573d6000803e3d6000fd5b505050506040513d601f19601f820116820180604052508101906105009190610b79565b506040518181527fddc9c30275a04c48091f24199f9c405765de34d979d6847f5b9798a57232d2e59060200160405180910390a150565b6000546001600160a01b031633146105915760405162461bcd60e51b815260206004820181905260248201527f4f776e61626c653a2063616c6c6572206973206e6f7420746865206f776e65726044820152606401610207565b6001546040516370a0823160e01b81523060048201526106169133916001600160a01b03909116906370a0823190602401602060405180830381865afa1580156105df573d6000803e3d6000fd5b505050506040513d601f19601f820116820180604052508101906106039190610b60565b6001546001600160a01b031691906107fa565b6103876102ba565b6000546001600160a01b031633146106785760405162461bcd60e51b815260206004820181905260248201527f4f776e61626c653a2063616c6c6572206973206e6f7420746865206f776e65726044820152606401610207565b6001600160a01b0381166106f45760405162461bcd60e51b815260206004820152602660248201527f4f776e61626c653a206e6577206f776e657220697320746865207a65726f206160448201527f64647265737300000000000000000000000000000000000000000000000000006064820152608401610207565b6106fd81610700565b50565b600080546001600160a01b038381167fffffffffffffffffffffffff0000000000000000000000000000000000000000831681178455604051919092169283917f8be0079c531659141344cd1fd0a4f28419497f9722a3daafe3b4186f6b6457e09190a35050565b6002546001600160a01b031633146103875760405162461bcd60e51b815260206004820152603960248201527f4172626974726172794469737472696275746f723a204f6e6c792062656e656660448201527f6963696172792063616e207265636569766520746f6b656e73000000000000006064820152608401610207565b60045460ff1615156001141561038757565b604080516001600160a01b038416602482015260448082018490528251808303909101815260649091019091526020810180517bffffffffffffffffffffffffffffffffffffffffffffffffffffffff167fa9059cbb0000000000000000000000000000000000000000000000000000000017905261087a90849061087f565b505050565b60006108d4826040518060400160405280602081526020017f5361666545524332303a206c6f772d6c6576656c2063616c6c206661696c6564815250856001600160a01b03166109649092919063ffffffff16565b80519091501561087a57808060200190518101906108f29190610b79565b61087a5760405162461bcd60e51b815260206004820152602a60248201527f5361666545524332303a204552433230206f7065726174696f6e20646964206e60448201527f6f742073756363656564000000000000000000000000000000000000000000006064820152608401610207565b6060610973848460008561097d565b90505b9392505050565b6060824710156109f55760405162461bcd60e51b815260206004820152602660248201527f416464726573733a20696e73756666696369656e742062616c616e636520666f60448201527f722063616c6c00000000000000000000000000000000000000000000000000006064820152608401610207565b843b610a435760405162461bcd60e51b815260206004820152601d60248201527f416464726573733a2063616c6c20746f206e6f6e2d636f6e74726163740000006044820152606401610207565b600080866001600160a01b03168587604051610a5f9190610bcb565b60006040518083038185875af1925050503d8060008114610a9c576040519150601f19603f3d011682016040523d82523d6000602084013e610aa1565b606091505b5091509150610ab1828286610abc565b979650505050505050565b60608315610acb575081610976565b825115610adb5782518084602001fd5b8160405162461bcd60e51b81526004016102079190610be7565b6001600160a01b03811681146106fd57600080fd5b60008060408385031215610b1d57600080fd5b8235610b2881610af5565b91506020830135610b3881610af5565b809150509250929050565b600060208284031215610b5557600080fd5b813561097681610af5565b600060208284031215610b7257600080fd5b5051919050565b600060208284031215610b8b57600080fd5b8151801515811461097657600080fd5b60005b83811015610bb6578181015183820152602001610b9e565b83811115610bc5576000848401525b50505050565b60008251610bdd818460208701610b9b565b9190910192915050565b6020815260008251806020840152610c06816040850160208701610b9b565b601f017fffffffffffffffffffffffffffffffffffffffffffffffffffffffffffffffe016919091016040019291505056fea26469706673582212204fcef6fe4f9980e7b7aafec4151e4a8dd29202b14539e4a0c5bd7954dc42cb8a64736f6c634300080a0033",
  "linkReferences": {},
  "deployedLinkReferences": {}
}