{
  "_format": "hh-sol-artifact-1",
  "contractName": "StakingFacet",
  "sourceName": "contracts/facets/Bond/StakingFacet.sol",
  "abi": [
    {
      "inputs": [
        {
          "internalType": "address",
          "name": "_recipient",
          "type": "address"
        }
      ],
      "name": "claim",
      "outputs": [],
      "stateMutability": "nonpayable",
      "type": "function"
    },
    {
      "inputs": [],
      "name": "contractBalance",
      "outputs": [
        {
          "internalType": "uint256",
          "name": "",
          "type": "uint256"
        }
      ],
      "stateMutability": "view",
      "type": "function"
    },
    {
      "inputs": [],
      "name": "epoch",
      "outputs": [
        {
          "components": [
            {
              "internalType": "uint256",
              "name": "number",
              "type": "uint256"
            },
            {
              "internalType": "uint256",
              "name": "distribute",
              "type": "uint256"
            },
            {
              "internalType": "uint256",
              "name": "length",
              "type": "uint256"
            },
            {
              "internalType": "uint256",
              "name": "endTime",
              "type": "uint256"
            }
          ],
          "internalType": "struct LibBondStorage.Epoch",
          "name": "",
          "type": "tuple"
        }
      ],
      "stateMutability": "view",
      "type": "function"
    },
    {
      "inputs": [],
      "name": "forfeit",
      "outputs": [],
      "stateMutability": "nonpayable",
      "type": "function"
    },
    {
      "inputs": [],
      "name": "index",
      "outputs": [
        {
          "internalType": "uint256",
          "name": "",
          "type": "uint256"
        }
      ],
      "stateMutability": "view",
      "type": "function"
    },
    {
      "inputs": [],
      "name": "rebase",
      "outputs": [],
      "stateMutability": "nonpayable",
      "type": "function"
    },
    {
      "inputs": [
        {
          "internalType": "uint256",
          "name": "_amount",
          "type": "uint256"
        },
        {
          "internalType": "address",
          "name": "_recipient",
          "type": "address"
        }
      ],
      "name": "stake",
      "outputs": [
        {
          "internalType": "bool",
          "name": "",
          "type": "bool"
        }
      ],
      "stateMutability": "nonpayable",
      "type": "function"
    },
    {
      "inputs": [],
      "name": "supplyInWarmup",
      "outputs": [
        {
          "internalType": "uint256",
          "name": "",
          "type": "uint256"
        }
      ],
      "stateMutability": "view",
      "type": "function"
    },
    {
      "inputs": [],
      "name": "totalStaked",
      "outputs": [
        {
          "internalType": "uint256",
          "name": "",
          "type": "uint256"
        }
      ],
      "stateMutability": "view",
      "type": "function"
    },
    {
      "inputs": [
        {
          "internalType": "uint256",
          "name": "_amount",
          "type": "uint256"
        },
        {
          "internalType": "address",
          "name": "_recipient",
          "type": "address"
        }
      ],
      "name": "unstake",
      "outputs": [
        {
          "internalType": "uint256",
          "name": "amount_",
          "type": "uint256"
        }
      ],
      "stateMutability": "nonpayable",
      "type": "function"
    },
    {
      "inputs": [
        {
          "internalType": "address",
          "name": "_recipient",
          "type": "address"
        }
      ],
      "name": "warmupInfo",
      "outputs": [
        {
          "components": [
            {
              "internalType": "uint256",
              "name": "deposit",
              "type": "uint256"
            },
            {
              "internalType": "uint256",
              "name": "gons",
              "type": "uint256"
            },
            {
              "internalType": "uint256",
              "name": "expiry",
              "type": "uint256"
            },
            {
              "internalType": "bool",
              "name": "lock",
              "type": "bool"
            }
          ],
          "internalType": "struct LibBondStorage.Claim",
          "name": "",
          "type": "tuple"
        }
      ],
      "stateMutability": "view",
      "type": "function"
    }
  ],
  "bytecode": "0x608060405234801561001057600080fd5b506112e7806100206000396000f3fe608060405234801561001057600080fd5b50600436106100c95760003560e01c8063817b1cd211610081578063900cf0cf1161005b578063900cf0cf14610194578063af14052c146101cf578063f3d86e4a146101d757600080fd5b8063817b1cd2146101715780638381e182146101795780638b7afe2e1461018c57600080fd5b80632986c0e5116100b25780632986c0e5146100fe5780636746f4c2146101065780637acb77571461014e57600080fd5b80631e83409a146100ce57806320138641146100e3575b600080fd5b6100e16100dc36600461111d565b6101df565b005b6100eb6103c3565b6040519081526020015b60405180910390f35b6100eb610454565b61011961011436600461111d565b6104b7565b6040516100f5919081518152602080830151908201526040808301519082015260609182015115159181019190915260800190565b61016161015c366004611138565b610537565b60405190151581526020016100f5565b6100eb6107bf565b6100eb610187366004611138565b610822565b6100eb610948565b61019c610992565b6040516100f591908151815260208083015190820152604080830151908201526060918201519181019190915260800190565b6100e16109ea565b6100e1610b4f565b6001600160a01b0381166000908152601b602090815260409182902082516080810184528154815260018201549281019290925260028101549282019290925260039091015460ff161515606082018190526102b8576001600160a01b03821633146102b85760405162461bcd60e51b815260206004820152602660248201527f45787465726e616c20636c61696d7320666f72206163636f756e74206172652060448201527f6c6f636b6564000000000000000000000000000000000000000000000000000060648201526084015b60405180910390fd5b6040810151601354108015906102d15750604081015115155b156103bf576001600160a01b0382166000908152601b6020908152604082208281556001810183905560028101929092556003909101805460ff19169055810151601e5461031e91610be1565b601e5560015460208201516040517f7965d56d0000000000000000000000000000000000000000000000000000000081526103bd9285926001600160a01b0390911691637965d56d916103779160040190815260200190565b602060405180830381865afa158015610394573d6000803e3d6000fd5b505050506040513d601f19601f820116820180604052508101906103b89190611164565b610bf4565b505b5050565b600154601e546040517f7965d56d00000000000000000000000000000000000000000000000000000000815260048101919091526000916001600160a01b031690637965d56d906024015b602060405180830381865afa15801561042b573d6000803e3d6000fd5b505050506040513d601f19601f8201168201806040525081019061044f9190611164565b905090565b600154604080517f2986c0e500000000000000000000000000000000000000000000000000000000815290516000926001600160a01b031691632986c0e59160048083019260209291908290030181865afa15801561042b573d6000803e3d6000fd5b6104e460405180608001604052806000815260200160008152602001600081526020016000151581525090565b506001600160a01b03166000908152601b602090815260409182902082516080810184528154815260018201549281019290925260028101549282019290925260039091015460ff161515606082015290565b60008054610550906001600160a01b0316333086610d81565b601a54610567576105618284610bf4565b506107b5565b6001600160a01b0382166000908152601b602090815260409182902082516080810184528154815260018201549281019290925260028101549282019290925260039091015460ff1615801560608301526106045760405162461bcd60e51b815260206004820152601f60248201527f4465706f7369747320666f72206163636f756e7420617265206c6f636b65640060448201526064016102af565b60408051608081019091528151819061061d9087610e38565b81526001546040517f1bd39674000000000000000000000000000000000000000000000000000000008152600481018890526020909201916106b8916001600160a01b031690631bd3967490602401602060405180830381865afa158015610689573d6000803e3d6000fd5b505050506040513d601f19601f820116820180604052508101906106ad9190611164565b602085015190610e38565b8152601a546013546020909201916106cf91610e38565b8152600060209182018190526001600160a01b038681168252601b835260409182902084518155928401516001808501919091558483015160028501556060909401516003909301805460ff191693151593909317909255915491517f1bd39674000000000000000000000000000000000000000000000000000000008152600481018790526107b09290911690631bd3967490602401602060405180830381865afa158015610783573d6000803e3d6000fd5b505050506040513d601f19601f820116820180604052508101906107a79190611164565b601e5490610e38565b601e55505b5060015b92915050565b600154604080517f9358928b00000000000000000000000000000000000000000000000000000000815290516000926001600160a01b031691639358928b9160048083019260209291908290030181865afa15801561042b573d6000803e3d6000fd5b8161082b6109ea565b6002546040517f9dc29fac000000000000000000000000000000000000000000000000000000008152336004820152602481018590526001600160a01b0390911690639dc29fac90604401600060405180830381600087803b15801561089057600080fd5b505af11580156108a4573d6000803e3d6000fd5b50506002546040517fa8248768000000000000000000000000000000000000000000000000000000008152600481018590526001600160a01b03909116925063a82487689150602401602060405180830381865afa15801561090a573d6000803e3d6000fd5b505050506040513d601f19601f8201168201806040525081019061092e9190611164565b6000549091506107b9906001600160a01b03168383610e44565b600080546040517f70a082310000000000000000000000000000000000000000000000000000000081523060048201526001600160a01b03909116906370a082319060240161040e565b6109bd6040518060800160405280600081526020016000815260200160008152602001600081525090565b50604080516080810182526013548152601454602082015260155491810191909152601654606082015290565b6016544210610b4d576001546014546013546040517f058ecdb4000000000000000000000000000000000000000000000000000000008152600481019290925260248201526001600160a01b039091169063058ecdb4906044016020604051808303816000875af1158015610a63573d6000803e3d6000fd5b505050506040513d601f19601f82011682018060405250810190610a879190611164565b50601554601654610a9791610e38565b60165560138054906000610aaa836111ac565b9190505550306001600160a01b031663e4fc6b6d6040518163ffffffff1660e01b81526004016020604051808303816000875af1158015610aef573d6000803e3d6000fd5b505050506040513d601f19601f82011682018060405250810190610b139190611164565b50610b1c6107bf565b610b24610948565b11610b30576000601455565b610b49610b3b6107bf565b610b43610948565b90610be1565b6014555b565b336000818152601b602081815260408084208151608081018352815481526001820180548286019081526002840180549584019590955260038401805460ff81161515606086015299895296909552918690559085905593905560ff1990931690559051601e54610bbf91610be1565b601e558051600054610bde916001600160a01b03909116903390610e44565b50565b6000610bed82846111e5565b9392505050565b6002546040517f66a5236c000000000000000000000000000000000000000000000000000000008152600481018390526000916001600160a01b0316906340c10f1990859083906366a5236c90602401602060405180830381865afa158015610c61573d6000803e3d6000fd5b505050506040513d601f19601f82011682018060405250810190610c859190611164565b6040517fffffffff0000000000000000000000000000000000000000000000000000000060e085901b1681526001600160a01b0390921660048301526024820152604401600060405180830381600087803b158015610ce357600080fd5b505af1158015610cf7573d6000803e3d6000fd5b50506002546040517f66a5236c000000000000000000000000000000000000000000000000000000008152600481018690526001600160a01b0390911692506366a5236c9150602401602060405180830381865afa158015610d5d573d6000803e3d6000fd5b505050506040513d601f19601f82011682018060405250810190610bed9190611164565b6040516001600160a01b0380851660248301528316604482015260648101829052610e329085907f23b872dd00000000000000000000000000000000000000000000000000000000906084015b60408051601f198184030181529190526020810180517bffffffffffffffffffffffffffffffffffffffffffffffffffffffff167fffffffff0000000000000000000000000000000000000000000000000000000090931692909217909152610e8d565b50505050565b6000610bed82846111fc565b6040516001600160a01b0383166024820152604481018290526103bd9084907fa9059cbb0000000000000000000000000000000000000000000000000000000090606401610dce565b6000610ee2826040518060400160405280602081526020017f5361666545524332303a206c6f772d6c6576656c2063616c6c206661696c6564815250856001600160a01b0316610f729092919063ffffffff16565b8051909150156103bd5780806020019051810190610f009190611214565b6103bd5760405162461bcd60e51b815260206004820152602a60248201527f5361666545524332303a204552433230206f7065726174696f6e20646964206e60448201527f6f7420737563636565640000000000000000000000000000000000000000000060648201526084016102af565b6060610f818484600085610f89565b949350505050565b6060824710156110015760405162461bcd60e51b815260206004820152602660248201527f416464726573733a20696e73756666696369656e742062616c616e636520666f60448201527f722063616c6c000000000000000000000000000000000000000000000000000060648201526084016102af565b843b61104f5760405162461bcd60e51b815260206004820152601d60248201527f416464726573733a2063616c6c20746f206e6f6e2d636f6e747261637400000060448201526064016102af565b600080866001600160a01b0316858760405161106b9190611262565b60006040518083038185875af1925050503d80600081146110a8576040519150601f19603f3d011682016040523d82523d6000602084013e6110ad565b606091505b50915091506110bd8282866110c8565b979650505050505050565b606083156110d7575081610bed565b8251156110e75782518084602001fd5b8160405162461bcd60e51b81526004016102af919061127e565b80356001600160a01b038116811461111857600080fd5b919050565b60006020828403121561112f57600080fd5b610bed82611101565b6000806040838503121561114b57600080fd5b8235915061115b60208401611101565b90509250929050565b60006020828403121561117657600080fd5b5051919050565b7f4e487b7100000000000000000000000000000000000000000000000000000000600052601160045260246000fd5b60007fffffffffffffffffffffffffffffffffffffffffffffffffffffffffffffffff8214156111de576111de61117d565b5060010190565b6000828210156111f7576111f761117d565b500390565b6000821982111561120f5761120f61117d565b500190565b60006020828403121561122657600080fd5b81518015158114610bed57600080fd5b60005b83811015611251578181015183820152602001611239565b83811115610e325750506000910152565b60008251611274818460208701611236565b9190910192915050565b602081526000825180602084015261129d816040850160208701611236565b601f01601f1916919091016040019291505056fea264697066735822122083193d488b9161f181323b448fd3b2b27cd7c42247861dac267dc6604d40b7ad64736f6c634300080a0033",
  "linkReferences": {},
  "deployedLinkReferences": {}
}