{
  "_format": "hh-sol-artifact-1",
  "contractName": "StakingFacet",
  "sourceName": "contracts/facets/Bond/StakingFacet.sol",
  "abi": [
    {
      "inputs": [
        {
          "internalType": "address",
          "name": "_recipient",
          "type": "address"
        }
      ],
      "name": "claim",
      "outputs": [],
      "stateMutability": "nonpayable",
      "type": "function"
    },
    {
      "inputs": [],
      "name": "contractBalance",
      "outputs": [
        {
          "internalType": "uint256",
          "name": "",
          "type": "uint256"
        }
      ],
      "stateMutability": "view",
      "type": "function"
    },
    {
      "inputs": [],
      "name": "epoch",
      "outputs": [
        {
          "components": [
            {
              "internalType": "uint256",
              "name": "number",
              "type": "uint256"
            },
            {
              "internalType": "uint256",
              "name": "distribute",
              "type": "uint256"
            },
            {
              "internalType": "uint256",
              "name": "length",
              "type": "uint256"
            },
            {
              "internalType": "uint256",
              "name": "endTime",
              "type": "uint256"
            }
          ],
          "internalType": "struct LibBondStorage.Epoch",
          "name": "",
          "type": "tuple"
        }
      ],
      "stateMutability": "view",
      "type": "function"
    },
    {
      "inputs": [],
      "name": "forfeit",
      "outputs": [],
      "stateMutability": "nonpayable",
      "type": "function"
    },
    {
      "inputs": [],
      "name": "index",
      "outputs": [
        {
          "internalType": "uint256",
          "name": "",
          "type": "uint256"
        }
      ],
      "stateMutability": "view",
      "type": "function"
    },
    {
      "inputs": [],
      "name": "rebase",
      "outputs": [],
      "stateMutability": "nonpayable",
      "type": "function"
    },
    {
      "inputs": [
        {
          "internalType": "uint256",
          "name": "_amount",
          "type": "uint256"
        },
        {
          "internalType": "address",
          "name": "_recipient",
          "type": "address"
        }
      ],
      "name": "stake",
      "outputs": [
        {
          "internalType": "bool",
          "name": "",
          "type": "bool"
        }
      ],
      "stateMutability": "nonpayable",
      "type": "function"
    },
    {
      "inputs": [],
      "name": "supplyInWarmup",
      "outputs": [
        {
          "internalType": "uint256",
          "name": "",
          "type": "uint256"
        }
      ],
      "stateMutability": "view",
      "type": "function"
    },
    {
      "inputs": [],
      "name": "totalStaked",
      "outputs": [
        {
          "internalType": "uint256",
          "name": "",
          "type": "uint256"
        }
      ],
      "stateMutability": "view",
      "type": "function"
    },
    {
      "inputs": [
        {
          "internalType": "uint256",
          "name": "_amount",
          "type": "uint256"
        },
        {
          "internalType": "address",
          "name": "_recipient",
          "type": "address"
        }
      ],
      "name": "unstake",
      "outputs": [
        {
          "internalType": "uint256",
          "name": "amount_",
          "type": "uint256"
        }
      ],
      "stateMutability": "nonpayable",
      "type": "function"
    },
    {
      "inputs": [
        {
          "internalType": "address",
          "name": "_recipient",
          "type": "address"
        }
      ],
      "name": "warmupInfo",
      "outputs": [
        {
          "components": [
            {
              "internalType": "uint256",
              "name": "deposit",
              "type": "uint256"
            },
            {
              "internalType": "uint256",
              "name": "gons",
              "type": "uint256"
            },
            {
              "internalType": "uint256",
              "name": "expiry",
              "type": "uint256"
            },
            {
              "internalType": "bool",
              "name": "lock",
              "type": "bool"
            }
          ],
          "internalType": "struct LibBondStorage.Claim",
          "name": "",
          "type": "tuple"
        }
      ],
      "stateMutability": "view",
      "type": "function"
    }
  ],
  "bytecode": "0x608060405234801561001057600080fd5b50611eb8806100206000396000f3fe608060405234801561001057600080fd5b50600436106100a95760003560e01c8063817b1cd211610071578063817b1cd2146101665780638381e182146101845780638b7afe2e146101b4578063900cf0cf146101d2578063af14052c146101f0578063f3d86e4a146101fa576100a9565b80631e83409a146100ae57806320138641146100ca5780632986c0e5146100e85780636746f4c2146101065780637acb775714610136575b600080fd5b6100c860048036038101906100c3919061168a565b610204565b005b6100d2610473565b6040516100df91906116d0565b60405180910390f35b6100f061051d565b6040516100fd91906116d0565b60405180910390f35b610120600480360381019061011b919061168a565b6105b7565b60405161012d919061176a565b60405180910390f35b610150600480360381019061014b91906117b1565b61064c565b60405161015d9190611800565b60405180910390f35b61016e6109ed565b60405161017b91906116d0565b60405180910390f35b61019e600480360381019061019991906117b1565b610a87565b6040516101ab91906116d0565b60405180910390f35b6101bc610c1c565b6040516101c991906116d0565b60405180910390f35b6101da610cc1565b6040516101e79190611870565b60405180910390f35b6101f8610d06565b005b610202610ee0565b005b600080601b0160008373ffffffffffffffffffffffffffffffffffffffff1673ffffffffffffffffffffffffffffffffffffffff1681526020019081526020016000206040518060800160405290816000820154815260200160018201548152602001600282015481526020016003820160009054906101000a900460ff16151515158152505090508060600151610305573373ffffffffffffffffffffffffffffffffffffffff168273ffffffffffffffffffffffffffffffffffffffff1614610304576040517f08c379a00000000000000000000000000000000000000000000000000000000081526004016102fb9061190e565b60405180910390fd5b5b80604001516000601301600001541015801561032657506000816040015114155b1561046f576000601b0160008373ffffffffffffffffffffffffffffffffffffffff1673ffffffffffffffffffffffffffffffffffffffff168152602001908152602001600020600080820160009055600182016000905560028201600090556003820160006101000a81549060ff021916905550506103b881602001516000601e015461105590919063ffffffff16565b6000601e018190555061046d82600060010160009054906101000a900473ffffffffffffffffffffffffffffffffffffffff1673ffffffffffffffffffffffffffffffffffffffff16637965d56d84602001516040518263ffffffff1660e01b815260040161042791906116d0565b602060405180830381865afa158015610444573d6000803e3d6000fd5b505050506040513d601f19601f820116820180604052508101906104689190611943565b61106b565b505b5050565b60008060010160009054906101000a900473ffffffffffffffffffffffffffffffffffffffff1673ffffffffffffffffffffffffffffffffffffffff16637965d56d6000601e01546040518263ffffffff1660e01b81526004016104d791906116d0565b602060405180830381865afa1580156104f4573d6000803e3d6000fd5b505050506040513d601f19601f820116820180604052508101906105189190611943565b905090565b60008060010160009054906101000a900473ffffffffffffffffffffffffffffffffffffffff1673ffffffffffffffffffffffffffffffffffffffff16632986c0e56040518163ffffffff1660e01b8152600401602060405180830381865afa15801561058e573d6000803e3d6000fd5b505050506040513d601f19601f820116820180604052508101906105b29190611943565b905090565b6105bf6115d5565b6000601b0160008373ffffffffffffffffffffffffffffffffffffffff1673ffffffffffffffffffffffffffffffffffffffff1681526020019081526020016000206040518060800160405290816000820154815260200160018201548152602001600282015481526020016003820160009054906101000a900460ff1615151515815250509050919050565b6000610656610d06565b6106a73330856000800160009054906101000a900473ffffffffffffffffffffffffffffffffffffffff1673ffffffffffffffffffffffffffffffffffffffff16611243909392919063ffffffff16565b600080601a015414156106c4576106be828461106b565b506109e3565b600080601b0160008473ffffffffffffffffffffffffffffffffffffffff1673ffffffffffffffffffffffffffffffffffffffff1681526020019081526020016000206040518060800160405290816000820154815260200160018201548152602001600282015481526020016003820160009054906101000a900460ff1615151515815250509050806060015115610792576040517f08c379a0000000000000000000000000000000000000000000000000000000008152600401610789906119bc565b60405180910390fd5b60405180608001604052806107b48684600001516112cc90919063ffffffff16565b815260200161086e600060010160009054906101000a900473ffffffffffffffffffffffffffffffffffffffff1673ffffffffffffffffffffffffffffffffffffffff16631bd39674886040518263ffffffff1660e01b815260040161081a91906116d0565b602060405180830381865afa158015610837573d6000803e3d6000fd5b505050506040513d601f19601f8201168201806040525081019061085b9190611943565b84602001516112cc90919063ffffffff16565b81526020016108936000601a01546000601301600001546112cc90919063ffffffff16565b8152602001600015158152506000601b0160008573ffffffffffffffffffffffffffffffffffffffff1673ffffffffffffffffffffffffffffffffffffffff16815260200190815260200160002060008201518160000155602082015181600101556040820151816002015560608201518160030160006101000a81548160ff0219169083151502179055509050506109d8600060010160009054906101000a900473ffffffffffffffffffffffffffffffffffffffff1673ffffffffffffffffffffffffffffffffffffffff16631bd39674866040518263ffffffff1660e01b815260040161098391906116d0565b602060405180830381865afa1580156109a0573d6000803e3d6000fd5b505050506040513d601f19601f820116820180604052508101906109c49190611943565b6000601e01546112cc90919063ffffffff16565b6000601e0181905550505b6001905092915050565b60008060010160009054906101000a900473ffffffffffffffffffffffffffffffffffffffff1673ffffffffffffffffffffffffffffffffffffffff16639358928b6040518163ffffffff1660e01b8152600401602060405180830381865afa158015610a5e573d6000803e3d6000fd5b505050506040513d601f19601f82011682018060405250810190610a829190611943565b905090565b6000829050610a94610d06565b600060020160009054906101000a900473ffffffffffffffffffffffffffffffffffffffff1673ffffffffffffffffffffffffffffffffffffffff16639dc29fac33856040518363ffffffff1660e01b8152600401610af49291906119eb565b600060405180830381600087803b158015610b0e57600080fd5b505af1158015610b22573d6000803e3d6000fd5b50505050600060020160009054906101000a900473ffffffffffffffffffffffffffffffffffffffff1673ffffffffffffffffffffffffffffffffffffffff1663a8248768826040518263ffffffff1660e01b8152600401610b8491906116d0565b602060405180830381865afa158015610ba1573d6000803e3d6000fd5b505050506040513d601f19601f82011682018060405250810190610bc59190611943565b9050610c1682826000800160009054906101000a900473ffffffffffffffffffffffffffffffffffffffff1673ffffffffffffffffffffffffffffffffffffffff166112e29092919063ffffffff16565b92915050565b60008060000160009054906101000a900473ffffffffffffffffffffffffffffffffffffffff1673ffffffffffffffffffffffffffffffffffffffff166370a08231306040518263ffffffff1660e01b8152600401610c7b9190611a14565b602060405180830381865afa158015610c98573d6000803e3d6000fd5b505050506040513d601f19601f82011682018060405250810190610cbc9190611943565b905090565b610cc96115ff565b6000601301604051806080016040529081600082015481526020016001820154815260200160028201548152602001600382015481525050905090565b4260006013016003015411610ede57600060010160009054906101000a900473ffffffffffffffffffffffffffffffffffffffff1673ffffffffffffffffffffffffffffffffffffffff1663058ecdb46000601301600101546000601301600001546040518363ffffffff1660e01b8152600401610d85929190611a2f565b6020604051808303816000875af1158015610da4573d6000803e3d6000fd5b505050506040513d601f19601f82011682018060405250810190610dc89190611943565b50610dec6000601301600201546000601301600301546112cc90919063ffffffff16565b60006013016003018190555060006013016000016000815480929190610e1190611a87565b91905055503073ffffffffffffffffffffffffffffffffffffffff1663e4fc6b6d6040518163ffffffff1660e01b81526004016020604051808303816000875af1158015610e63573d6000803e3d6000fd5b505050506040513d601f19601f82011682018060405250810190610e879190611943565b50610e906109ed565b610e98610c1c565b11610eaf5760008060130160010181905550610edd565b610ed0610eba6109ed565b610ec2610c1c565b61105590919063ffffffff16565b6000601301600101819055505b5b565b600080601b0160003373ffffffffffffffffffffffffffffffffffffffff1673ffffffffffffffffffffffffffffffffffffffff1681526020019081526020016000206040518060800160405290816000820154815260200160018201548152602001600282015481526020016003820160009054906101000a900460ff16151515158152505090506000601b0160003373ffffffffffffffffffffffffffffffffffffffff1673ffffffffffffffffffffffffffffffffffffffff168152602001908152602001600020600080820160009055600182016000905560028201600090556003820160006101000a81549060ff02191690555050610ff681602001516000601e015461105590919063ffffffff16565b6000601e01819055506110523382600001516000800160009054906101000a900473ffffffffffffffffffffffffffffffffffffffff1673ffffffffffffffffffffffffffffffffffffffff166112e29092919063ffffffff16565b50565b600081836110639190611ad0565b905092915050565b60008060020160009054906101000a900473ffffffffffffffffffffffffffffffffffffffff1673ffffffffffffffffffffffffffffffffffffffff166340c10f1984600060020160009054906101000a900473ffffffffffffffffffffffffffffffffffffffff1673ffffffffffffffffffffffffffffffffffffffff166366a5236c866040518263ffffffff1660e01b815260040161110c91906116d0565b602060405180830381865afa158015611129573d6000803e3d6000fd5b505050506040513d601f19601f8201168201806040525081019061114d9190611943565b6040518363ffffffff1660e01b815260040161116a9291906119eb565b600060405180830381600087803b15801561118457600080fd5b505af1158015611198573d6000803e3d6000fd5b50505050600060020160009054906101000a900473ffffffffffffffffffffffffffffffffffffffff1673ffffffffffffffffffffffffffffffffffffffff166366a5236c836040518263ffffffff1660e01b81526004016111fa91906116d0565b602060405180830381865afa158015611217573d6000803e3d6000fd5b505050506040513d601f19601f8201168201806040525081019061123b9190611943565b905092915050565b6112c6846323b872dd60e01b85858560405160240161126493929190611b04565b604051602081830303815290604052907bffffffffffffffffffffffffffffffffffffffffffffffffffffffff19166020820180517bffffffffffffffffffffffffffffffffffffffffffffffffffffffff8381831617835250505050611368565b50505050565b600081836112da9190611b3b565b905092915050565b6113638363a9059cbb60e01b84846040516024016113019291906119eb565b604051602081830303815290604052907bffffffffffffffffffffffffffffffffffffffffffffffffffffffff19166020820180517bffffffffffffffffffffffffffffffffffffffffffffffffffffffff8381831617835250505050611368565b505050565b60006113ca826040518060400160405280602081526020017f5361666545524332303a206c6f772d6c6576656c2063616c6c206661696c65648152508573ffffffffffffffffffffffffffffffffffffffff1661142f9092919063ffffffff16565b905060008151111561142a57808060200190518101906113ea9190611bbd565b611429576040517f08c379a000000000000000000000000000000000000000000000000000000000815260040161142090611c5c565b60405180910390fd5b5b505050565b606061143e8484600085611447565b90509392505050565b60608247101561148c576040517f08c379a000000000000000000000000000000000000000000000000000000000815260040161148390611cee565b60405180910390fd5b6114958561155b565b6114d4576040517f08c379a00000000000000000000000000000000000000000000000000000000081526004016114cb90611d5a565b60405180910390fd5b6000808673ffffffffffffffffffffffffffffffffffffffff1685876040516114fd9190611df4565b60006040518083038185875af1925050503d806000811461153a576040519150601f19603f3d011682016040523d82523d6000602084013e61153f565b606091505b509150915061154f82828661156e565b92505050949350505050565b600080823b905060008111915050919050565b6060831561157e578290506115ce565b6000835111156115915782518084602001fd5b816040517f08c379a00000000000000000000000000000000000000000000000000000000081526004016115c59190611e60565b60405180910390fd5b9392505050565b60405180608001604052806000815260200160008152602001600081526020016000151581525090565b6040518060800160405280600081526020016000815260200160008152602001600081525090565b600080fd5b600073ffffffffffffffffffffffffffffffffffffffff82169050919050565b60006116578261162c565b9050919050565b6116678161164c565b811461167257600080fd5b50565b6000813590506116848161165e565b92915050565b6000602082840312156116a05761169f611627565b5b60006116ae84828501611675565b91505092915050565b6000819050919050565b6116ca816116b7565b82525050565b60006020820190506116e560008301846116c1565b92915050565b6116f4816116b7565b82525050565b60008115159050919050565b61170f816116fa565b82525050565b60808201600082015161172b60008501826116eb565b50602082015161173e60208501826116eb565b50604082015161175160408501826116eb565b5060608201516117646060850182611706565b50505050565b600060808201905061177f6000830184611715565b92915050565b61178e816116b7565b811461179957600080fd5b50565b6000813590506117ab81611785565b92915050565b600080604083850312156117c8576117c7611627565b5b60006117d68582860161179c565b92505060206117e785828601611675565b9150509250929050565b6117fa816116fa565b82525050565b600060208201905061181560008301846117f1565b92915050565b60808201600082015161183160008501826116eb565b50602082015161184460208501826116eb565b50604082015161185760408501826116eb565b50606082015161186a60608501826116eb565b50505050565b6000608082019050611885600083018461181b565b92915050565b600082825260208201905092915050565b7f45787465726e616c20636c61696d7320666f72206163636f756e74206172652060008201527f6c6f636b65640000000000000000000000000000000000000000000000000000602082015250565b60006118f860268361188b565b91506119038261189c565b604082019050919050565b60006020820190508181036000830152611927816118eb565b9050919050565b60008151905061193d81611785565b92915050565b60006020828403121561195957611958611627565b5b60006119678482850161192e565b91505092915050565b7f4465706f7369747320666f72206163636f756e7420617265206c6f636b656400600082015250565b60006119a6601f8361188b565b91506119b182611970565b602082019050919050565b600060208201905081810360008301526119d581611999565b9050919050565b6119e58161164c565b82525050565b6000604082019050611a0060008301856119dc565b611a0d60208301846116c1565b9392505050565b6000602082019050611a2960008301846119dc565b92915050565b6000604082019050611a4460008301856116c1565b611a5160208301846116c1565b9392505050565b7f4e487b7100000000000000000000000000000000000000000000000000000000600052601160045260246000fd5b6000611a92826116b7565b91507fffffffffffffffffffffffffffffffffffffffffffffffffffffffffffffffff821415611ac557611ac4611a58565b5b600182019050919050565b6000611adb826116b7565b9150611ae6836116b7565b925082821015611af957611af8611a58565b5b828203905092915050565b6000606082019050611b1960008301866119dc565b611b2660208301856119dc565b611b3360408301846116c1565b949350505050565b6000611b46826116b7565b9150611b51836116b7565b9250827fffffffffffffffffffffffffffffffffffffffffffffffffffffffffffffffff03821115611b8657611b85611a58565b5b828201905092915050565b611b9a816116fa565b8114611ba557600080fd5b50565b600081519050611bb781611b91565b92915050565b600060208284031215611bd357611bd2611627565b5b6000611be184828501611ba8565b91505092915050565b7f5361666545524332303a204552433230206f7065726174696f6e20646964206e60008201527f6f74207375636365656400000000000000000000000000000000000000000000602082015250565b6000611c46602a8361188b565b9150611c5182611bea565b604082019050919050565b60006020820190508181036000830152611c7581611c39565b9050919050565b7f416464726573733a20696e73756666696369656e742062616c616e636520666f60008201527f722063616c6c0000000000000000000000000000000000000000000000000000602082015250565b6000611cd860268361188b565b9150611ce382611c7c565b604082019050919050565b60006020820190508181036000830152611d0781611ccb565b9050919050565b7f416464726573733a2063616c6c20746f206e6f6e2d636f6e7472616374000000600082015250565b6000611d44601d8361188b565b9150611d4f82611d0e565b602082019050919050565b60006020820190508181036000830152611d7381611d37565b9050919050565b600081519050919050565b600081905092915050565b60005b83811015611dae578082015181840152602081019050611d93565b83811115611dbd576000848401525b50505050565b6000611dce82611d7a565b611dd88185611d85565b9350611de8818560208601611d90565b80840191505092915050565b6000611e008284611dc3565b915081905092915050565b600081519050919050565b6000601f19601f8301169050919050565b6000611e3282611e0b565b611e3c818561188b565b9350611e4c818560208601611d90565b611e5581611e16565b840191505092915050565b60006020820190508181036000830152611e7a8184611e27565b90509291505056fea2646970667358221220266ccf656780207eefcc846cdb9d8ed1d9bfa8943a9b743795c2bc54dbccdd5a64736f6c634300080a0033",
  "linkReferences": {},
  "deployedLinkReferences": {}
}